:020000040800F2
:1000000028070020790200086B0300086703000836
:100010006903000863030008AD0400080000000045
:10002000000000000000000000000000C101000806
:100030006503000800000000150200083D040008E8
:10004000AF0400089302000893020008930200081E
:10005000930200089302000893020008930200082C
:10006000930200089302000893020008930200081C
:10007000930200089302000893020008930200080C
:1000800093020008930200089302000893020008FC
:1000900093020008930200089302000893020008EC
:1000A00093020008930200089302000893020008DC
:1000B00093020008930200089302000893020008CC
:1000C00093020008930200089302000893020008BC
:1000D00093020008930200089302000893020008AC
:1000E000930200089302000893020008930200089C
:1000F000930200089302000893020008930200088C
:10010000930200089302000893020008930200087B
:10011000930200089302000893020008930200086B
:10012000930200089302000893020008930200085B
:10013000930200089302000893020008930200084B
:10014000930200089302000893020008930200083B
:10015000930200089302000893020008930200082B
:10016000930200089302000893020008930200081B
:1001700093020008930200089302000800000000A8
:1001800093020008930200089302000893020008FB
:1001900093020008930200089302000893020008EB
:1001A000000000000000000093020008DFF80CD0FF
:1001B00000F0A6F8004800476D0900082807002055
:1001C0002A4B19680868B0E8F04F80F30988BFF33C
:1001D0006F8F4FF0000080F311887047000000001F
:1001E00006480068006880F3088862B661B6BFF30D
:1001F0004F8FBFF36F8F00DF00BF00BF08ED00E03F
:10020000DFF80C00016841F470010160704700BF25
:1002100088ED00E0EFF30980BFF36F8F134B1A688E
:100220001EF0100F08BF20ED108A20E9F04F10607B
:1002300008B44FF0500080F31188BFF34F8FBFF325
:100240006F8F00F0C3FB4FF0000080F3118808BCF3
:1002500019680868B0E8F04F1EF0100F08BFB0EC46
:10026000108A80F30988BFF36F8F70470000002069
:10027000EFF30580704700000648804706480047B6
:10028000FEE7FEE7FEE7FEE7FEE7FEE7FEE7FEE746
:10029000FEE7FEE751040008AD0100082DE9F05F1C
:1002A0000546002092469B468846064681464024E5
:1002B0001BE0284641464746224600F042F8534696
:1002C0005A46C01A914110D311461846224600F0F2
:1002D00029F82D1A67EB01084F462246012000211C
:1002E00000F020F817EB00094E41201EA4F1010494
:1002F000DFDC484631462A464346BDE8F09F000011
:10030000064C074D06E0E06840F0010394E8070062
:1003100098471034AC42F6D3FFF74CFF880B000827
:10032000A80B0008202A04DB203A00FA02F1002082
:1003300070479140C2F1200320FA03F31943904023
:100340007047202A04DB203A21FA02F0002170478E
:1003500021FA02F3D040C2F120029140084319462D
:100360007047FEE77047FEE7FEE770471CB50021C7
:100370002E4A00910191106840F4803010604FF4D3
:10038000A043106800F4003001900098401C0090D9
:10039000019810B900989842F3D11068800342D5B3
:1003A0000120019021484030016841F080510160F6
:1003B0001F49086840F4404008601C480830036842
:1003C0000360036843F400430360036843F4A053ED
:1003D0000360041F174B2360136843F0807313609E
:1003E00013689B01FCD50A6842F480320A604A68AF
:1003F000D203FCD50A6842F400320A604A689203CC
:10040000FCD50D4A40F205711160016821F003012D
:100410000160016841F0020101600168C1F38101DE
:100420000229FAD11CBD01911CBD00000038024018
:1004300000700040195A4007003C024010B500F01F
:100440001DFB012803D0BDE8104000F001BB10BD2A
:10045000124810B5016841F470010160104801684C
:1004600041F0010101600E4A00210832116002686A
:100470000C4B1A400260031D0B4A1A60026822F4FA
:100480008022026006480C300160FFF76FFF0349CD
:100490004FF000608039086010BD000088ED00E07A
:1004A00000380240FFFFF6FE10300024FEE77047E0
:1004B0000FB4054B10B503A9044A029800F018F8D0
:1004C00010BC5DF814FB0000550900083C0000203A
:1004D00002E008C8121F08C1002AFAD1704770470D
:1004E000002001E001C1121F002AFBD1704700006B
:1004F0002DE9FF4F8DB00F460546002606E0252862
:100500000BD0DDE90F1290476D1C761C287800286F
:10051000F5D111B03046BDE8F08F0024A246A146C7
:100520000122EC4900E0044315F8013F203B02FAA8
:1005300003F00842F7D128782A2810D06FF02F0254
:100540002878A0F13001092914D80AEB8A0102EBBE
:10055000410144F0020400EB010A6D1CF0E701CFF9
:100560005FEA000A03D544F40054CAF1000A44F0DB
:1005700002046D1C28782E2817D115F8010F44F0BD
:1005800004042A280ED06FF02F022878A0F1300141
:1005900009290AD809EB890102EB410100EB0109A5
:1005A0006D1CF2E757F8049B6D1C28786C280FD05F
:1005B00006DC4C2817D068280DD06A2814D104E036
:1005C000742810D07A280FD10DE044F400140AE00A
:1005D00044F4801401E044F440146978814202D16B
:1005E00004F580146D1C6D1C2A786E2A1FD00CDC5B
:1005F000632A31D004DC002A8BD0582A11D1A3E021
:10060000642A68D0692A0CD165E0732A2ED004DCF4
:100610006F2A73D0702A04D19BE0752A6FD0782A94
:100620006ED01046DDE90F129047761C50E1C4F3FE
:100630000250022806D0032809D0042801CF09D08F
:10064000066045E101CFF117C0E9006140E101CF4B
:1006500006803DE106703BE117F8040B8DF80000C1
:1006600000208DF80100EB46012003E057F804BBA1
:100670004FF0FF3061074FF0000102D40DE008F1A8
:100680000101884649450FDA8045F8DB1BF8081060
:100690000029F4D108E008F1010188468142FADB23
:1006A0001BF808100029F6D1DDE90F23AAEB08009A
:1006B0008146214600F036F9304400EB080604E09C
:1006C000DDE90F121BF8010B9047B8F10108F7D2D2
:1006D00021464846F7E00A21C4F302534FF0000BCD
:1006E0000891022B04D001CFC117032B09D00AE0D7
:1006F000FF1D27F00707F7E8020108E032E01FE0DE
:1007000020E000B2C117042B01D140B2C117031E73
:1007100071F1000307DA4FF0000CD0EB0C006CEB2A
:1007200001012D2302E0230504D52B238DF824306D
:10073000012303E0E30701D02023F7E7984658E0C0
:100740000A2110E010210EE010204FF0000B08905D
:100750000CE010214FF0000B44F004044FF00809A6
:10076000089103E008214FF0000B0891C4F30253F5
:10077000022B04D001CF0021032B06D006E0FF1D81
:1007800027F00707F7E8020103E080B2042B00D14D
:10079000C0B24FF0000823072BD5702A07D0DDF830
:1007A00020C08CF0100C5CEA0B0C05D00EE040234E
:1007B0008DF82430012308E050EA010306D03023ED
:1007C0008DF824308DF8252002239846DDF820C0CE
:1007D0008CF0080C5CEA0B0C0BD150EA010301D140
:1007E000630706D530238DF824304FF00108A9F1B6
:1007F0000109582A04D038A20B9208AA0A920BE0E9
:100800003AA2F9E75B46089AFFF748FD0B9B9B5C11
:100810000A9A521E0A92137050EA0102F2D10A9803
:10082000ADEB000000F1200B600702D524F480340A
:1008300001E04FF00109D94502DDA9EB0B0000E012
:10084000002000EB0B0141440890AAEB010AE003F1
:1008500006D4DDE90F232146504600F063F8064434
:100860004FF0000908E009A911F80900DDE90F12AD
:10087000904709F10109761CC145F4DBE0030CD572
:10088000DDE90F232146504600F04CF8064404E011
:10089000DDE90F1230209047761C0899481E089019
:1008A0000029F5DC08E00A980A990078491C0A91A9
:1008B000DDE90F129047761CBBF10001ABF1010B93
:1008C000F1DC21465046DDE90F2300F019F806441B
:1008D0006D1C1BE6092801003031323334353637C0
:1008E000383961626364656600000000303132337C
:1008F000343536373839414243444546000000001C
:100900002DE9F041044600251E461746880404D40C
:1009100005E039462020B0476D1C641EF9D52846F5
:10092000BDE8F0812DE9F041044600251E469046C1
:10093000C80301D5302700E02027880404D505E04E
:1009400041463846B0476D1C641EF9D52846BDE8BF
:10095000F081000004490A885206FCD5024AC1B25F
:10096000121D1180704700000014014000207047E4
:100970000648416B096829B1416BC968C968496873
:10098000816270474FF0FF31FAE70000000000205D
:10099000D0E9013201699A60D0E901235A604A68BE
:1009A000824201D182684A60002202610868401ECA
:1009B0000860704742684A6093688B60936859602A
:1009C000916008610168491C0160704770B5134D62
:1009D000286B10B10120E86170BD0020E861286932
:1009E0000F4EB0FA80F0C0F11F0000EB800456F803
:1009F000240028B940F6F6220AA111A0FFF758FDFD
:100A000006EB840000F108024168496841609142A8
:100A100001D149684160C868286070BD00000020AD
:100A2000400000202E2E5C2E2E5C467265655254CE
:100A30004F535C7372635C7461736B732E6300005D
:100A40004572726F723A25732C25640D0A000000FE
:100A500010B5502080F31188BFF34F8FBFF36F8F15
:100A600000F01AF818B104494FF0805008600020D7
:100A700080F3118810BD000004ED00E005484169D5
:100A800019B1006B18B10020704701207047022097
:100A900070470000000000202DE9F0412D4F002696
:100AA000386B40B1B869401CB861F86900B10126E3
:100AB0003046BDE8F081FD686D1CFD6011D1786B9A
:100AC000006828B140F6D91223A12AA0FFF7F0FC54
:100AD000786BB96B7963B863386A401C3862FFF78A
:100AE00047FFB86ADFF89C80854209D3786B0068BD
:100AF00080B1786BC068C468606885420DD2B86206
:100B00003868C06A00EB800158F821000128CCD970
:100B10000126CAE74FF0FF30F1E7201DFFF738FF4D
:100B2000A06A18B104F11800FFF732FFE06A012152
:100B30003A6981401143396100EB800108EB810083
:100B4000211DFFF737FFE06A3968C96A8842CDD3B3
:100B50000126CBE7000000202E2E5C2E2E5C467274
:100B6000656552544F535C7372635C7461736B734D
:100B70002E6300004572726F723A25732C25640D46
:100B80000A00000040000020A80B00080000002020
:100B900040000000D0040008E80B000840000020DE
:100BA000E8060000E004000800000000000000006B
:100BB0000000000000000000000000000000000035
:100BC0000000000000000000000000000000000025
:100BD0000000000000000000000000000000000015
:080BE00000000000000000000D
:04000005080001AD41
:00000001FF
