:020000040800F2
:10000000B89C0020550200089D0F0008310E000822
:10001000990F0008C9080008ED1B00080000000047
:100020000000000000000000000000009D0100082A
:10003000CD08000800000000F1010008611600086A
:100040006F0200086F0200086F0200086F020008CC
:100050006F0200086F0200086F0200086F020008BC
:100060006F0200086F0200086F0200086F020008AC
:100070006F0200086F0200086F0200086F0200089C
:100080006F0200086F0200086F0200086F0200088C
:100090006F0200086F0200086F0200086F0200087C
:1000A0006F0200086F0200086F0200086F0200086C
:1000B0006F020008D91600086F0200086F020008DE
:1000C0006F0200086F0200086F0200086F0200084C
:1000D0006F0200086F0200086F0200086F0200083C
:1000E0006F0200086F0200086F0200086F0200082C
:1000F0006F0200086F0200086F0200086F0200081C
:100100006F0200086F0200086F0200086F0200080B
:100110006F0200086F0200086F0200086F020008FB
:100120006F0200086F0200086F0200086F020008EB
:100130006F0200086F0200086F0200086F020008DB
:100140006F0200086F0200086F0200086F020008CB
:100150006F0200086F0200086F0200086F020008BB
:100160006F0200086F0200086F0200086F020008AB
:100170006F0200086F0200086F0200086F0200089B
:100180006F0200086F020008DFF80CD000F0A6F83C
:1001900000480047E5390008B89C00202A4B196840
:1001A0000868B0E8F04F80F30988BFF36F8F4FF015
:1001B000000080F3118870470000000006480068C6
:1001C000006880F3088862B661B6BFF34F8FBFF353
:1001D0006F8F00DF00BF00BF08ED00E0DFF80C000C
:1001E000016841F470010160704700BF88ED00E0D4
:1001F000EFF30980BFF36F8F134B1A681EF0100FD7
:1002000008BF20ED108A20E9F04F106008B44FF0CD
:10021000500080F31188BFF34F8FBFF36F8F06F04C
:100220003FF84FF0000080F3118808BC1968086897
:10023000B0E8F04F1EF0100F08BFB0EC108A80F34A
:100240000988BFF36F8F704700000020EFF305802F
:10025000704700000648804706480047FEE7FEE773
:10026000FEE7FEE7FEE7FEE7FEE7FEE7FEE7FEE766
:1002700071160008890100082DE9F05F054600208D
:1002800092469B4688460646814640241BE0284607
:1002900041464746224600F042F853465A46C01AA5
:1002A000914110D311461846224600F029F82D1A24
:1002B00067EB01084F4622460120002100F020F89C
:1002C00017EB00094E41201EA4F10104DFDC484673
:1002D00031462A464346BDE8F09F0000064C074DD4
:1002E00006E0E06840F0010394E807009847103406
:1002F000AC42F6D3FFF74CFFCC850008EC85000834
:10030000202A04DB203A00FA02F1002070479140D5
:10031000C2F1200320FA03F3194390407047202ACA
:1003200004DB203A21FA02F00021704721FA02F39F
:10033000D040C2F1200291400843194670470000A6
:100340001548006830B114480C38006810B11348E3
:10035000006858B91248C08840B91148408C28B18B
:1003600010480068401C0F49086002E000200D4959
:1003700008600C480068962806D90120084988833F
:1003800000200949087005E0002005498883012004
:100390000549087070470000140241423C02404287
:1003A0008C940020CC0000208C00002001461C48CA
:1003B000814201D2002070471A48814201D20820B0
:1003C000F9E71948814201D21020F4E71748814229
:1003D00001D21820EFE71648814201D22020EAE737
:1003E0001448814201D22820E5E71348814201D216
:1003F0003020E0E71148814201D23820DBE7104885
:10040000814201D24020D6E70E48814201D24820E5
:10041000D1E70D48814201D25020CCE75820CAE7ED
:10042000004000080080000800C00008000001082B
:100430000000020800000408000006080000080888
:1004400000000A0800000C0800000E082DE9F04129
:1004500007460D461646002406E0384600F008F828
:1004600045F824003F1D641CB442F6D3BDE8F0817A
:1004700001460868704700002DE9F04704460E4623
:1004800017464FF009080025A946B4F1006F02D3C2
:1004900004F0030008B1BDE8F08700F0CBFA0020BB
:1004A00000F016FA254604EB87091848854215D254
:1004B00011E02846FFF7DCFF401C58B12846FFF743
:1004C00075FF8246022100F015FA8046B8F1090F47
:1004D00001D002E02D1D4D45EBD300BFB8F1090F4F
:1004E0000CD108E02046316800F07CFA092800D0E1
:1004F00003E0241D361D4C45F4D300BF012000F05D
:10050000E7F900F065FA00BFC5E700000000FF1F33
:100510002DE9F04180460D46C5F3074030B1012872
:1005200006D0022806D0032808D105E0002405E003
:10053000012403E0022401E0032400BF00BFC5F34F
:10054000072010B1012804D101E0002701E00127B4
:1005500000BF00BFE8B220B1012804D0022806D1B4
:1005600003E0002603E0012601E0022600BF00BFF1
:10057000404600F013F80849D8F80400086008461F
:1005800004718771032048710846C671D8F80000CD
:1005900000F042FBBDE8F0816000002070B5054628
:1005A0001C492868884201D101242EE01A49286894
:1005B000884201D1022428E018492868884201D1E4
:1005C000042422E016492868884201D108241CE04E
:1005D00014492868884201D1102416E0124928687D
:1005E000884201D1202410E010492868884201D1B6
:1005F00040240AE00E492868884201D1802404E0A2
:100600000C492868884200D184150121204600F059
:1006100081FF70BD0000024000040240000802405B
:10062000000C02400010024000140240001802407A
:10063000001C02400020024030B58BB004460D463D
:100640000121084600F066FF0121084600F082FF04
:10065000012208213B4800F027FB012209213948EB
:1006600000F022FB01220A21364800F01DFB4FF466
:10067000E060099002208DF8280003208DF8290001
:1006800000208DF82A0001208DF82B0009A92D48A3
:1006900000F0C2FAA8B2ADF818000020ADF81A00B8
:1006A0000794ADF8200006A9274801F0E1F90020E1
:1006B000ADF814006020ADF804000120ADF806008C
:1006C0000220ADF8100001A91F4801F067F80821C9
:1006D0001D4801F0A1F80020ADF814006020ADF82D
:1006E00004000120ADF806000220ADF8100001A9B9
:1006F000154801F09BF80821134801F0E9F80020A3
:10070000ADF814006020ADF804000120ADF806003B
:100710000220ADF8100001A90B4801F0E7F808210C
:10072000094801F033F90121074800F0F3FF0121E6
:10073000054800F0FEFF0121034801F006F80BB068
:1007400030BD000000000240000001402DE9FF41E3
:1007500007460C4615461E46DDF82880384600F050
:1007600027F80294ADF804500020ADF80600ADF86B
:100770000C0001A9384601F07BF9012211463846E8
:1007800001F003F80121384600F0D3FF384601F0AC
:100790000DF98DF800008DF801608DF802800120C0
:1007A0008DF80300684600F0FBFBBDE8FF81000008
:1007B00010B504463748844204D10121084600F0B0
:1007C000C9FE66E0B4F1804F04D10121084600F073
:1007D000B1FE5EE03048844204D10121022000F0E5
:1007E000A9FE56E02D48844204D10121042000F0E6
:1007F000A1FE4EE02A48844204D10121082000F0E5
:1008000099FE46E02748844204D10121102000F0DF
:1008100091FE3EE02448844204D10121202000F0D2
:1008200089FE36E02148844204D10121022000F0F3
:1008300091FE2EE01E48844204D10121080400F0FC
:1008400089FE26E01B48844204D10121480400F0BF
:1008500081FE1EE01848844204D10121880400F082
:1008600079FE16E01548844204D10121402000F0B1
:1008700061FE0EE01248844204D10121802000F084
:1008800059FE06E00F48844203D10121801500F093
:1008900051FE10BD0000014000040040000800406F
:1008A000000C004000100040001400400004014013
:1008B0000040014000440140004801400018004051
:1008C000001C00400020004000BFFEE77047000011
:1008D00030B10749096841F48061054A116005E0BB
:1008E0000349096821F48061014A116070470000E2
:1008F000003C024070B504460A460026092502B9AC
:1009000009E0012A01D1160205E0022A01D11602EE
:1009100001E04FF4407600F09FF80546092D28D1FC
:100920001548006820F440701349086008460068C4
:10093000304308600846006820F0F8000860084668
:10094000006844F0020108430B490860084600684B
:1009500040F48030086000F07FF8054606480068E3
:1009600020F00200044908600846006820F0F80002
:100970000860284670BD0000103C02400920134961
:10098000096801F48031B1F5803F01D101201CE0FC
:100990000E49096801F0100109B1062015E00B4964
:1009A000096801F4807109B102200EE00749096865
:1009B00001F0E00109B1072007E00449096801F0EE
:1009C000020109B1082000E0092070470C3C0240F8
:1009D0000348006840F0004001490860704700008B
:1009E000103C024030B502460C46092500F034F8B0
:1009F0000546092D19D10E48006820F440700C49B5
:100A000008600846006840F4007008600846006806
:100A100040F001000860146000F01EF8054604482C
:100A2000006820F0010002490860284630BD00003F
:100A3000103C02400548006800F0004028B104481E
:100A400002490C390860034808607047103C0240B6
:100A500023016745AB89EFCD08B509200090FFF76A
:100A60008DFF009002E0FFF789FF00909DF80000E5
:100A70000128F8D09DF8000008BD000008B505F079
:100A8000ABFD0090A0E00121684605F0AFFAFFF74A
:100A900057FC4E48808BB0B14D48006810B14D48AE
:100AA000006880B94A480C30006818B14948001FF6
:100AB000006840B901F046FC07204449C880002086
:100AC0004549087016E045480078012810D13F4894
:100AD000808B68B901F03CFF4FF47A7005F048FA5A
:100AE0003F4800883949C88001203B49087001E02F
:100AF00001F02EFF3548007F3849087036480078ED
:100B000038B33248C088364908803048C088082841
:100B10001DD2DFE800F004070A0D1013161901F0CA
:100B20003DFD15E001F0C8FE12E001F0DDFE0FE032
:100B300001F096FC0CE001F071FB09E001F008FF08
:100B400006E001F0FFFB03E001F0D4FA00BF00BFB4
:100B500000BF2448007DB8B32248406E2249086097
:100B60002048806E214908601E48C06E20490860F8
:100B70001C48006F1F4908601A48D0F884001E49BD
:100B800008601848D0F888001C4908601548D0F85B
:100B90008C001B4908601348D0F890001949086080
:100BA0001048406F184908600E48806F1749086068
:100BB0000C48C06F164908600A48D0F880001549F3
:100BC00008600020074908755DE700008C9400204C
:100BD00000024142048240428C000020D0000020EC
:100BE000D2000020F8930020900000209400002004
:100BF000980000209C000020A0000020A4000020FD
:100C0000A8000020AC000020B0000020B4000020AC
:100C1000B8000020BC000020F0B50A4600210023E7
:100C2000002400BF3DE0012505FA01F3156805EA3F
:100C300003049C4234D105684F000326BE40B543EF
:100C4000056015794E00B540066835430560157995
:100C5000012D02D01579022D16D185684F0003268B
:100C6000BE40B543856055794E00B5408668354332
:100C70008560456801268E40B54345604568967994
:100C80008E40B6B235434560C5684F000326BE406E
:100C9000B543C560D5794E00B540C6683543C560DB
:100CA000491C1029BFD3F0BDF0B5002300244D0727
:100CB000ED0E02FA05F3CE1000F1200555F826508E
:100CC0004E07F70E0F26BE40B543CF1000F12006A9
:100CD00046F82750CE1000F1200555F8265045EA79
:100CE0000304CE1000F1200545F82640F0BD024671
:100CF000002013690B400BB1012000E00020704779
:100D000010B501213248FFF703FC01213148FFF7FC
:100D1000FFFB01213048FFF7FBFB01212F48FFF7C4
:100D2000F7FB01212E48FFF7F3FB01212D48FFF7C8
:100D3000EFFB01212C48FFF7EBFB01212B48FFF7CC
:100D4000E7FB01212A48FFF7E3FB01212948FFF7D0
:100D5000DFFB01212848FFF7DBFB01212748FFF7D4
:100D6000D7FB01212648FFF7D3FB01212548FFF7D8
:100D7000CFFB01212448FFF7CBFB01212348FFF7DC
:100D8000C7FB01212248FFF7C3FB01212148FFF7E0
:100D9000BFFB01212048FFF7BBFB01211F48FFF7E4
:100DA000B7FB01211E48FFF7B3FB01211D48FFF7E8
:100DB000AFFB01211C48FFF7ABFB01211B48FFF7EC
:100DC000A7FBA72144F61F60FFF736FC10BD00000B
:100DD0009C6800088468000874680008946800082B
:100DE0008C680008A46800087C6900088C69000809
:100DF00094690008F4680008146900081C69000878
:100E0000246900082C690008446900084C6900083E
:100E1000546900085C690008AC680008746900083F
:100E2000FC680008846900089C690008EC680008F8
:100E300000BFFEE71CB501210E2000F06BFB4FF454
:100E4000E050009000208DF8040003208DF805008C
:100E500001208DF8070069460748FFF7DDFE0820EE
:100E6000009069460548FFF7D7FE042000906946C8
:100E70000348FFF7D1FE1CBD0008024000040240F9
:100E8000000C024010B5044614B101203D49087021
:100E90003C48007800283BD04FF480613A48FFF787
:100EA00026FF80B14FF480513748FFF720FF50B143
:100EB00004213648FFF71BFF28B14FF40061324888
:100EC000FFF715FF20BB642001F00EFE00202D4926
:100ED00008704FF480612C48FFF709FF08B9012022
:100EE00010BD4FF480512848FFF701FF08B90220D8
:100EF000F6E704212548FFF7FAFE08B90320EFE7DB
:100F00004FF400612048FFF7F2FE08B90420E7E73C
:100F10001F48007888B108211E48FFF7E8FE60B935
:100F2000142001F0E1FD002019490870082119483A
:100F3000FFF7DDFE20BB0520D2E74FF480611248A9
:100F4000FFF7D5FE01281BD101030F48FFF7CFFEA5
:100F5000012815D104210D48FFF7C9FE01280FD142
:100F6000C1020948FFF7C3FE012809D10821094839
:100F7000FFF7BDFE012803D102490870044908703B
:100F80000020ADE78900002000080240000C02406C
:100F9000880000200004024000BFFEE77047000008
:100FA00070B5002100230F22C4781CB3174C2468AD
:100FB00004F4E064C4F5E064C4F30721C1F104045F
:100FC000E3B20A4144789C40E1B284781440214362
:100FD0000C07210E0E4C05786155047804F01F05AE
:100FE0000124AC4005786D11AD0005F1E025C5F890
:100FF000004109E0047804F01F050124AC40054DD0
:101000000678761145F8264070BD00000CED00E032
:1010100000E400E080E100E002490143024A11607F
:10102000704700000000FA050CED00E030B5002428
:101030000CE0002506E00020074901EBC50108553A
:10104000681CC5B2802DF6DB601CC4B23F2CF0DBFF
:1010500000F00CF930BD0000B2940020F0B5144649
:1010600000267F2801DC3F2900DDF0BD0B46CF17AD
:1010700001EB5777FF10C7F10707FAB2CF1701EB63
:101080005777FF10A1EBC707FDB2C5F10707012392
:10109000BB40DEB24CB10A4B03EBC0039B5C334355
:1010A000074F07EBC007BB5408E0054B03EBC00339
:1010B0009B5CB343024F07EBC007BB5400BFD4E7B0
:1010C000B29400202DE9F04706460F469046994617
:1010D000DDF820A034460CE03D4606E052462946A5
:1010E0002046FFF7BBFF681CC5B24D45F6DD601C0E
:1010F000C4B24445F0DD00F0B9F8BDE8F087000067
:101100001CB501215F2000F005FA4020009001206D
:101110008DF8040000208DF8070003208DF80500ED
:1011200069464A48FFF778FD4FF4C050009001200F
:101130008DF8040000208DF8070003208DF80500CD
:1011400069464348FFF768FD4FF440400090694608
:101150004048FFF761FD01203F4908603F49C1F861
:10116000B0023F490860091D086000203D49086041
:10117000642001F0B9FC01203B49C1F8980200212C
:10118000AE2000F099F90021D52000F095F900215A
:10119000502000F091F90021A82000F08DF90021E5
:1011A0003F2000F089F90021D32000F085F90021CB
:1011B000084600F081F90021402000F07DF900216F
:1011C0008D2000F079F90021142000F075F900213C
:1011D000202000F071F90021022000F06DF90021BB
:1011E000A12000F069F90021C02000F065F900217C
:1011F000DA2000F061F90021122000F05DF90021F1
:10120000FF2000F059F90021EF2000F055F90021EE
:10121000D92000F051F90021F12000F04DF9002112
:10122000DB2000F049F90021302000F045F90021D1
:10123000A42000F041F90021A62000F03DF9002192
:10124000AF2000F039F9FFF7F1FE1CBD00080240A5
:101250000000024000040240AC0240420000404254
:10126000B8824042980241420000414230B5002419
:101270001CE004F1B001C8B2002100F01DF900210A
:10128000084600F019F90021102000F015F900259A
:1012900008E0084901EBC501085D012100F00CF9E7
:1012A000681CC5B2802DF4DB601CC4B2082CE0DBE6
:1012B00030BD0000B29400202DE9F84F80460F4663
:1012C00016461C46BA462046E31704EB5373DB1060
:1012D00021464FEAE47C04EB5C7C4FEAEC0CA4EB87
:1012E000CC0CBCF1000F02D04FF0010C01E04FF02C
:1012F000000C6344224604EBD27C4FEA6C0C03FBE7
:101300000CF303F0FF0BA6F12000C6B200254EE05F
:101310000C2C07D106EB4600274901EB8000405D0D
:10132000009013E0102C05D1244800EB0610405D1E
:1013300000900BE0182C07D106EBC600204901EB0A
:101340008000405D009001E0BDE8F88F4FF000099B
:1013500027E0009800F0800028B1394640460A9AFC
:10136000FFF77CFE09E00A9808B9012000E00020A0
:10137000024639464046FFF771FE00984006000ECF
:101380000090781CC7B2A7EB0A00A04205D15746CF
:1013900008F1010000F0FF0806E009F1010000F08B
:1013A000FF09B9F1080FD4DB00BF681CC5B25D4569
:1013B000AEDB00BFC8E70000F46D000868720008EB
:1013C000587800082DE9FF4F81B0074691461E4628
:1013D0000E9D4FF0000A002439E0301B401EC1B2C0
:1013E0000A2002F0CBFFB9FBF0F00A21B0FBF1F2CA
:1013F00001FB1208BAF1000F16D1701EA04213DDD6
:10140000B8F1000F0ED10120AB4605EBDB7149109E
:1014100001FB04710090C8B22B4620220299FFF70D
:101420004BFF12E04FF0010A0120AB4605EBDB71E8
:10143000491001FB04710090C8B208F13001CAB232
:101440002B460299FFF738FF00BF601CC4B2B442BC
:10145000C3DB05B0BDE8F08FF8B506460F4615466C
:101460001C4621E004EBD4714910C1F18001B14266
:1014700002DA00263819C7B2C4F14000B84204DAD3
:10148000002006460746FFF7D1FD012000902A788C
:10149000234639463046FFF70FFF204604EBD07154
:1014A00006EB6101CEB26D1C28787E2802DC28781C
:1014B0002028D7DAF8BD000010B5134B19600023BF
:1014C000124CC4F8B832002214E00023104C236000
:1014D00000F080031BB10123241F236003E00023DD
:1014E0000B4C241F23600123094C23604306180E74
:1014F000531CDAB2082AE8DB0123034C241F2360C3
:10150000024CC4F8BC3210BDBC8240420080404254
:10151000B002404229B1064A12680243044B1A60E5
:1015200004E0034A12688243014B1A6070470000CE
:101530003038024029B1064A12680243044B1A604F
:1015400004E0034A12688243014B1A6070470000AE
:101550004038024029B1064A12680243044B1A601F
:1015600004E0034A12688243014B1A60704700008E
:10157000443802400CB500200190009034480068C7
:1015800040F480303249086000BF3148006800F400
:10159000003000900198401C0190009818B9019803
:1015A000B0F5A04FF1D12A48006800F4003010B126
:1015B0000120009001E0002000900098012846D111
:1015C00023484030006840F0805021494031086095
:1015D0002048006840F440401E4908601C4808301C
:1015E00000681B49083108600846006840F4004064
:1015F00008600846006840F4A05008601648091FBB
:101600000860081F006840F08070091F086000BF74
:101610000F48006800F000700028F9D040F2057013
:101620000E4908600A480830006820F003000849A5
:10163000083108600846006840F00200086000BFFA
:1016400003480830006800F00C000828F8D10CBDF1
:10165000003802400070004008544007003C02403F
:1016600010B504F0A9FF012801D004F05BFF10BD04
:1016700010B51548006840F470001349086013481D
:10168000006840F001001149086000200F4908314E
:1016900008600E4800680E4908400C4908600D4873
:1016A000091D0860081F006820F48020091F0860D9
:1016B000002006490C310860FFF75CFF4FF0006026
:1016C00001498039086010BD88ED00E00038024013
:1016D000FFFFF6FE1030002410B501210B4800F08A
:1016E00043F801280DD10A480068401C08490860E9
:1016F000084600684CF25031884202D1002004496B
:1017000008600121014800F011F810BD00040040FC
:10171000E000002021B1028842F08002028004E053
:1017200002884FF67F731A4002807047CA430282D4
:10173000704721B1028842F00102028004E0028871
:101740004FF6FE731A400280704731B1B0F8442062
:1017500042F40042A0F8442005E0B0F84420C2F36F
:101760000E02A0F84420704730B502460020002346
:101770000024158A05EA0103958905EA010413B1DD
:101780000CB1012000E0002030BD1AB183890B4369
:10179000838102E083898B438381704770B5002485
:1017A00000220023058C4FF6FE7635400584028C1E
:1017B0008388048B4FF68F752C40B51E2C400D8806
:1017C0002C43751E2A408D892A434D882A43104D8B
:1017D000A84202D00F4DA84213D14FF6F7752A4008
:1017E000CD892A434FF6FB752A408D882A434FF650
:1017F000FF652B404FF6FF552B400D8A2B434D8A3A
:101800002B43838004838D684563028470BD000090
:1018100000000140000401400A460021018B4FF600
:10182000F7731940114301837047000070B500241D
:1018300000220023058C4FF6EF7635400584028C9C
:101840008388048B48F6FF752C404FF6FF452C40EB
:101850000D884FF6FF7606EA05252C434FF6DF7517
:101860002A408D8906EA05152A434D8806EA0515A2
:101870002A43154DA84202D0144DA8421DD14FF65F
:101880007F752A40CD894FF6FF7606EA05152A4373
:101890004FF6BF752A408D8806EA05152A434FF694
:1018A000FF352B404FF2FF752B400D8A06EA850568
:1018B0002B434D8A06EA85052B43838004838D687C
:1018C0008563028470BD00000000014000040140F7
:1018D0000A460021018B4FF2FF7319404FF6FF7348
:1018E00003EA0223194301837047000070B5002406
:1018F00000220023058C4FF6FF6635400584028CDC
:101900008388848B4FF68F752C404FF6FC752C40E6
:101910000D882C434FF6FF552A408D894FF6FF76F0
:1019200006EA05252A434D8806EA05252A43154D72
:10193000A84202D0144DA8421DD14FF2FF752A4093
:10194000CD894FF6FF7606EA05252A434FF6FF3587
:101950002A408D8806EA05252A434EF6FF752B405E
:101960004DF6FF752B400D8A06EA05152B434D8A6F
:1019700006EA05152B43838084838D68C563028442
:1019800070BD000000000140000401400A46002133
:10199000818B4FF6F7731940114381837047416380
:1019A000704781637047C163704700000146B1F121
:1019B000804F01D11C203FE0204A914201D11D20DF
:1019C0003AE01F4A914201D11E2035E01D4A914262
:1019D00001D1322030E01C4A914201D136202BE067
:1019E0001A4A914201D1372026E0194A914201D189
:1019F000182021E0174A914201D119201CE0164A13
:101A0000914201D11A2017E0144A914201D12B20B2
:101A100012E0134A914201D12C200DE0114A91426B
:101A200001D12D2008E0104A914201D1192003E094
:101A30000E4A914200D12C20704700000004004063
:101A400000080040000C004000100040001400405E
:101A5000004001400044014000480140001800409F
:101A6000001C004000200040000001400004014034
:101A700000220288184B98420ED0184B98420BD087
:101A8000B0F1804F08D0164B984205D0154B9842C4
:101A900002D0154B984204D14FF68F731A404B88F1
:101AA0001A43124B984207D0114B984204D04FF67C
:101AB000FF431A400B891A4302804B68C3620B88AC
:101AC0000385054B984202D0044B984201D18B7A92
:101AD0000386012383827047000001400004014017
:101AE0000004004000080040000C004000100040CE
:101AF000001400402D488089012808D140F2BE50D2
:101B00002B49086040F2FA502A49086018E027483B
:101B10008089022808D140F2BE502549086040F271
:101B2000FA50244908600BE020488089032807D137
:101B300040F2BE501E49086040F2FA501D4908604C
:101B40001D48406E1D4908601B48806E1C49086096
:101B50001948C06E1B4908601748006F1A49086091
:101B60001548D0F88400194908601348D0F8880057
:101B7000174908601048D0F88C00164908600E48D4
:101B8000D0F89000144908600B48406F1349086072
:101B90000948806F124908600748C06F1149086002
:101BA0000548D0F880001049086070478C940020E8
:101BB000C0000020C4000020F89300209000002006
:101BC00094000020980000209C000020A00000202D
:101BD000A4000020A8000020AC000020B0000020DD
:101BE000B4000020B8000020BC00002000BFFEE7C9
:101BF0000FB4054B10B503A9044A029800F018F879
:101C000010BC5DF814FB00007137000810010020C3
:101C100002E008C8121F08C1002AFAD170477047B5
:101C2000002001E001C1121F002AFBD17047000013
:101C30002DE9FF4F8DB00F460546002606E025280A
:101C40000BD0DDE90F1290476D1C761C2878002818
:101C5000F5D111B03046BDE8F08F0024A246A14670
:101C60000122EC4900E0044315F8013F203B02FA51
:101C700003F00842F7D128782A2810D06FF02F02FD
:101C80002878A0F13001092914D80AEB8A0102EB67
:101C9000410144F0020400EB010A6D1CF0E701CFA2
:101CA0005FEA000A03D544F40054CAF1000A44F084
:101CB00002046D1C28782E2817D115F8010F44F066
:101CC00004042A280ED06FF02F022878A0F13001EA
:101CD00009290AD809EB890102EB410100EB01094E
:101CE0006D1CF2E757F8049B6D1C28786C280FD008
:101CF00006DC4C2817D068280DD06A2814D104E0DF
:101D0000742810D07A280FD10DE044F400140AE0B2
:101D100044F4801401E044F440146978814202D113
:101D200004F580146D1C6D1C2A786E2A1FD00CDC03
:101D3000632A31D004DC002A8BD0582A11D1A3E0C9
:101D4000642A68D0692A0CD165E0732A2ED004DC9D
:101D50006F2A73D0702A04D19BE0752A6FD0782A3D
:101D60006ED01046DDE90F129047761C50E1C4F3A7
:101D70000250022806D0032809D0042801CF09D038
:101D8000066045E101CFF117C0E9006140E101CFF4
:101D900006803DE106703BE117F8040B8DF800006A
:101DA00000208DF80100EB46012003E057F804BB4A
:101DB0004FF0FF3061074FF0000102D40DE008F151
:101DC0000101884649450FDA8045F8DB1BF8081009
:101DD0000029F4D108E008F1010188468142FADBCC
:101DE0001BF808100029F6D1DDE90F23AAEB080043
:101DF0008146214600F036F9304400EB080604E045
:101E0000DDE90F121BF8010B9047B8F10108F7D27A
:101E100021464846F7E00A21C4F302534FF0000B75
:101E20000891022B04D001CFC117032B09D00AE07F
:101E3000FF1D27F00707F7E8020108E032E01FE086
:101E400020E000B2C117042B01D140B2C117031E1C
:101E500071F1000307DA4FF0000CD0EB0C006CEBD3
:101E600001012D2302E0230504D52B238DF8243016
:101E7000012303E0E30701D02023F7E7984658E069
:101E80000A2110E010210EE010204FF0000B089006
:101E90000CE010214FF0000B44F004044FF008094F
:101EA000089103E008214FF0000B0891C4F302539E
:101EB000022B04D001CF0021032B06D006E0FF1D2A
:101EC00027F00707F7E8020103E080B2042B00D1F6
:101ED000C0B24FF0000823072BD5702A07D0DDF8D9
:101EE00020C08CF0100C5CEA0B0C05D00EE04023F7
:101EF0008DF82430012308E050EA010306D0302396
:101F00008DF824308DF8252002239846DDF820C076
:101F10008CF0080C5CEA0B0C0BD150EA010301D1E8
:101F2000630706D530238DF824304FF00108A9F15E
:101F30000109582A04D038A20B9208AA0A920BE091
:101F40003AA2F9E75B46089AFEF796F90B9B9B5C71
:101F50000A9A521E0A92137050EA0102F2D10A98AC
:101F6000ADEB000000F1200B600702D524F48034B3
:101F700001E04FF00109D94502DDA9EB0B0000E0BB
:101F8000002000EB0B0141440890AAEB010AE0039A
:101F900006D4DDE90F232146504600F063F80644DD
:101FA0004FF0000908E009A911F80900DDE90F1256
:101FB000904709F10109761CC145F4DBE0030CD51B
:101FC000DDE90F232146504600F04CF8064404E0BA
:101FD000DDE90F1230209047761C0899481E0890C2
:101FE0000029F5DC08E00A980A990078491C0A9152
:101FF000DDE90F129047761CBBF10001ABF1010B3C
:10200000F1DC21465046DDE90F2300F019F80644C3
:102010006D1C1BE609280100303132333435363768
:102020003839616263646566000000003031323324
:1020300034353637383941424344454600000000C4
:102040002DE9F041044600251E461746880404D4B5
:1020500005E039462020B0476D1C641EF9D528469E
:10206000BDE8F0812DE9F041044600251E4690466A
:10207000C80301D5302700E02027880404D505E0F7
:1020800041463846B0476D1C641EF9D52846BDE868
:10209000F081000010B5044601F040FC01F0A0FA08
:1020A00000200849486004F081F90649486001F0C1
:1020B00077FC03F003FB01F065FB002004F008F857
:1020C00010BD00006800002010B504200749C8803A
:1020D000642003F04DFF05200449C880642003F00C
:1020E00047FF00200249087010BD00008C940020BA
:1020F0000301002010B545480068012819D1434864
:10210000001F0068A8B941480830006888B94048F5
:10211000006844F62062111A3E48FFF740FC3E4832
:1021200000680F3044F62062111A3A48FFF73BFC72
:102130006BE036480068D0B93448001F0068B0B979
:10214000324808300068012811D1314800680F3842
:1021500044F62062111A2F48FFF721FC2E48006830
:1021600044F62062111A2B48FFF71DFC4DE027486A
:10217000006801281AD12548001F0068012815D1E0
:1021800022480830006888B92148006844F6206277
:10219000111A2048FFF703FC1F4800680A3044F674
:1021A0002062111A1B48FFF7FEFB2EE0174800685B
:1021B000D8B91648001F0068012816D11348083006
:1021C0000068012811D1124800680A3844F62062DC
:1021D000111A1048FFF7E3FB0F48006844F620622D
:1021E000111A0C48FFF7DFFB0FE00948006844F6BE
:1021F0002062111A0748FFF7D2FB0748006844F62F
:102200002062111A0348FFF7CEFB10BD10024042B6
:10221000C400002000000140C000002010B5454867
:102220000068012819D14348001F0068A8B9414837
:102230000830006888B94048006844F62062111AE6
:102240003E48FFF7ACFB3E4800680F3044F6206282
:10225000111A3A48FFF7A7FB6BE036480068D0B97F
:102260003448001F0068B0B93248083000680128BF
:1022700011D1314800680F3844F62062111A2F48F6
:10228000FFF78DFB2E48006844F62062111A2B4898
:10229000FFF789FB4DE02748006801281AD125483F
:1022A000001F0068012815D122480830006888B94D
:1022B0002148006844F62062111A2048FFF76FFB9E
:1022C0001F4800680A3044F62062111A1B48FFF7C5
:1022D0006AFB2EE017480068D8B91648001F00684E
:1022E000012816D1134808300068012811D112487E
:1022F00000680A3844F62062111A1048FFF74FFBB5
:102300000F48006844F62062111A0C48FFF74BFB97
:102310000FE00948006844F62062111A0748FFF7E9
:102320003EFB0748006844F62062111A0348FFF795
:102330003AFB10BD100240429C000020000001400A
:102340009800002010B524480068012816D12248C2
:10235000001D0068012811D12048006844F6206261
:10236000111A1F48FFF71BFB1E480068001F44F6A8
:102370002062111A1A48FFF716FB2BE01648143892
:102380000068012816D11448001F0068012811D1E7
:1023900012480068001D44F62062111A1048FFF729
:1023A000FEFA1048006844F62062111A0C48FFF744
:1023B000FAFA0FE00948006844F62062111A08484A
:1023C000FFF7EDFA0748006844F62062111A044846
:1023D000FFF7E9FA10BD000014024042A4000020FB
:1023E00000000140A000002070B5044600201949FB
:1023F000C8804FF4FA7003F0BBFD002525E075B9E5
:1024000000201449C880642003F0B2FD0520114962
:10241000C8804FF4FA7003F0ABFD012515E00620EB
:102420000C49C8800C480068012803D00B4800689C
:1024300001280AD105200749C8804FF47A7003F0BB
:1024400097FD01200349C88301E0002CD7D100BFCC
:1024500070BD00008C9400200C024142008240427A
:1024600010B53B480068012816D13948103800687B
:10247000012811D137480068401D44F62062111A26
:102480003548FFF78CFA3548006844F62062111A87
:102490003148FFF788FA59E02D48083000680128D4
:1024A00016D12B48001D0068012811D12948006869
:1024B00044F62062111A2848FFF771FA274800688D
:1024C000401F44F62062111A2348FFF76CFA3DE0E2
:1024D0001F48001D0068012811D11E48006844F6FD
:1024E0002062111A1C48FFF75AFA1C480068401F66
:1024F00044F62062111A1848FFF755FA26E01448EE
:1025000010380068012811D112480068401D44F6B7
:102510002062111A1048FFF742FA1048006844F68A
:102520002062111A0C48FFF73EFA0FE009480068D4
:1025300044F62062111A0848FFF731FA074800688C
:1025400044F62062111A0448FFF72DFA10BD00006E
:1025500010024042AC00002000000140A800002012
:1025600010B50D488088052813D2DFE800F0030677
:10257000090C0F0000F0C6FA0BE003F0E3F908E0E5
:1025800000F0E4FD05E000F089FC02E001F010F944
:1025900000BF00BF10BD00008C94002010B5834820
:1025A000407D012810D08248B0F90E00401C18B9B7
:1025B0007F484089022807D07D48C089012806D17C
:1025C0007B484089032802D105207A4908707A485F
:1025D000006801281DD178480C380068012818D1FE
:1025E000754814380068A0B97448006844F6206241
:1025F000111A7348FFF7D3F9724800680F3844F690
:102600002062111A6E48FFF7CEF90120694908705F
:10261000CAE069480068F0B967480C3800680128CA
:1026200019D1654814380068012814D1634800683E
:102630000F3044F62062111A6148FFF7B0F9614883
:10264000006844F62062111A5D48FFF7ACF90220D9
:1026500058490870A8E058480068E8B956480C384E
:102660000068C8B9544814380068012814D1534888
:102670000068283044F62062111A5148FFF78FF99C
:102680005048006844F62062111A4D48FFF78BF954
:1026900003204849087087E04748006801281CD19A
:1026A00045480C380068C0B9434814380068A0B9E0
:1026B0004248006844F62062111A4148FFF76FF95A
:1026C00040480068283844F62062111A3C48FFF759
:1026D0006AF904203749087066E037480068002826
:1026E00052D135480C38006800284DD13248143892
:1026F0000068B8BB2E488088042845D02D48007853
:10270000012803D02B480078042811D12B480068F9
:1027100044F62062111A2A48FFF741F92948006857
:10272000283844F62062111A2548FFF73CF93BE0AF
:1027300020480078022803D01E480078032812D1D0
:102740001E480068283044F62062111A1C48FFF722
:1027500026F91C48006844F62062111A1848FFF751
:1027600022F921E010E01548006844F62062111AB1
:102770001348FFF714F91348006844F62062111A51
:102780000F48FFF710F90FE00C48006844F620628C
:10279000111A0B48FFF703F90A48006844F6206253
:1027A000111A0748FFF7FFF810BD0000F89300204A
:1027B0008C940020C80000201402404294000020A5
:1027C000000001409000002008B5FEF72FFC0C230C
:1027D0002FA200210D20FEF73FFE0C232EA2002188
:1027E0003E20FEF739FE0C232CA218211846FEF7D6
:1027F00033FE0C232BA218213E20FEF72DFE0C23C6
:102800002AA230210D20FEF727FE2A48C0690128A0
:1028100007D108231A46002100900846FEF752FC13
:1028200032E02448C069022808D1012008233C2254
:10283000002100903420FEF745FC25E01D48C069CA
:10284000032808D10120202308221821009000200D
:10285000FEF738FC18E01748C069042808D10120A9
:1028600020233C22182100903420FEF72BFC0BE0A3
:102870001048C069052807D10120382308223021DB
:1028800000900020FEF71EFCFEF7F0FC08BD0000E3
:10289000574849544500000052454400424C5545B4
:1028A00000000000424C41434B00000059454C4C95
:1028B0004F000000F893002010B50848006844F667
:1028C0002062111A0648FFF76AF80648006844F6C5
:1028D0002062111A0248FFF766F810BDB40000200C
:1028E00000000140B000002010B50848006844F620
:1028F0002062111A0648FFF752F80648006844F6AD
:102900002062111A0248FFF74EF810BDBC000020EB
:1029100000000140B800002010B50C48808830B19C
:10292000012807D0022808D004280CD108E002F0C2
:1029300047F908E003F006F805E000F007FC02E0C4
:1029400000F036FF00BF00BF10BD00008C940020D7
:1029500010B544F620610448FFF721F844F62061E1
:102960000148FFF720F810BD0000014010B544F207
:10297000E0710848FFF715F84FF42F7003F0F8FAEC
:1029800044F61C010348FFF70CF8002002490884B4
:1029900010BD0000000001408C94002010B544F6EA
:1029A000A8010848FEF7FDFF4FF42F7003F0E0FA8E
:1029B00044F658010348FEF7F4FF01200249088459
:1029C00010BD0000000001408C94002008B5FEF707
:1029D0002DFB0C2338A200210D20FEF73DFD0C231A
:1029E00037A200213C20FEF737FD0C2336A2182128
:1029F0001846FEF731FD0C2334A218213C20FEF7C7
:102A00002BFD0C2333A230210D20FEF725FD0C23D6
:102A100032A230213C20FEF71FFD3248006B012816
:102A200007D108231A46002100900846FEF74AFB0A
:102A30003FE02C48006B022808D1012008233722F0
:102A4000002100902F20FEF73DFB32E02548006B6F
:102A5000032808D1012020230822182100900020FB
:102A6000FEF730FB25E01F48006B042808D1012049
:102A700020233722182100902F20FEF723FB18E097
:102A80001848006B052808D101203823082230217E
:102A900000900020FEF716FB0BE01248006B0628A2
:102AA00007D1012038233722302100902F20FEF754
:102AB00009FBFEF7DBFB08BD776869746500000061
:102AC000626C61636B00000072656400626C756526
:102AD0000000000079656C6C6F000000656D70741B
:102AE00079000000F893002010B5002107E04AF2B9
:102AF000104200BF131EA2F10102FBD1491C81420A
:102B0000F5DB10BD10B502F08FF9DF48B0F91010F9
:102B10008089401C814214DADB48408988B9DB484F
:102B2000007850B90520D849C8804FF47A7003F076
:102B30001FFA0120D5490870A5E10020D249C880BC
:102B4000A1E1D148B0F910108089401C81422CD1FC
:102B5000CD48408948BBCC48008830BBCA4890F873
:102B6000240010BBCA48007848B90520C649C8806F
:102B7000322003F0FDF90120C549087002E0012070
:102B8000C149C880C34800880228D5D10020C14966
:102B900008800220BC4948810020FFF725FC002066
:102BA000B9494884BA4908706DE1B748C089B8B9D5
:102BB000B548B0F91000401EB349898988420FD149
:102BC000B148408902280BD1AF48008840B9AE48CF
:102BD00090F8240020B90020AB494884C88052E115
:102BE000A948B0F90E00401C78BBA748B0F9100006
:102BF000401EA549898988422CD1A34840890228D2
:102C000028D1A148008800BB9F4890F82400E0B973
:102C10009D48008C08B9FFF7C1FE9F480068012855
:102C200014D105209849C880FFF7A0FE9648008C73
:102C3000002885D10120944908800020C8830846D7
:102C4000C089401E00B2C8811DE103E000208E490A
:102C5000C88018E18C48B0F90E00002842DC8A4890
:102C6000B0F91000401E8849898988423AD18648C7
:102C70004089022836D18448008890B3824890F871
:102C8000240070BB8048B0F90E00002802DA04204E
:102C90007D49C8807C48C089002885D17C4800785F
:102CA00048B905207849C880322003F061F9012035
:102CB0007749087002E002207349C880754800888F
:102CC00002288CD10020734908806F494881FFF7A2
:102CD0008BFB01206C498880488400206C49087077
:102CE000D1E0FFE76848B0F910108089401C8142AC
:102CF0002DD16548408950BB6348008838BB624885
:102D000090F82400012822D16148007848B90520B4
:102D10005D49C880322003F02BF901205C4908701E
:102D200002E002205849C8805A48008802288BD106
:102D30000020584908800320534948810020FFF7AC
:102D400053FB002050494884514908709BE04E488D
:102D5000C089C0B94C48B0F91000401E4A49898961
:102D6000884210D14848408903280CD14648008841
:102D700048B9454890F82400012804D10020424970
:102D80004884C8807FE04048C089012833D13E484C
:102D9000B0F91000401E3C49898988422BD13A483D
:102DA0004089032827D13848008820BB364890F84E
:102DB000240001281FD13448008C08B9FFF7EEFD2C
:102DC00035480068012812D105202F49C880FFF737
:102DD000CDFD2D48008CE8BB01202B490880002048
:102DE000C8830846C089401C00B2C8814BE000205F
:102DF0002549C88047E02448B0F90E00002842DB8E
:102E00002148B0F91000401E1F49898988423AD1F3
:102E10001D484089032836D11B480088D0B11A4884
:102E200090F8240001282ED11748B0F90E00002890
:102E300002DD04201449C8801348C08950B91448E1
:102E4000007858B905201049C880322003F090F866
:102E5000012000E017E00E49087002E001200A4955
:102E6000C8800C48008802280DD10020094908803C
:102E700005494881FFF7B8FA012003498880488452
:102E800000200349087010BD8C940020EE00002043
:102E900002010020DC0000201C02404210B501F0BD
:102EA000C3FFA648C089012811D1A448B0F9101069
:102EB0008089401C81420ADDA0484089012806D152
:102EC0009E48008818B900209C49C88034E19B487E
:102ED000B0F910108089401C814235D19748408953
:102EE000012831D19548008870BB9448008C50B9B6
:102EF00005209249C88000204884084690F82400A4
:102F000008B9FFF74BFD8D4890F8240018B901204F
:102F10008A49C88002E002208849C8808848008821
:102F20000228D3D1002086490880844890F82400E4
:102F300018B903208149488102E002207F49488175
:102F40000020FFF751FAF7E07C48C08901282DD115
:102F50007A48B0F910108089401C814226D1774808
:102F60004089032822D175480088F8B9734890F841
:102F70002400D8B973480068012813D105206F498F
:102F8000C880FFF7F3FC6D48008C00289ED101201B
:102F90006A4908800020C8830846C089401C00B2E6
:102FA000C881C9E000206549C880C5E06348B0F920
:102FB0000E00002816DB6148B0F910108089401C13
:102FC00081420FD15D48408902280BD15B480088BF
:102FD00040B95A4890F82400012803D100205749ED
:102FE000C880A9E05548B0F90E00401C78BB534892
:102FF000B0F910108089401C81422DD14F48408982
:10300000022829D14D48008808BB4C4890F824007C
:10301000012821D14948008C08B9FFF7BFFC494875
:103020000068012814D105204449C880FFF79EFCA0
:103030004248008C00287FD10120404908800020B0
:10304000C8830846C089401E00B2C88174E003E00E
:1030500000203A49C8806FE03848B0F90E000028D7
:1030600015DD3648B0F910108089401C81420ED120
:103070003248408903280AD13048008838B12F48A7
:1030800090F8240018B904202C49C88054E02B483B
:10309000B0F90E00002816DA2848B0F9101080891F
:1030A000401C81420FD12548408902280BD123487A
:1030B000008840B1214890F82400012803D1042061
:1030C0001E49C88038E01D48C089A8BB1B48B0F91C
:1030D00010108089401C81422ED11848008858B3B6
:1030E0001948007848B905201449C880322002F0F8
:1030F0003FFF0120144908700AE0104890F82400AE
:1031000018B901200D49C88002E002200B49C8808F
:103110000B48008802280FD101200849488400206C
:103120000749088005494881FFF75EF901200349F6
:10313000888000200449087010BD00008C94002095
:10314000DC0000201C0240420201002010B501F00A
:103150006BFEFE48008902287ED1FC48B0F90E00C3
:1031600000283BDAF9484089022837D1F748B0F9FE
:103170000E00801C18B90420F449C880BDE0F34853
:10318000B0F90E00401C0028F8D1F148007848B989
:103190000420EE49C880322002F0EAFE0120EC490A
:1031A000087002E00120E949C880EA480088022846
:1031B000E4D10020E74908800120E449488100204B
:1031C000FFF712F90420E1498880FFF7CFFB0120C7
:1031D000DE4948840020DE4908708EE0DB48B0F903
:1031E0000E00012843DBD948408903283FD1D74846
:1031F0000089401ED549123131F92000012836DD01
:10320000D248C089022803D104201239C88074E052
:10321000CE48C089012870D1CD48007848B9042033
:10322000CA49C880322002F0A3FE0120C8490870B4
:1032300002E00220C549C880C648008802285CD147
:103240000020C44908800120C04948810020FFF7C0
:10325000CBF80420BD4900E099E08880FFF786FBA9
:103260000120BA4948840020B949087045E0B748B0
:10327000C089E8BBB5484089D0BBB448B0F910005C
:1032800006283ADBB148008A072803D10420AF4959
:10329000C88032E0AD48008A06282ED1AB4840896C
:1032A00030BBAB48007848B90520A849C880322017
:1032B00002F05EFE0120A649087002E00220A34948
:1032C000C880A4480088022817D10020A14908809E
:1032D0000120A149087003209C4948810020FFF784
:1032E00083F8FFF743FB0120984948849A4900E09E
:1032F00003E008700020964908709448B0F90E0069
:1033000001281FDC9148408903281BD18F48C089C0
:1033100010B900208D49C8808C48C0890128F4D19B
:103320008A4840890328F0D188480089401E87498F
:10333000123131F920000028E3DC8748007810B111
:10334000FEF7C2FE43E18248007848B905207F4974
:10335000C880322002F00CFE01207D49087002E096
:1033600002207A49C8807B4800880228EAD10020E0
:10337000784908800120754948810020FFF734F81A
:103380000420724988800020714908701FE16F484D
:10339000B0F90E0000283FDA6C48B0F90E00801C2E
:1033A00018B904206949C88011E16848B0F90E00D5
:1033B000401C0028C6D1654840890228C2D1664811
:1033C000007810B1FEF780FE01E16148007848B94D
:1033D00005205E49C880322002F0CAFD01205C4908
:1033E000087002E001205949C8805A480088042822
:1033F000A8D1002057490880FEF7F6FF0320534963
:103400004881FFF7B3FA0120534908704F494884B7
:1034100000204F490870DAE04C48B0F90E0001284E
:1034200040DB4A48408903283CD148480089401E77
:103430004649123131F92000012833DD4348C08963
:10344000022803D104201239C880C0E03F48C08957
:1034500001289BD13E48007848B904203B49C880E8
:10346000322002F085FD01203949087002E0022077
:103470003649C88037480088022887D1002035495E
:1034800008800120314948810020FEF7ADFFFFF799
:103490006DFA01202D4948840320888000202C49A2
:1034A000087094E02948C089D8BB28484089C0BB2F
:1034B0002648008A072803D104202449C88086E0D2
:1034C0002248008A06282BD12048408900287ED136
:1034D0001F48007848B905201C49C880322002F0F6
:1034E00047FD01201A49087002E002201749C880F0
:1034F0001848008802286AD1002016490880012057
:10350000154908700320114948810020FEF76CFF1F
:10351000FFF72CFA01200D49488400200C4908705F
:1035200055E0FFE70948B0F90E0001284FDC0748D5
:10353000408903284BD105480089401E03491231B8
:1035400031F92000012842DA004807E08C9400207D
:1035500002010020DC00002003010020C08948B9DE
:10356000A1F11200B0F90E00401C18B90020123968
:10357000C8802CE01648C089012828D11548007859
:1035800010B1FEF7A1FD22E01348007848B90520EC
:103590000F49C880322002F0EBFC01200E49087070
:1035A00002E002200A49C8800C48008802280ED197
:1035B00000200A4908800120054948810020FEF7C3
:1035C00013FF03200249888000200349087010BDC2
:1035D0008C9400200301002002010020DC00002068
:1035E00010B505225E495F48FCF730FF5C4838386B
:1035F000806B5B49383948625B49888105225849AC
:1036000014315A48FCF722FF00205749488000BF78
:1036100079E0012101EB4002514951F822100129C2
:1036200009D100225049123121F82020072201EB54
:1036300080014A8065E0012101EB4002484951F8D0
:103640002210032909D14A1F4749123121F82020AD
:10365000062201EB80014A8053E0012101EB400288
:103660003F4951F82210042909D102223E49123162
:1036700021F82020062201EB80014A8041E001214F
:1036800001EB4002364951F82210022909D10A1FE4
:103690003549123121F82020052201EB80014A80B2
:1036A0002FE0012101EB40022D4951F8221005299C
:1036B00009D102222C49123121F82020052201EBE8
:1036C00080014A801DE000222749123121F8202084
:1036D00001EB80014A800121234A518008B95183BE
:1036E0000FE001280DD100211F4A518311464A8A5B
:1036F000CA828A8A0A8300211B4A518200221A49FF
:103700008A82411CC8B2022883DB15483838016C14
:10371000806C814204D20020134981F8240003E028
:103720000120114981F824000F484088012802D166
:103730000D49088102E000200B49088100200A4958
:103740008880C88100210848018205200649C88078
:103750000020088048818883C8834884088410BD7D
:103760003094002000000A088C94002000000E080D
:1037700038B504468DF8000069460320ABBE2046EC
:1037800038BD00001CB5FDF7BBFAFEF7B3F9002009
:10379000052103467E22CDE9001002A1034802F074
:1037A000DBFE1CBD47494D42414C00007D0A00082C
:1037B00010B501F039FB5548B0F90E00401C002847
:1037C0003CD152484089012838D15048008C40B142
:1037D00000204E49C880FFF7C9F801204B494884B2
:1037E00092E04A48B0F91000012802DD0020474964
:1037F000C8804648008A0128F2D14548007848B977
:1038000005204249C880322002F0B2FB0120404925
:10381000087002E001203D49C8803E480088012828
:1038200072D100203B49088003203849488100209C
:10383000FEF7DAFD00203649087065E03348C0899C
:1038400001283CD131484089012838D12F48008CCB
:1038500040B100202D49C880FFF788F801202B498E
:10386000488451E02948B0F91000012802DD002009
:103870002649C8802548008A012845D12448007877
:1038800048B905202149C880322002F071FB01208F
:103890001F49087002E002201C49C8801D480088AA
:1038A000012831D100201B49088002201749488196
:1038B0000020FEF799FD00201549087024E0134808
:1038C0004089022803D01148408903281CD10F48A1
:1038D000C089012804D00D48B0F90E00401C18B969
:1038E00000200A49C8800FE00848C08960B900205C
:1038F0000649C8804FF42F7002F03AFB05200349B7
:10390000C88000200449486010BD00008C9400204D
:1039100002010020DC000020F893002010B58CB0DC
:1039200010201A490860002048608860086601205D
:10393000C8600020C87501200861C861086248623B
:103940008862C86208634863002008664875087585
:103950000C2269460E48FCF779FD0024002011E096
:1039600000210BE05DF82430084A643202EBC0020B
:1039700042F82130621CD4B24A1CD1B20229F1DBD8
:10398000411CC8B20628EBDB0CB010BDF893002038
:1039900000000C0810B5FDF74DFAFDF7B1FB10BDA6
:1039A0001CB5FFF7F7FF0020052103464FF4807296
:1039B000CDE9001002A1034802F0CEFD1CBD0000BD
:1039C00047554900C939000808B502F005FE0090C6
:1039D00000F022F805E01E21684602F007FB00F027
:1039E0008BF8F8E71CB54FF44070FDF715FB00208D
:1039F000009003464FF4007204A10190054802F0C4
:103A0000ABFD02F0EFFB00201CBD0000496E6974A5
:103A1000000000009520000808B5FDF707FB1823FB
:103A200017A210213020FDF717FD0C2315A232211B
:103A30003720FDF711FD0C200090134801232821A9
:103A400042684020FDF7BEFC0C2000900E48012388
:103A50003221426A5020FDF7B5FC0C230BA228212D
:103A60000020FDF7F9FC0C200090074801233221CB
:103A7000026E0A20FDF7A6FCFDF7F8FB08BD00006A
:103A80004556300063617200F893002064656275EA
:103A90006700000008B5FDF7C9FA182312A200213B
:103AA0003220FDF7D9FC182310A219463220FDF769
:103AB000D3FC1048806A012807D118230C22114634
:103AC00000900020FDF7FEFA0BE00A48806A022809
:103AD00007D1012030230C22242100900020FDF783
:103AE000F1FAFDF7C3FB08BD63617200636F6C6F91
:103AF00072000000F893002070B58CB00026012001
:103B0000FDF7C0F90446FE480068102869D1002C72
:103B100067D0062C4FD2DFE804F04E031225304365
:103B2000F748006E28B92020F54908600120886216
:103B300004E07020F24908600120C8603BE0F048D2
:103B4000406A401CEE4948620846406A032802D990
:103B50000120486205E0EA48406A10B90320E849BC
:103B6000486228E0E648006E18B10020E449086683
:103B700002E00120E24908661DE0E148406A401E7B
:103B8000DF4948620846406A032802D9012048629A
:103B900005E0DB48406A10B90320D94948620AE0D1
:103BA000D748406818B90120D549486002E0002094
:103BB000D349486000BF00BFD1480068202802D127
:103BC000FFF768FF0CE0CE480068102802D1FFF72D
:103BD00023FF05E0CA480068702801D100F060FFAB
:103BE0000024C748006870284FD1002C4DD0012C0C
:103BF00006D0022C0CD0032C1DD0042C32D11EE098
:103C00008020BF49086001200861002088752AE0F3
:103C1000BB48C068401CBA49C8600846C06810B9B3
:103C20000620C86006E0B648C068062802D9012010
:103C3000B349C86017E01020B149086013E0B048EC
:103C4000C068401EAE49C8600846C06810B906206A
:103C5000C86006E0AA48C068062802D90120A84921
:103C6000C86000E000BF00BFA5480068802802D1FE
:103C700000F0A4FE08E0A2480068102802D1FFF777
:103C8000CBFE01E000F00CFF00249D480068802876
:103C900071D1002C6FD0012C06D0022C1ED0032C29
:103CA0006AD0042C69D192E09548006903280AD1B2
:103CB0009348407D18B10020914948750DE00120DE
:103CC0008F49487509E08E48807D18B101208C49E4
:103CD000C87502E001208A498875E4E08848807D43
:103CE00090B987480069401C854908610846006909
:103CF00010B9032008615EE08148006903285AD9A1
:103D000001207F49086156E07D48C068401E7C491B
:103D1000643101EBC0017A480069401E51F820006F
:103D2000401C7749C968491E754A643202EBC102DA
:103D300073490969491E42F821007148C068401E54
:103D40006F49643101EBC0016D480069401E51F8B4
:103D50002000B0F5AF6F11D24FF4C8626848C06858
:103D6000401E6749643101EBC00165480069401E8F
:103D700041F820201FE0CEE01EE093E06048C068DC
:103D8000401E5F49643101EBC0015D480069401E7F
:103D900051F82000B0F5C86F0DD94FF4AF62584804
:103DA000C068401E5649643101EBC00154480069A7
:103DB000401E41F8202076E05148807D18B97020DF
:103DC0004F49086002E000204D4988756BE04C487F
:103DD000807D90B94A480069401E494908610846FB
:103DE000006910B9032008615BE0454800690328B9
:103DF00057D901204249086153E04148C068401E3C
:103E00003F49643101EBC0013D480069401E51F853
:103E10002000401E3A49C968491E394A643202EB03
:103E2000C10237490969491E42F821003448C06877
:103E3000401E3349643101EBC00131480069401E26
:103E400051F82000B0F5AF6F0ED24FF4C8622C4885
:103E5000C068401E2A49643101EBC001284800694E
:103E6000401E41F820201CE02548C068401E24491F
:103E7000643101EBC00122480069401E51F8200066
:103E8000B0F5C86F0DD94FF4AF621D48C068401E31
:103E90001B49643101EBC00119480069401E41F81B
:103EA000202000E000BF00BF15480068702802D144
:103EB00000F0F6FD01E000F081FD1148C07D012811
:103EC00028D100200E49C875002500BF11E000214F
:103ED0000BE00B4A643202EBC00252F821204DF88D
:103EE00025206A1CD5B24A1CD1B20229F1DB411C43
:103EF000C8B20628EBDB0C226946024804E0000049
:103F0000F893002000000C08FCF7B6FA0120FE49E7
:103F1000087500BF0024FC480068202864D17CB3E9
:103F2000012C06D0022C14D0032C25D0042C3BD11C
:103F300027E0F548806A012803D13020F249086063
:103F400006E0F148806A022802D14020EE4908606C
:103F50002BE0ED48806A401CEB4988620846806A85
:103F600010B90220886206E0E748806A022802D978
:103F70000120E549886218E01020E349086014E058
:103F800032E0E148806A401EDF4988620846806A64
:103F900010B90220886206E0DB48806A022802D954
:103FA0000120D949886200E000BF00BFD648006800
:103FB000202802D1FFF76EFD15E0D34800683028B5
:103FC00005D10120D049C861FEF7FEFB0BE0CE48C9
:103FD0000068402805D10120CB490863FEF7F6FCB4
:103FE00001E0FFF719FD0024C7480068302851D1CF
:103FF00084B3012C06D0022C0AD0032C1BD0042C35
:1040000031D11CE06020C0490860012008622BE02B
:10401000BD48C069401CBC49C8610846C06910B9A8
:104020000520C86106E0B848C069052802D901200A
:10403000B549C86118E02020B349086014E0B248CF
:10404000C069401EB049C8610846C06918B905205A
:10405000C86107E01EE0AC48C069052802D901200C
:10406000A949C86100E000BF00BFA7480068302828
:1040700002D1FEF7A9FB0CE0A3480068202802D17A
:10408000FFF708FD05E0A0480068602801D102F0B4
:104090005FF900249C48006860283ED1ECB3012CF5
:1040A00006D0022C06D0032C3BD0042C72D13CE06D
:1040B000012670E09448C069401E93494C3151F884
:1040C0002010491D9048C069401E8F4A4C3242F86A
:1040D00020108D48C069401E114651F8200041F261
:1040E0008831884209D94FF4FA728748C069401E66
:1040F00085494C3141F8202012E08348C069401EB8
:1041000081494C3151F82000B0F5FA7F08D241F2D4
:1041100088327D48C069401E00E04FE041F8202011
:1041200039E030207849086035E07748C069401EA2
:1041300075494C3151F82010491F7348C069401E21
:10414000714A4C3242F820106F48C069401E114637
:1041500051F8200041F28831884208D94FF4FA72B0
:104160006948C169491E4C3040F8212010E066487A
:10417000C069401E64494C3151F82000B0F5FA7F07
:1041800006D241F288326048C069401E41F82020C2
:1041900001E0FFE700BF00BF36B1002605225A4903
:1041A0004C315A48FCF768F957480068302802D16A
:1041B000FEF70AFB01E002F0CBF800245248006849
:1041C00040284FD194B3012C06D0022C0AD0032CE6
:1041D0001BD0042C33D11EE050204B490860012035
:1041E00048632DE04848006B401C47490863084677
:1041F000006B10B90620086306E04348006B0628F0
:1042000002D90120404908631AE020203E49086095
:104210000120886214E03C48006B401E3A49086364
:104220000846006B18B90620086307E01AE0364814
:10423000006B062802D901203349086300E000BF63
:1042400000BF31480068202802D1FFF723FC08E0B6
:104250002D480068402802D1FEF7B8FB01E001F0CC
:1042600003F9002428480068502837D1B4B3012C42
:1042700006D0022C08D0032C19D0042C2FD11AE020
:104280005020214908602BE01F48406B401C1E490C
:1042900048630846406B10B90620486306E01A4898
:1042A000406B062802D901201749486318E04020D6
:1042B0001549086014E01448406B401E12494863D9
:1042C0000846406B10B90620486306E00E48406B74
:1042D000062802D901200C49486301E047E000BFED
:1042E00000BF09480068502837D1012C35D1402043
:1042F0000549086008468068401C88600846806858
:10430000012810D1084603E0F893002000000E08B1
:10431000406A88630846016BC163416B01640120F8
:10432000144908630BE013488068022807D111483C
:10433000016B4164416B816401200E490863FEF703
:1043400045FB0C488068022807D100200949886095
:10435000052238310848FCF78FF8064800685028D5
:1043600002D101F081F801E0FEF730FB00240CB02F
:1043700070BD0000F893002000000A0810B5024646
:10438000012000E050430B1EA1F10104E1B2F9D17C
:1043900010BD00002DE9F04105460E461C48076897
:1043A0001C480068001D01F0B7FC50B919480068AE
:1043B00090F82C100120884017490968814316485D
:1043C0000160681C38B936B112480168091D1348EC
:1043D00001F0E0FC1AE07C190E4800684460BC4221
:1043E00007D20C480168091D0D48006801F0B8FCAF
:1043F0000CE008480168091D0A48006801F0B0FC9B
:1044000009480068844201D207480460BDE8F08191
:10441000140000200000002018000020E403002009
:1044200008000020040000203000002010B50446E1
:1044300001F0BCFC23480068401C22490860224867
:10444000006840B9204804600846006801280DD182
:1044500000F038F90AE01D48006838B91A480068C9
:10446000C06AE16A884201D81748046018480068A9
:10447000401C1749086094F82C1001208840154909
:104480000968084313490860E16A01EB8101124A97
:1044900002EB8100211D01F07DFC01F0CBFC0B48FB
:1044A000006868B108480068C06AE16A884207D2BB
:1044B0004FF0805009490860BFF34F8FBFF36F8FF3
:1044C00010BD000010000020000000201C00002093
:1044D0002C000020180000201401002004ED00E052
:1044E00070B523E001F0D4FE1348006808B901203C
:1044F00000E00020054602F029F9BDB901F056FCA4
:104500000D48C068C468201D01F006FC0B48006817
:10451000401E0A4908600A480068401E08490860B1
:1045200001F088FC204600F00DF800BF0448006848
:104530000028D7D170BD0000D0030020100000205B
:104540000C00002010B50446206B01F0ABFC2046A7
:1045500001F0A8FC10BD000030B54FF4104317481F
:1045600000F007042CB1C01D20F00700134C041B01
:104570001B1B0246124C22600024114D6C60D018A7
:10458000083820F007000F4C206000240D4D2D68E6
:104590006C600C4D2D682C601146441A4C60094C1F
:1045A00024680C60084D4C682C60084D4C682C60E9
:1045B0004FF00044064D2C6030BD0000F803002091
:1045C0003C000020440000204C0000204800002057
:1045D0005000002000BFFFF783FF06480068012855
:1045E000F9D94FF0805004490860BFF34F8FBFF3F3
:1045F0006F8FF0E71401002004ED00E02DE9FF5F6C
:1046000081460E469246DDE90E7B109CAAF1010020
:10461000216B01EB800828F0070808F0070008B9B3
:10462000012000E0002028B940F22B321AA121A07D
:10463000FDF7DEFA002507E0715D04F13400415515
:10464000705D00B902E06D1C102DF5D300BF002194
:1046500043200155202F00D31F27E762201D01F0C2
:104660007CFB04F1180001F078FB2461C7F1200005
:10467000A06164620020606484F8480049464046B6
:10468000039A00F085F92060BBF1000F01D0CBF850
:104690000040BDE8FF9F00002E2E5C2E2E5C46726F
:1046A000656552544F535C7372635C7461736B73D2
:1046B0002E6300004572726F723A25732C25640DCB
:1046C0000A00000010B5002407E004EB84010F4A43
:1046D00002EB810001F034FB641C202CF5D30C4864
:1046E00001F02EFB0B4801F02BFB0B4801F028FBDF
:1046F0000A4801F025FB0A4801F022FB0448094959
:10470000086004480849086010BD0000140100203A
:1047100094030020A8030020BC030020D003002045
:10472000E4030020040000200800002010B501462A
:10473000164800E0006803688B42FBD302464368DA
:1047400013448B4204D143684C68234443600146C0
:104750000A464B6813440468A34211D10C4C036809
:104760002468A34208D04B680468646823444B6003
:1047700003681B680B6005E0054B1B680B6001E0DC
:1047800003680B60884200D0016010BD3C0000202F
:10479000440000200A490968096809B9012100E0BC
:1047A000002121B14FF0FF31064A116006E00449B3
:1047B0000968C968C868034A416811607047000009
:1047C00004000020300000200C480068401C08B99C
:1047D000012000E0002028B940F20F1208A113A028
:1047E000FDF706FA00BF502080F31188BFF34F8F0A
:1047F000BFF36F8F00BF00BFFEE700005400002032
:104800002E2E5C2E2E5C4672656552544F535C70A2
:104810006F72745C525644535C41524D5F434D3449
:10482000465C706F72742E63000000004572726FF8
:10483000723A25732C25640D0A0000002DE9F04121
:1048400004464FF0000801F023FD3E48006808B917
:10485000FFF782FE3C480068204000285FD1A4B1E9
:10486000083404F0070080B104F00700C0F108002C
:10487000044404F0070008B9012000E0002020B93A
:10488000BF2232A13BA0FDF7B3F9002C47D03D4831
:104890000068844243D83C4E3046056801E02E460D
:1048A0002D686868A04202D228680028F7D1254800
:1048B0000068854233D0306800F10808286830600D
:1048C0006868001B102813D92F1907F0070008B9D2
:1048D000012000E0002020B9EC221CA125A0FDF75A
:1048E00087F96868001B78606C603846FFF71EFF28
:1048F000244968680968081A22490860084600685F
:1049000022490968884203D21E4800681F4908608E
:104910000D4968680968084368600020286001F054
:1049200015FF08F0070008B9012000E0002028B9B1
:104930004FF4967205A10FA0FDF75AF94046BDE865
:10494000F081000044000020500000202E2E5C2E3C
:104950002E5C4672656552544F535C706F72745C86
:104960004D656D4D616E675C686561705F342E6387
:10497000000000004572726F723A25732C25640D99
:104980000A000000480000203C0000204C000020ED
:10499000001F4FF080730360001F21F001030360CC
:1049A000001F054B036014380260001F6FF0020304
:1049B0000360203870470000C947000808B5FCF7BD
:1049C00035FB0C232FA200211420FCF745FD0C23FE
:1049D0002EA214210846FCF73FFD0C232DA228210E
:1049E0001420FCF739FD2D480069012807D10C235C
:1049F0001A46002100900846FCF764FB18E027489F
:104A00000069022808D1012020230C2214210090E3
:104A10000020FCF757FB0BE020480069032807D172
:104A2000012034230C22282100900020FCF74AFBAF
:104A30000C2000901948C068401E1849643151F894
:104A40003020042300214120FCF7BCFC0C20009006
:104A50001248C068401E1149643101EBC0000423B4
:104A6000142142684120FCF7ADFC0C2000900B485B
:104A7000427D042328214120FCF7A4FCFCF7F6FB2F
:104A800008BD000073706565646C00007370656537
:104A9000647200007465737400000000F8930020D5
:104AA00008B5FCF7C3FA0C2338A200211846FCF71E
:104AB000D3FC0C2337A200213C20FCF7CDFC0C23B7
:104AC00036A214211846FCF7C7FC0C2335A214218A
:104AD0003C20FCF7C1FC0C2334A228211846FCF72B
:104AE000BBFC0C2333A228213C20FCF7B5FC334847
:104AF000C068012807D108231A4600210090084603
:104B0000FCF7E0FA3FE02D48C068022808D10120F8
:104B100008236222002100905A20FCF7D3FA32E0E9
:104B20002648C068032808D101201C23082214212C
:104B300000900020FCF7C6FA25E02048C068042851
:104B400008D101201C236222142100905A20FCF776
:104B5000B9FA18E01948C068052808D101203023A7
:104B60000822282100900020FCF7ACFA0BE0134843
:104B7000C068062807D10120302362222821009036
:104B80005A20FCF79FFAFCF771FB08BD464F4C4CCE
:104B90004F5700004241434B000000004C45465433
:104BA00000000000524947485400000043414C496E
:104BB000000000005055534800000000F89300200A
:104BC00010B500F031F99348B0F910108089401CFD
:104BD000814214DA8F48408988B98F48007850B9EB
:104BE00005208C49C8804FF47A7001F0C1F901208A
:104BF000894908700CE100208649C88008E1854891
:104C0000B0F910108089401C814245D1814840890B
:104C1000002841D17F48008800283DD17D48408B45
:104C200080B17E48007848B905207A49C880322092
:104C300001F09EF901207949087013E002207549BE
:104C4000C8800FE07548007848B905207149C880D0
:104C5000322001F08DF901207049087002E0012036
:104C60006C49C8806E4800880228C3D100206C4976
:104C700008806848408B18B103206649488102E0EB
:104C80000220644948810020FDF7AEFB0020614905
:104C9000488462490870BBE05E48C089B0B95D488D
:104CA000B0F91000401E5B49898988420ED15948ED
:104CB0004089022803D057484089032806D1554827
:104CC000008818B900205349C880A1E05148B0F9C4
:104CD0000E00401C18B14F48C089012842D14D48F0
:104CE000B0F91000401E4B49898988423AD14948A1
:104CF0004089022803D047484089032832D14548DB
:104D0000008870BB4348008C20B90020414948848A
:104D1000FDF744FE4348006801281ED105203D49A7
:104D2000C880FDF723FE3B48008C002870D101208D
:104D3000384908800020C88308464089022805D1E8
:104D40000846C089401E00B2C88161E03148C08970
:104D5000401C00B22F49C8815AE000202D49C8806C
:104D600056E0FFE72B48B0F91000401E2949898919
:104D700088424DD127484089022803D025484089E0
:104D8000032845D123480088F0B32248C08910B1D8
:104D900004202049C8801F48C089A8BB1D48408BFB
:104DA00080B11E48007848B905201A49C8803220D1
:104DB00001F0DEF801201949087013E001201549BF
:104DC000C8800FE01548007848B905201149C8800F
:104DD000322001F0CDF801201049087002E00220D5
:104DE0000C49C8800E480088022811D101200949C9
:104DF000488400200A49088006494881FDF7F4FAF2
:104E000001200449888000E002E000200349087086
:104E100010BD00008C940020EE0000200201002054
:104E2000DC0000201C024042FC48C088FC49098884
:104E3000884241D0F948C088022803D0F748C0888A
:104E4000012805D10020F7490880F749088033E0A0
:104E5000F248C08818B1F148C088042805D1002064
:104E6000F2490880F249088026E0F2480068F249D9
:104E70000880F248D0F82802F1490880EF48D0F8BD
:104E80002C02F0490880ED48D0F82C02EE49088049
:104E9000EA48D0F83002ED490880E848D0F83002FE
:104EA000EB490880E548D0F83402EA490880E34835
:104EB000D0F83402E8490880D848C088002873D167
:104EC000D648008A062806D1D4484089032802D152
:104ED000D248C08958B1D148008A022812D1CF489F
:104EE000C08901280ED1CD48408901280AD1DB486C
:104EF0000068012802D1CD49088036E00020CB4966
:104F0000088032E0C548008A062806D1C348408997
:104F1000022802D1C148C08960B1C048008A022875
:104F200014D1BE48B0F90E00401C78B9BB48408986
:104F300001280BD1C9480C380068012802D1BB49AF
:104F4000088012E00020B94908800EE0C3480C3800
:104F50000068012806D1C1480068012802D1B34980
:104F6000088002E00020B1490880B1480088D8B923
:104F7000AE480088012848D1B9480068B94908609E
:104F800008460068B8490968401A01283DDDB5485F
:104F90000068B5490860A148408930B99F48008A37
:104FA000401C01B29D4801822FE09C4840890128A5
:104FB00006D19A48008A401E01B29848018224E036
:104FC0009648408903280DD19448C089401C00B2FE
:104FD0009249C8810846B0F90E00012815DD01206C
:104FE000C88112E08D48408902280ED18B48C089C3
:104FF000401E00B28949C8810846B0F90E00B0F1E0
:10500000FF3F02DA4FF0FF30C8818448C08804288F
:1050100003D08248C08807285FD18048B0F90E00CD
:10502000801C98B97D48008A06280FD17B484089AA
:1050300002280BD18948001F0068012802D17B4952
:1050400008802BE000207949088027E07348C08958
:10505000022813D17148008A06280FD16F48408971
:1050600003280BD1734828380068012802D16F4902
:10507000088013E000206D4908800FE07748001F8A
:105080000068012807D16B4828380068012802D140
:105090006649088002E0002064490880644800886E
:1050A000D8B962480088012838D16D4800686D4938
:1050B0000860084600686C490968401A01282DDD1F
:1050C00068480068684908605448408930B95348C6
:1050D000008A401E01B2514801821FE04F484089BA
:1050E000012806D14D48008A401C01B24B4801827C
:1050F00014E04A484089032806D14848C089401E28
:1051000000B24649C88109E044484089022805D1D7
:105110004248C089401C00B24049C8813F48C0880D
:10512000012803D03D48C088022863D13B48008A4B
:1051300001282DD139484089012829D13748C08814
:1051400002280AD149480068012802D1364908805E
:105150000EE00020344908800AE04448143000681A
:10516000012802D13049088002E000202E49088041
:105170002C480088F0BB2C48008801283AD13C48D4
:105180000088B8BB3A480088401C3949088097E03D
:1051900036480830006801280FD136480068401CA6
:1051A00034490860084600681E2814D301201E49AF
:1051B000088000202F4908600DE02F480068401C3F
:1051C0002D490860084600683C2804D30020164991
:1051D0000880294908601348008801280DD1124829
:1051E000008850B92248008838B921480088401CFE
:1051F0001F4900E064E0088062E00A480088E8BBDC
:105200000948008801283AD119480088012836D178
:1052100017480088401C1649088051E08C940020F3
:10522000EC000020D8000020DA000020D60000208A
:10523000D400002028824042F2000020008040423A
:10524000F4000020F6000020F8000020FA00002002
:10525000FC000020FE00002000010020100241425E
:10526000E0000020E8000020E400002000024042AE
:10527000DC0000200C01002008010020FFE7694845
:10528000008801280CD16848008848B96748008820
:10529000022805D165480088401C644908800FE059
:1052A0006048008860B960480088012808D15F48DC
:1052B0000088032804D15D480088401C5B490880B1
:1052C0005B48C08803287DD15A480068012802D174
:1052D0005949088002E00020574908805548001DC0
:1052E0000068012802D15549088002E00020534996
:1052F0000880504808300068012802D150490880D1
:1053000002E000204E4908804A480C30006801281D
:1053100002D14C49088002E000204A4908804648F2
:105320000088012808D14848008828B947480088E3
:10533000401C464908800BE03F48008840B942487D
:105340000088012804D141480088401C3F4908805A
:105350003A480088012808D13D48008828B93B48D0
:105360000088401C394908800BE03448008840B967
:1053700037480088012804D134480088401C33494C
:1053800008802F480088012808D13248008828B9B1
:105390002E480088401C2D4908800BE028480088D2
:1053A00040B92C480088012804D128480088401CB6
:1053B000264908802348008801280AD12648008809
:1053C00038B900E011E021480088401C1F490880DE
:1053D0000BE01C48008840B91F480088012804D110
:1053E0001A480088401C194908801348008816494B
:1053F000088012480088164908801148008815491D
:10540000088010480088144908800748008805492A
:10541000088012480088124908800548C088114950
:1054200008807047D8000020DA000020DC0000204F
:105430008C94002028824042F4000020F8000020D4
:10544000FC00002000010020F2000020F0000020FD
:10545000F6000020FA000020FE000020D600002008
:10546000D4000020EC00002008B5FBF7DFFD0C2382
:105470008AA200210D20FBF7EFFF0C2388A2002158
:105480005A20FBF7E9FF0C2386A218210D20FBF719
:10549000E3FF0C2384A218215A20FBF7DDFF0C2325
:1054A00082A230210D20FBF7D7FF0C2380A23021F0
:1054B0005A20FBF7D1FF7F48406B012807D10C230E
:1054C0000822002100900846FBF7FCFD3BE07948EC
:1054D000406B022808D101200C23552200210090A6
:1054E0004D20FBF7EFFD2EE07248406B032808D1FA
:1054F000012024230822182100900020FBF7E2FD60
:1055000021E06C48406B042808D101202423552257
:10551000182100904D20FBF7D5FD14E06548406B45
:10552000052808D101203C230822302100900020CA
:10553000FBF7C8FD07E001203C23552230210090F5
:105540004D20FBF7BFFD5B48006C07284DD2DFE81C
:1055500000F04C04101C283440005648C06B401E1C
:10556000554951F820200C2300211920FBF774FF26
:105570003CE05048C06B401E4F4951F820200C239E
:1055800000216420FBF768FF30E04A48C06B401EF2
:10559000494951F820200C2318211920FBF75CFF02
:1055A00024E04448C06B401E434951F820200C239E
:1055B00018216420FBF750FF18E03E48C06B401EE6
:1055C0003D4951F820200C2330211920FBF744FFDE
:1055D0000CE03848C06B401E374951F820200C239E
:1055E00030216420FBF738FF00E000BF00BF3148E6
:1055F000806C07284DD2DFE800F04C04101C2834E2
:1056000040002C48406C401E2B4951F820200C23B0
:1056100000211920FBF720FF3CE02648406C401E8B
:10562000254951F820200C2300216420FBF714FFAA
:1056300030E02048406C401E1F4951F820200C23C8
:1056400018211920FBF708FF24E01A48406C401E7F
:10565000194951F820200C2318216420FBF7FCFE87
:1056600018E01448406C401E134951F820200C23C8
:1056700030211920FBF7F0FE0CE00E48406C401E74
:105680000D4951F820200C2330216420FBF7E4FE63
:1056900000E000BF00BFFBF7E9FD08BD43000000CC
:1056A00046000000420000004500000041000000EC
:1056B00044000000F8930020700000201CB500F0AA
:1056C00013F80020052103464FF48072CDE9001045
:1056D00002A1044800F040FF1CBD000054524143A9
:1056E0004B0000000557000808B50320034642F2AE
:1056F000CF0241F2873100900148FBF727F808BD3F
:105700000004004008B500F067FF009008E10121A7
:10571000684600F06BFC8348406810B1012878D1DE
:10572000EFE08048407D002874D07E48C0680128A2
:105730000CD100207C49C88040F6B83000F018FC3D
:10574000002078494875FFF739F9D9E07548C068F5
:1057500002280CD104207449C88040F6B83000F00B
:1057600007FC00206F494875FFF728F9C8E06D482D
:10577000C068032810D1FFF757FB01206A49C88091
:105780006A4800880228E0D10020684908806549FD
:105790004875FFF713F9B3E06248C068042810D1D8
:1057A000FFF742FB02206049C88060480088022859
:1057B000CBD100205D4908805A494875FFF7FEF8B3
:1057C0009EE05848C06805280CD106205649C8807C
:1057D00040F6B83000F0CCFB002052494875FFF786
:1057E000EDF88DE04F48C0680628AED150480068FB
:1057F00018B950480078012807D04D480C3000688F
:1058000048B94D480078012805D101204B4908705E
:1058100004E084E071E000204349C8804448006807
:10582000444908704648D0F810024349087043487C
:105830000078002864D003203B49C8800846C08A0D
:1058400058B90846008B072807D13649C86C00F0C4
:105850008FFB05203449C88040E03348B0F916007A
:10586000801C58B93048008B062807D12D49086D97
:1058700000F07EFB05202C49C8802FE02A48C08A12
:1058800002280BD12848008B062807D12549486DEE
:1058900000F06EFB05202449C8801FE02248B0F9C3
:1058A0001600801C58B92048008B052807D11D49D7
:1058B000886D00F05DFB05201B49C8800EE01A488A
:1058C000C08A02280AD11848008B052806D115493C
:1058D000C86D00F04DFB05201349C880FDF75EF848
:1058E000002010494875FFF769F800201349087037
:1058F000104908701049087002E005200A49C88064
:105900000DE00948408810B1012806D102E0FCF7FB
:1059100027FE03E0FDF700F800E000BF00BF00BF76
:10592000F5E60000F89300208C940020DC000020B5
:10593000040241420401002005010020060100206C
:105940000000414210B5FFF76FFAED48C089C8B9B1
:10595000EB48B0F910100289123000EB8200B0F968
:10596000020081420EDAE648408958B9E4480189CC
:10597000123000EB81004088072803D00020E04966
:10598000C880BCE1DE48C08998B9DD48B0F9100094
:1059900006280EDADA48408958B9D9480189123008
:1059A00000EB81004088072803D10020D449C8803B
:1059B000A5E1D348C08900283CD1D148008A0628F7
:1059C00038D1CF484089A0BBCD480189123000EBC7
:1059D0008100408807282DD10020C9494884032030
:1059E000C880C849C86C00F0C3FA0520C449C88003
:1059F0004FF4FA7000F0BCFAFCF7D0FFC048008CFE
:105A00000028BED00020BE4908800846008A401CFD
:105A100001B2BB4801820220B9498880084600894A
:105A2000401C08810020B84908800120B74908704F
:105A300065E1FFE7B248C08900286BD1B048B0F9F2
:105A400010100289123000EB8200B0F9020081428E
:105A500060D1AB48408900285CD1A9480189123047
:105A600030F82100002855D0A5480189123030F9BE
:105A70002100002821DDA648007848B90520A0496A
:105A8000C880322000F074FA0120A149087002E0B9
:105A900002209B49C8809F480088022888D10020A6
:105AA0009C490880032096494881012048840020B1
:105AB00097490870FCF798FC21E191480189123060
:105AC00030F921000028B3DA9148007848B9052060
:105AD0008B49C880322000F04BFA01208C490870B5
:105AE00002E001208649C8808A48008802289FD1A8
:105AF00005208349C880002086490880022080490B
:105B000048810020FCF770FC00207D4948848049D2
:105B10000870F4E07A48B0F90E00022872DA78488A
:105B2000B0F910100289123000EB8200B0F90200C7
:105B3000814267D172484089032863D17048008848
:105B400000285FD06E48C08918B900206C49C88011
:105B5000D5E06B48C0890128AED16948018912306F
:105B600000EB81004088062825D103206449C880C5
:105B70006449486D00F0FCF905206149C8804FF484
:105B8000FA7000F0F5F9FCF709FF5D48008C002879
:105B900092D000205C49088059480089401C58492F
:105BA0000881002008800846C089401C00B2C881D6
:105BB00002208880A3E003205149C8805149C86D64
:105BC00000F0D6F905204E49C8804FF4FA7000F075
:105BD000CFF9FCF7E3FE4A48008C002899D000205A
:105BE0004949088046480089401C454908810020F1
:105BF00008800846C089401C00B2C8810220888005
:105C00007DE0FFE73E48B0F90E0010F1020F76DDAF
:105C10003B48B0F910100289123000EB8200B0F955
:105C2000020081426BD136484089022867D134484E
:105C30000088002863D03248C08918B90020304954
:105C4000C8805CE02E48B0F90E00401C002856D1F8
:105C50002B480189123000EB81004088062827D1AB
:105C600003202749C8802749086D00F081F90520E5
:105C70002349C8804FF4FA7000F07AF9FCF78EFEE1
:105C80001F48008CD8B300201F4908801C48008999
:105C9000401C1B490881002008800846C089401E1E
:105CA00000B2C8810220888001201849087026E0CF
:105CB00003201349C8801349886D00F059F9052065
:105CC0000F49C8804FF4FA7000F052F9FCF766FEF5
:105CD0000B48008C98B100200B49088008480089C7
:105CE000401C07490881002008800846C089401EE2
:105CF00000B2C8810220888001200449087010BDCC
:105D00008C940020F8930020F00000200301002074
:105D100002010020DC00002001460A69D1E90130BF
:105D20009860D1E9010358605068884201D18868C1
:105D30005060002008611068401E106010687047B5
:105D400000F1080141604FF0FF31816000F108016E
:105D5000C16001610021016070470021016170474D
:105D600010B502460B685C1C0CB9106907E002F123
:105D7000080000E04068446824689C42FAD94468FE
:105D80004C604C68A160886041600A611468641CC2
:105D9000146010BD42684A6093688B6093685960D4
:105DA0009160086103685B1C0360704710B500BF19
:105DB000502080F31188BFF34F8FBFF36F8F00BF68
:105DC0000B480068401C0A49086008460068012822
:105DD0000DD108480068C0B208B9012000E00020D9
:105DE00028B940F2B91204A10EA0FBF701FF10BDC3
:105DF0005400002004ED00E02E2E5C2E2E5C467236
:105E0000656552544F535C706F72745C52564453C4
:105E10005C41524D5F434D34465C706F72742E632B
:105E2000000000004572726F723A25732C25640DD4
:105E30000A00000010B50B48006828B94FF4E07262
:105E400009A114A0FBF7D4FE06480068401E0549CE
:105E500008600846006820B9002080F3118800BF60
:105E600000BF10BD540000202E2E5C2E2E5C46720A
:105E7000656552544F535C706F72745C5256445354
:105E80005C41524D5F434D34465C706F72742E63BB
:105E9000000000004572726F723A25732C25640D64
:105EA0000A00000070B506463546002E35D0083D84
:105EB0002C461A4960680968084008B1012000E0D2
:105EC000002028B94FF4A07215A11FA0FBF790FE87
:105ED000206808B9012000E0002028B940F24112F2
:105EE0000FA119A0FBF784FE0C49606809680840FF
:105EF00098B1206888B9094960680968884360607A
:105F000000F0C6F91449606809680844124908603D
:105F10002046FEF70BFC00F019FC70BD500000207D
:105F20002E2E5C2E2E5C4672656552544F535C706B
:105F30006F72745C4D656D4D616E675C6865617014
:105F40005F342E63000000004572726F723A257351
:105F50002C25640D0A0000004800002003484FF083
:105F6000E021486107200861704700003F9002006F
:105F700070B504460025ACB10F48006808B901208F
:105F800000E0002028B940F2CF420CA112A0FBF79C
:105F90002FFE00F07DF900212046FEF7FBF900F00E
:105FA000D5FB05463DB94FF080500F490860BFF35F
:105FB0004F8FBFF36F8F70BD380000202E2E5C2EE8
:105FC0002E5C4672656552544F535C7372635C7409
:105FD00061736B732E6300004572726F723A2573A2
:105FE0002C25640D0A00000004ED00E02DE9F047C7
:105FF00004460F464FF000092CB940F2794226A121
:106000002CA0FBF7F5FD0FB1012000E0002028B91E
:1060100040F27A4220A127A0FBF7EAFD2948006858
:1060200008B9012000E0002028B940F27B421AA103
:1060300020A0FBF7DDFD00F02BF92348066820685F
:10604000C5192068B04207D92068A8420BD9B542CB
:1060500009D94FF0010906E02068A84201D8B542ED
:1060600001D94FF001092560B9F1000F03D0A81B39
:106070000021FEF78FF900F069FB8046B8F1000FB0
:1060800007D14FF0805011490860BFF34F8FBFF325
:106090006F8FBDE8F08700002E2E5C2E2E5C4672BE
:1060A000656552544F535C7372635C7461736B73B8
:1060B0002E6300004572726F723A25732C25640DB1
:1060C0000A000000380000201400002004ED00E069
:1060D00070B50546FFF76AFE15B92D48006800E067
:1060E00028460446201DFFF717FE78B9E06A00EB4A
:1060F0008000284951F8200040B994F82C10012064
:10610000884025490968814323480160A06A18B185
:1061100004F11800FFF700FE20480068401C1F49EA
:1061200008601B480068844209D1211D1C48FFF704
:1061300031FE1C480068401C1A49086009E01A48F2
:106140000068401E184908602046FEF7FBF9FEF77C
:1061500021FBFFF76FFE15480068C0B10C480068CE
:10616000844214D11248006808B9012000E00020E0
:1061700028B940F265420FA115A0FBF739FD4FF099
:10618000805017490860BFF34F8FBFF36F8F70BD0A
:106190000000002014010020180000202C00002026
:1061A000D00300200C000020100000201C00002064
:1061B000380000202E2E5C2E2E5C467265655254EF
:1061C0004F535C7372635C7461736B732E63000076
:1061D0004572726F723A25732C25640D0A00000017
:1061E00004ED00E01CB5184800210B468022CDE9E3
:1061F000001016A1174800F0AFF90446012C15D184
:1062000000BF502080F31188BFF34F8FBFF36F8F13
:1062100000BF4FF0FF301049086001200F490860AF
:1062200000200F49086000F0CFF80BE0601C08B1B7
:10623000012000E0002028B940F2847209A110A0DA
:10624000FBF7D6FC1CBD00003400002049444C453F
:1062500000000000D5450008300000201C00002090
:10626000140000202E2E5C2E2E5C46726565525462
:106270004F535C7372635C7461736B732E630000C5
:106280004572726F723A25732C25640D0A00000066
:1062900002480068401C014908607047380000202F
:1062A00010B51B48006818B101201A4908602DE09C
:1062B00000201849086018480068B0FA80F0C0F162
:1062C0001F0404EB8400154951F8200008B1012097
:1062D00000E0002028B940F6F62211A117A0FBF734
:1062E00087FC04EB84010D4A02EB81004168496898
:1062F000416000F1080142688A4202D14168496860
:1063000041604168C968114A116000BF10BD0000BA
:106310003800002024000020180000201401002074
:106320002E2E5C2E2E5C4672656552544F535C7364
:1063300072635C7461736B732E6300004572726FDD
:10634000723A25732C25640D0A000000000000201D
:1063500008B51248C069401E10494C3151F8200060
:106360004C398861FAF762FE0C230DA21E2114201D
:10637000FBF772F80C200090084804231E21826964
:106380005020FBF71FF80120142308221E21009043
:106390000020FAF797FEFAF769FF08BDF89300208E
:1063A00053656E736F72436E7400000010B5182051
:1063B000FEF744FA044624B100202060201DFFF7B8
:1063C000BFFC204610BD00001CB540480068404995
:1063D000884201D0012000E0002028B940F2591283
:1063E0003CA147A0FBF704FC384800683849491E27
:1063F000884201D0012000E0002028B94FF4AD729E
:1064000034A13FA0FBF7F4FB414C204600780190FB
:10641000FF20214608700846007800909DF8000093
:1064200000F0F0009DF80010884201D1012000E04A
:10643000002028B940F2731226A131A0FBF7D8FB47
:106440009DF8000000F050003249087007203249E2
:10645000086009E030480068401E2F4908609DF838
:1064600000004006000E00909DF8000000F0800043
:106470008028EFD0284800680002274908600846B5
:10648000008800F4E06008602149019808700F4816
:106490002030006840F470000C4920310860084644
:1064A000006840F070400860FFF758FD00201B496D
:1064B0000860F9F793FE1A48006840F04040184918
:1064C0000860F9F77BFE00201CBD000000ED00E035
:1064D00071C20F412E2E5C2E2E5C467265655254A1
:1064E0004F535C706F72745C525644535C41524D12
:1064F0005F434D34465C706F72742E630000000081
:106500004572726F723A25732C25640D0A000000E3
:1065100000E400E0580000205C000020540000204F
:1065200034EF00E010B500BF502080F31188BFF3B6
:106530004F8FBFF36F8F00BF00F054F818B14FF0CA
:1065400080500449086000BF002080F3118800BF1C
:1065500010BD000004ED00E02DE9FF4F85B080463E
:1065600089461746DDE912ABB800FEF767F9064623
:1065700056B14C20FEF762F904460CB1266304E0E4
:106580003046FFF78FFC00E000247CB10020CDE90D
:1065900000ABCDE902403A4649464046089BFEF72B
:1065A0002DF82046FDF742FF012501E04FF0FF35B1
:1065B000284609B0BDE8F08F0549096809B90120EE
:1065C00005E00449096809B9022000E0002070478D
:1065D0001C000020380000200149086870470000B6
:1065E000140000202DE9F0414FF0000841480068F8
:1065F000002872D140480068451C3F480560EDB94D
:106600003E480068006808B9012000E0002028B971
:1066100040F6D9123AA141A0FBF7EAFA37480768D9
:1066200042480068354908604048076040480068B3
:10663000401C3F490860FEF7ADF800BF3D480068C8
:1066400085423CD300BF2D480068006808B901208E
:1066500000E0002020B14FF0FF30364908602DE007
:1066600026480068C068C4686668B54202D23148EE
:10667000066023E0201DFFF74FFBA06A18B104F16C
:106680001800FFF749FB94F82C10012088402A4994
:106690000968084328490860E16A01EB8101274A3B
:1066A00002EB8100211DFFF775FB2549E06A0968AF
:1066B000C96A8842C7D34FF00108C4E700BF204829
:1066C0000068C06A00EB80001C4951F820000128D6
:1066D00001D94FF0010805E0FFE71A480068401CA7
:1066E000184908601848006808B14FF00108404692
:1066F000BDE8F081380000201400002004000020D4
:106700002E2E5C2E2E5C4672656552544F535C7380
:1067100072635C7461736B732E6300004572726FF9
:10672000723A25732C25640D0A0000000800002031
:106730002800002030000020180000201401002054
:1067400000000020200000202400002070B500245C
:1067500000263448006828B94FF4FD6232A139A000
:10676000FBF746FAFFF722FB2E480068401E2D4932
:1067700008600846006800284FD1364800680028A5
:106780004BD024E03448C068C46804F11800FFF717
:10679000C3FA201DFFF7C0FA94F82C10012088409E
:1067A0002E49096808432D490860E16A01EB81011F
:1067B0002B4A02EB8100211DFFF7ECFA2949E06A20
:1067C0000968C96A884202D3012027490860224823
:1067D000006808B9012000E000200028D2D00CB1E8
:1067E000FDF7D8FF2148056865B100BFFFF7FAFE45
:1067F00010B101201C4908606D1E002DF6D100204B
:106800001A4908601848006838B10126300718494D
:106810000860BFF34F8FBFF36F8FFFF70BFB30465E
:1068200070BD0000380000202E2E5C2E2E5C4672BB
:10683000656552544F535C7372635C7461736B7320
:106840002E6300004572726F723A25732C25640D19
:106850000A00000010000020BC03002018000020E7
:10686000140100200000002024000020200000204F
:1068700004ED00E0000002400100000000000240C2
:10688000020000000000024004000000000002407E
:10689000080000000000024010000000000002405C
:1068A0002000000000000240400000000000024004
:1068B00080000000000002400001000000000240D3
:1068C000000200000000024000040000000002403E
:1068D000000800000000024000100000000002401C
:1068E00000200000000002400040000000000240C4
:1068F000008000000004024001000000000402408B
:1069000002000000000402400400000000040240F5
:1069100008000000000402401000000000040240D3
:10692000200000000004024040000000000402407B
:10693000800000000004024000010000000402404A
:1069400000020000000402400004000000040240B5
:106950000008000000040240001000000004024093
:10696000002000000004024000400000000402403B
:106970000080000000080240010000000008024002
:10698000020000000008024004000000000802406D
:10699000080000000008024010000000000802404B
:1069A00020000000000802404000000000080240F3
:1069B00080000000000802400001000000080240C2
:1069C000000200000008024000040000000802402D
:1069D000000800000008024000100000000802400B
:1069E00000200000000802400040000000080240B3
:1069F00000800000000C024001000000000C02407A
:106A000002000000000C024004000000000C0240E4
:106A100008000000000C024010000000000C0240C2
:106A200020000000000C024040000000000C02406A
:106A300080000000000C024000010000000C024039
:106A400000020000000C024000040000000C0240A4
:106A500000080000000C024000100000000C024082
:106A600000200000000C024000400000000C02402A
:106A700000800000001002400100000000100240F1
:106A8000020000000010024004000000001002405C
:106A9000080000000010024010000000001002403A
:106AA00020000000001002404000000000100240E2
:106AB00080000000001002400001000000100240B1
:106AC000000200000010024000040000001002401C
:106AD00000080000001002400010000000100240FA
:106AE00000200000001002400040000000100240A2
:106AF0000080000000140240010000000014024069
:106B000002000000001402400400000000140240D3
:106B100008000000001402401000000000140240B1
:106B20002000000000140240400000000014024059
:106B30008000000000140240000100000014024028
:106B40000002000000140240000400000014024093
:106B50000008000000140240001000000014024071
:106B60000020000000140240004000000014024019
:106B700000800000001802400100000000180240E0
:106B8000020000000018024004000000001802404B
:106B90000800000000180240100000000018024029
:106BA00020000000001802404000000000180240D1
:106BB00080000000001802400001000000180240A0
:106BC000000200000018024000040000001802400B
:106BD00000080000001802400010000000180240E9
:106BE0000020000000180240004000000018024091
:106BF00000800000001C024001000000001C024058
:106C000002000000001C024004000000001C0240C2
:106C100008000000001C024010000000001C0240A0
:106C200020000000001C024040000000001C024048
:106C300080000000001C024000010000001C024017
:106C400000020000001C024000040000001C024082
:106C500000080000001C024000100000001C024060
:106C600000200000001C024000400000001C024008
:106C700000800000002002400100000000200240CF
:106C8000020000000020024004000000002002403A
:106C90000800000000200240100000000020024018
:106CA00020000000002002404000000000200240C0
:106CB000800000000020024000010000002002408F
:106CC00000020000002002400004000000200240FA
:106CD00000080000002002400010000000200240D8
:106CE0000020000000200240004000000020024080
:106CF0000080000000240240010000000024024047
:106D000002000000002402400400000000240240B1
:106D1000080000000024024010000000002402408F
:106D20002000000000240240400000000024024037
:106D30008000000000240240000100000024024006
:106D40000002000000240240000400000024024071
:106D5000000800000024024000100000002402404F
:106D600000200000002402400040000000240240F7
:106D700000800000002802400100000000280240BE
:106D80000200000000280240040000000028024029
:106D90000800000000280240100000000028024007
:106DA00020000000002802404000000000280240AF
:106DB000800000000028024000010000002802407E
:106DC00000020000002802400004000000280240E9
:106DD00000080000002802400010000000280240C7
:106DE000002000000028024000400000002802406F
:106DF0000080000000000000000000000000000013
:106E0000000000003F4000000000000000003000D3
:106E1000400030004000000009000BC03D000BC0E6
:106E20003D00090018C024407FE02240318000006E
:106E3000180024C01B000D803240018003801C40DC
:106E400027401C8007400040100060000000000048
:106E5000000000000000000000001F8020404020D3
:106E60000000402020401F800000000009000600B4
:106E70001F80060009000000040004003F80040099
:106E8000040000000010006000000000000000008E
:106E9000040004000400040004000000000000409E
:106EA0000000000000000000002001C006003800C3
:106EB000400000001F802040204020401F80000034
:106EC000000010403FC000400000000018C02140FA
:106ED00022402440184000001080204024402440DC
:106EE0001B80000002000D0011003FC001400000A7
:106EF0003C80244024402440238000001F80244004
:106F000024403440038000003000200027C03800B7
:106F1000200000001B802440244024401B800000EF
:106F20001C0022C0224022401F8000000000000000
:106F300008400000000000000000000004600000A5
:106F400000000000000004000A0011002080404002
:106F50000900090009000900090000000000404084
:106F6000208011000A0004001800200023402400A3
:106F7000180000001F802040274029401F400000CB
:106F8000004007C039000F0001C0004020403FC052
:106F9000244024401B8000001F80204020402040CF
:106FA0003080000020403FC0204020401F80000073
:106FB00020403FC024402E4030C0000020403FC051
:106FC00024402E00300000000F001080204022409E
:106FD0003380020020403FC0040004003FC0204036
:106FE000204020403FC02040204000000060202082
:106FF00020203FC02000200020403FC024400B0044
:1070000030C0204020403FC020400040004000C031
:107010003FC03C0003C03C003FC0000020403FC0D8
:107020000C4023003FC020001F8020402040204013
:107030001F80000020403FC02440240018000000B2
:107040001F802140214020E01FA0000020403FC0C1
:107050002440260019C0004018C02440244022408B
:1070600031800000300020403FC020403000000050
:1070700020003F80004000403F80200020003E0074
:1070800001C0070038002000380007C03C0007C0DE
:1070900038000000204039C0060039C02040000000
:1070A0002000384007C0384020000000304021C098
:1070B0002640384020C00000000000007FE0402053
:1070C00040200000000070000C0003800040000021
:1070D0000000402040207FE0000000000000200071
:1070E0004000200000000000001000100010001000
:1070F0000010001000000000400000000000000030
:10710000000002800540054003C0004020003FC051
:107110000440044003800000000003800440044059
:107120000640000000000380044024403FC00040AF
:1071300000000380054005400340000000000440BB
:107140001FC0244024402000000002E005500550EC
:107150000650042020403FC00440040003C000400B
:107160000000044027C00040000000000010001094
:10717000041027E00000000020403FC0014007004D
:1071800004C00440204020403FC0004000400000B8
:1071900007C0040007C0040003C00000044007C08B
:1071A0000440040003C00040000003800440044089
:1071B00003800000041007F0045004400380000026
:1071C000000003800440045007F00010044007C092
:1071D0000240040004000000000006400540054095
:1071E00004C00000000004001F80044000400000B4
:1071F000040007800040044007C00040040007006E
:1072000004C0018006000400060001C0070001C0A0
:1072100006000000044006C0010006C00440000053
:107220000410071004E00180060004000000044080
:1072300005C00640044000000000000004007BE0A0
:1072400040200000000000000000FFF000000000EF
:10725000000040207BE004000000000040008000AF
:10726000400020002000400000000000000000005E
:1072700000000000000000000000000000001FCC23
:10728000000C00000000000000000800300060005A
:107290000800300060000000022003FC1E200220D5
:1072A00003FC1E200220000000000E1811043FFF06
:1072B00010840C78000000000F0010840F3800C00C
:1072C000077818840078000000780F8410C4112417
:1072D0000E9800E4008400080800680070000000B8
:1072E000000000000000000000000000000007E0B7
:1072F0001818200440020000000040022004181862
:1073000007E00000000000000240024001800FF092
:1073100001800240024000000080008000800FF8E1
:1073200000800080008000000001000D000E0000C1
:1073300000000000000000000000008000800080CD
:1073400000800080008000800000000C000C000025
:1073500000000000000000000000000600180060AF
:107360000180060018002000000007F00808100443
:107370001004080807F000000000080408041FFCBF
:10738000000400040000000000000E0C1014102483
:10739000104411840E0C000000000C18100411049D
:1073A000110412880C700000000000E00320042487
:1073B00008241FFC0024000000001F981084110402
:1073C0001104108810700000000007F008881104F4
:1073D000110418880070000000001C00100010FC50
:1073E00013001C001000000000000E38114410842F
:1073F000108411440E38000000000700088C10446F
:107400001044088807F00000000000000000030C92
:10741000030C000000000000000000000001010655
:107420000000000000000000000000800140022079
:10743000041008081004000002200220022002208C
:10744000022002200220000000001004080804109E
:10745000022001400080000000000E001200100C0D
:10746000106C10800F00000003E00C1813E41424CB
:1074700017C4082807D000000004003C03C41C40C7
:10748000074000E4001C000410041FFC1104110458
:1074900011040E880070000003E00C1810041004A2
:1074A000100410081C10000010041FFC100410042D
:1074B0001004080807F0000010041FFC1104110458
:1074C00017C410040818000010041FFC1104110058
:1074D00017C010000800000003E00C18100410048E
:1074E00010441C780040000010041FFC1084008031
:1074F000008010841FFC10040000100410041FFC06
:10750000100410040000000000030001100110012D
:107510001FFE10001000000010041FFC1104038067
:107520001464181C1004000010041FFC1004000454
:1075300000040004000C000010041FFC1F0000FCED
:107540001F001FFC1004000010041FFC0C040300AB
:1075500000E010181FFC100007F0080810041004C9
:107560001004080807F0000010041FFC10841080AD
:10757000108010800F00000007F00818102410245D
:10758000101C080A07F2000010041FFC110411006F
:1075900011C011300E0C000400000E1C11041084E8
:1075A000108410441C3800001800100010041FFC48
:1075B000100410001800000010001FF81004000450
:1075C000000410041FF8100010001E0011E0001C41
:1075D000007013801C0010001FC0103C00E01F0052
:1075E00000E0103C1FC000001004180C163401C04D
:1075F00001C01634180C100410001C00130400FC09
:1076000013041C00100000000804101C10641084F7
:1076100013041C04101800000000000000007FFE8E
:107620004002400240020000000030000C000380D5
:107630000060001C00030000000040024002400205
:107640007FFE00000000000000000000200040005D
:107650004000400020000000000100010001000186
:107660000001000100010001000040004000200076
:107670000000000000000000000000980124014408
:107680000144014400FC000410001FFC00880104B8
:1076900001040088007000000000007000880104F0
:1076A000010401040088000000000070008801044B
:1076B000010411081FFC0004000000F8014401440B
:1076C0000144014400C800000000010401040FFC53
:1076D0001104110411001800000000D6012901292D
:1076E000012901C90106000010041FFC00840100EB
:1076F0000100010400FC000400000104190419FC4D
:10770000000400040000000000000003000101016B
:10771000190119FE0000000010041FFC00240040A5
:1077200001B4010C010400000000100410041FFC4F
:107730000004000400000000010401FC0104010039
:1077400001FC0104010000FC010401FC00840100B3
:107750000100010400FC0004000000F80104010421
:107760000104010400F80000010101FF008501048B
:10777000010400880070000000000070008801040F
:107780000104010501FF00010104010401FC008462
:107790000104010001800000000000CC012401244C
:1077A000012401240198000000000100010007F8F5
:1077B0000104010400000000010001F800040004BD
:1077C0000004010801FC0004010001800170000CAC
:1077D000001001600180010001F0010C003001C0C7
:1077E0000030010C01F0010000000104018C007464
:1077F0000170018C01040000010101810171000E82
:10780000001801600180010000000184010C0134B6
:1078100001440184010C0000000000000000000091
:1078200001003EFC40024002000000000000000099
:10783000FFFF0000000000000000400240023EFC8C
:1078400001000000000000000000600080008000D7
:107850004000400020002000000000000000000068
:107860000000000000000000000000000000000018
:107870000000000000000000000000000000000008
:1078800000000000000000000000000F80380FFE24
:10789000380F8038000000000000000000000000E9
:1078A0000000000000000100000600000C0000388D
:1078B00000003100000600000C000038000030001D
:1078C000000000000000000061800067F807F980F8
:1078D0000061800061800061800061800067F807BE
:1078E000F98000618000000000000000000001C07D
:1078F000E003E0F00630080418081FFFFE040E083D
:107900000787F00381E000000000000001F000069E
:107910000C00040408060C7001F9C0000E00003BC6
:10792000E000EC18070808040C180003E000000051
:107930000001E00007F003F818041C08041708070A
:10794000E1D003C0E00023B0003C080020080000A4
:1079500010000000000000010000310000320000B3
:107960001C000000000000000000000000000000FB
:107970000000000000000000000000000000000007
:1079800000000000000000007F0001FFC00780F041
:107990000C0018100004200002000000000000206D
:1079A00000021000040C00180780F001FFC0007FE7
:1079B00000000000000000000000000000000000C7
:1079C000000000004200006600006600003C00006D
:1079D000180003FFC0001800003C000066000066AD
:1079E000000042000000000008000008000008003D
:1079F00000080000080001FFC000080000080000A7
:107A0000080000080000080000000000000100005D
:107A10003100003200001C000000000000000000E7
:107A20000000000000000000000000000000000056
:107A30000800000800000800000800000800000816
:107A40000000080000080000080000080000000016
:107A5000000000000000000038000038000038007E
:107A60000000000000000000000000000000000016
:107A70000000000000000000000600001C00007074
:107A8000000180000E0000380000C0000700001C4C
:107A90000000300000000000000000007F8001FFB7
:107AA000E0038070060018040008040008060018AF
:107AB00003807001FFE0007F8000000000000000F4
:107AC000000001000801000801000803FFF807FF9B
:107AD000F800000800000800000800000000000096
:107AE00000000001C03802C05804009804011804C6
:107AF0000218040418061C1803F81801E0F8000026
:107B00000000000000000001C0E003C0F004000815
:107B100004080804080806180803F41801E7F00030
:107B200001E0000000000000000000000300000D64
:107B30000000110000610000810803010807FFF840
:107B40000FFFF8000108000108000000000000001D
:107B500000E007FCD006080806100806100806100A
:107B600008061838060FF00607C0000000000000E5
:107B7000000000003F8001FFE00384300208180489
:107B80001008041008041008071810030FF000076D
:107B9000C000000000000000000003C0000700005B
:107BA0000600000600F80607F806180006E00007C1
:107BB000000006000000000000000001E1E003F703
:107BC000F0063410041808041808040C08040C0803
:107BD00006161803F3F001C1E000000000000000E9
:107BE000F80003FC3003063804020804020804020B
:107BF000080404100308F001FFC0007F000000002B
:107C00000000000000000000000000000000000074
:107C1000703800703800703800000000000000006C
:107C20000000000000000000000000000000000054
:107C300000000000301A00301C00000000000000AE
:107C4000000000000000000000000000000000082C
:107C5000000014000022000041000080800100406C
:107C600002002004001008000800000000000000CE
:107C7000210000210000210000210000210000213E
:107C80000000210000210000210000210000000070
:107C9000000000000000080008040010020020019D
:107CA0000040008080004100002200001400000815
:107CB0000000000000000003C00004C00004000039
:107CC000080038080F380808380810000C30000782
:107CD000E00003C000000000000000003F8000FF43
:107CE000E0038070020F1006708804C088048308C7
:107CF000047F8802C09003012000FE4000000800BD
:107D000000180001F8003E0801C20007020007E267
:107D10000000FE00001FC80001F800003800000845
:107D200004000807FFF807FFF8040808040808041F
:107D3000080804080806180803F41801E7F0000111
:107D4000E0000000000000003F8001FFE0038070C1
:107D500002001804000804000804000804001006CB
:107D600000200780C000000004000807FFF807FF9C
:107D7000F8040008040008040008040018020010B9
:107D800003807001FFE0007F80000000040008070E
:107D9000FFF807FFF80408080408080408080408A6
:107DA00008043E08040008060018010060000000F6
:107DB00004000807FFF807FFF80408080408000497
:107DC0000800040800043E000600000600000180D0
:107DD00000000000000000003F8001FFE003807011
:107DE0000600180400080402080402080203F00751
:107DF00083F000020000020004000807FFF807FFFC
:107E0000F804080800080000080000080000080046
:107E100004080807FFF807FFF80400080000000046
:107E2000000004000804000804000807FFF807FF2A
:107E3000F804000804000804000800000000000026
:107E4000000000000006000007000001040001041B
:107E5000000104000307FFFE07FFFC04000004000C
:107E60000004000004000807FFF807FFF8040C08EE
:107E7000001800003E0004C7800503C80600F8048F
:107E8000003804001800000804000807FFF807FF86
:107E9000F8040008000008000008000008000008BE
:107EA000000008000018000060000000040008073F
:107EB000FFF807800807FC00007FC00003F80007F8
:107EC000C000780007800807FFF807FFF8040008E3
:107ED00004000807FFF807000803C00000E00000E6
:107EE0003800001E000007000001C00400F007FF7A
:107EF000F8040000000000007F8001FFE0038070B4
:107F000006001804000804000806001803003001E9
:107F1000FFE0007F8000000004000807FFF807FF73
:107F2000F804040804040004040004040004040029
:107F3000060C0003F80001F0000000000000000043
:107F40007F8001FFE0038070060088040088040041
:107F5000C806003C03003E01FFE6007F84000000ED
:107F600004000807FFF807FFF804080804080004E5
:107F70000C00040F00040BC00610F003F03801E001
:107F80000800000800000001E0F803F0300630109F
:107F9000041808041808040C08040C080206180247
:107FA00007F00781E00000000180000600000400E7
:107FB0000004000004000807FFF807FFF8040008A9
:107FC0000400000400000600000180000400000717
:107FD000FFE007FFF00400180000080000080000A0
:107FE0000800000800000804001007FFE00400007B
:107FF00004000006000007E00007FE00041FE00088
:1080000001F80000380001E0043E0007C00006004F
:108010000004000004000007E00007FFC0041FF890
:108020000007C007F80007FF80043FF80007C004FE
:10803000F80007000004000000000004000806002B
:108040001807C07805F1C8003E00001F800463E8EF
:108050000780F8060018040008000000040000066D
:10806000000007800007E008047C08001FF80007F4
:10807000F800180804E008070000060000040000EB
:108080000000000100080600380400F80403E804BA
:108090000F08047C0805F00807C008070018040052
:1080A0006000000000000000000000000000000070
:1080B0000000003FFFFE20000220000220000220FE
:1080C0000002200002000000000000000000080084
:1080D0000007000000C0000038000006000001C0DA
:1080E00000003000000E0000010000000000000051
:1080F00000002000022000022000022000022000D8
:10810000023FFFFE00000000000000000000000031
:108110000000000000000000000800001000003017
:1081200000002000003000001000000800000000E7
:10813000000000000000010000010000010000013B
:10814000000001000001000001000001000001002A
:10815000000100000100000100000000000000001C
:1081600000200000200000100000100000000000AF
:1081700000000000000000000000000000000000FF
:1081800000F00019F8001B1800220800260800243F
:1081900008002410003FF8001FF800000800001835
:1081A00000000004000007FFF80FFFF0001818009F
:1081B0001008002008002008003018001FF0000FF1
:1081C000C00000000000000007C0001FF0001830D1
:1081D000002008002008002008003C08001C1000B7
:1081E00000600000000000000000000007C0001F49
:1081F000F0003818002008002008002008041010A3
:1082000007FFF80FFFF00000100000000000000062
:1082100000000007C0001FF00012300022180022EA
:1082200008002208003208001E10000E2000000086
:1082300000000000200000200800200801FFF803D3
:10824000FFF8062008042008042008072000030087
:108250000000000000000000000E000E6E001FF382
:108260000031B10020B10020B1003191001F130096
:108270002E1E00200E00300000000004000807FF42
:10828000F80FFFF800100800200000200000200870
:10829000003FF8001FF80000080000000000000088
:1082A0000000002008002008002008063FF8063FD4
:1082B000F8000008000008000008000000000000AE
:1082C0000000000000000000030000030020010087
:1082D0002001002003063FFE063FFC0000000000D6
:1082E0000000000000000004000807FFF80FFFF87E
:1082F000000188000300002FC00038F8002038007B
:108300002008000008000000000000000000040039
:108310000804000804000807FFF80FFFF800000831
:108320000000080000080000000000000020080015
:108330003FF8003FF8001008002000003FF8003F21
:10834000F8001008002000003FF8003FF800000887
:10835000000000002008003FF8003FF8001008006F
:108360001000002000002008003FF8001FF8000067
:10837000080000000000000007C0000FF0001830E7
:1083800000300800200800200800300800183000E5
:108390000FF00007C0000000000000002001003FB7
:1083A000FF003FFF001011002009002008002008F6
:1083B000003038001FF0000FC00000000000000077
:1083C00007C0001FF0003818002008002008002017
:1083D00009001011001FFF003FFF00000100000016
:1083E000002008002008002008003FF8003FF800A7
:1083F00008080010080020080020000030000030AD
:1084000000000000000000000000000C78001E18B2
:10841000003308002308002108002188002198006B
:1084200030F0003860000000000000002000002054
:108430000000200000FFF003FFF8002008002008E3
:1084400000200800003000000000000000000000D4
:108450002000003FF0007FF8000018000008000036
:1084600008002010003FF8007FF00000100000001E
:10847000000000002000003000003C00003F8000B1
:1084800023F0000078000070002380003C000030E2
:1084900000002000002000003C00003FE00023F826
:1084A0000000E0002700003E00003FE00021F8004F
:1084B00001E0003E00002000000000002008002035
:1084C00008003838003E680027800003C8002CF8F8
:1084D00000383800201800200800000000000000CC
:1084E0002000003003003C01003F830023EC00002B
:1084F00070002380003C00002000002000000000ED
:108500000000000000000038080020380020F800BB
:1085100023E8002F88003E080038080020180000DB
:1085200070000000000000000000000000000000DB
:108530000000000008000014001FF7FC30000620B7
:108540000002000000000000000000000000000029
:1085500000000000000000000000FFFFFF0000001E
:10856000000000000000000000000000000000000B
:1085700000002000023000061FF7FC001400000875
:1085800000000000000000000000000000000000EB
:1085900000000018000060000040000040000020C3
:1085A00000001000000800000400000400000C009F
:1085B00000100000524400004245000057450000F2
:1085C000424B0000594F000045500000EC85000868
:1085D0000000002014010000101C000800870008A3
:1085E00014010020A49B0000201C000800000000D3
:1085F000000000000000000000000000000000007B
:10860000000000000000000000000000000000006A
:10861000000000000000000000000000000000005A
:10862000000000000000000000000000000000004A
:10863000000000000000000000000000000000003A
:10864000AAAAAAAA00000000000000000000000082
:10865000000000000000000000000000BC850008D1
:10866000C0850008B4850008B8850008C4850008E6
:10867000C8850008010100000100000000000000A2
:1086800000000000000000000000000000000000EA
:1086900000000000000000000000000000000000DA
:1086A00000000000000000000000000000000000CA
:1086B00000000000000000000000000000000500B5
:1086C00000000000000000000000000000000000AA
:1086D000000000000000000000000000000000009A
:1086E000000000000000000000000000000000008A
:1086F000000000000000000000000000000000007A
:040000050800018965
:00000001FF
