Component: ARM Compiler 5.06 update 6 (build 750) Tool: armlink [4d35ed]

==============================================================================

Section Cross References

    startup_stm32f40_41xxx.o(RESET) refers to startup_stm32f40_41xxx.o(STACK) for __initial_sp
    startup_stm32f40_41xxx.o(RESET) refers to startup_stm32f40_41xxx.o(.text) for Reset_Handler
    startup_stm32f40_41xxx.o(RESET) refers to stm32f4xx_it.o(i.NMI_Handler) for NMI_Handler
    startup_stm32f40_41xxx.o(RESET) refers to stm32f4xx_it.o(i.HardFault_Handler) for HardFault_Handler
    startup_stm32f40_41xxx.o(RESET) refers to stm32f4xx_it.o(i.MemManage_Handler) for MemManage_Handler
    startup_stm32f40_41xxx.o(RESET) refers to stm32f4xx_it.o(i.BusFault_Handler) for BusFault_Handler
    startup_stm32f40_41xxx.o(RESET) refers to stm32f4xx_it.o(i.UsageFault_Handler) for UsageFault_Handler
    startup_stm32f40_41xxx.o(RESET) refers to port.o(.emb_text) for SVC_Handler
    startup_stm32f40_41xxx.o(RESET) refers to stm32f4xx_it.o(i.DebugMon_Handler) for DebugMon_Handler
    startup_stm32f40_41xxx.o(RESET) refers to stm32f4xx_it.o(i.SysTick_Handler) for SysTick_Handler
    startup_stm32f40_41xxx.o(RESET) refers to trackdecisionlevel.o(i.TIM3_IRQHandler) for TIM3_IRQHandler
    startup_stm32f40_41xxx.o(.text) refers to system_stm32f4xx.o(i.SystemInit) for SystemInit
    startup_stm32f40_41xxx.o(.text) refers to entry.o(.ARM.Collect$$$$00000000) for __main
    system_stm32f4xx.o(i.SystemCoreClockUpdate) refers to system_stm32f4xx.o(.data) for SystemCoreClock
    system_stm32f4xx.o(i.SystemInit) refers to system_stm32f4xx.o(i.SetSysClock) for SetSysClock
    stm32f4xx_adc.o(i.ADC_DeInit) refers to stm32f4xx_rcc.o(i.RCC_APB2PeriphResetCmd) for RCC_APB2PeriphResetCmd
    stm32f4xx_can.o(i.CAN_DeInit) refers to stm32f4xx_rcc.o(i.RCC_APB1PeriphResetCmd) for RCC_APB1PeriphResetCmd
    stm32f4xx_can.o(i.CAN_GetITStatus) refers to stm32f4xx_can.o(i.CheckITStatus) for CheckITStatus
==============================================================================

Removing Unused input sections from the image.

    Removing startup_stm32f40_41xxx.o(HEAP), (512 bytes).
    Removing system_stm32f4xx.o(.rev16_text), (4 bytes).
    Removing system_stm32f4xx.o(.revsh_text), (4 bytes).
    Removing system_stm32f4xx.o(.rrx_text), (6 bytes).
    Removing system_stm32f4xx.o(i.SystemCoreClockUpdate), (192 bytes).
    Removing system_stm32f4xx.o(.data), (20 bytes).
    Removing misc.o(.rev16_text), (4 bytes).
    Removing misc.o(.revsh_text), (4 bytes).
    Removing misc.o(.rrx_text), (6 bytes).
    Removing misc.o(i.NVIC_SetVectorTable), (20 bytes).
    Removing misc.o(i.NVIC_SystemLPConfig), (32 bytes).
    Removing misc.o(i.SysTick_CLKSourceConfig), (40 bytes).
    Removing stm32f4xx_adc.o(.rev16_text), (4 bytes).
    Removing stm32f4xx_adc.o(.revsh_text), (4 bytes).
    Removing stm32f4xx_adc.o(.rrx_text), (6 bytes).
    Removing stm32f4xx_adc.o(i.ADC_AnalogWatchdogCmd), (20 bytes).
    Removing stm32f4xx_adc.o(i.ADC_AnalogWatchdogSingleChannelConfig), (16 bytes).
    Removing stm32f4xx_adc.o(i.ADC_AnalogWatchdogThresholdsConfig), (6 bytes).
==============================================================================

Image Symbol Table

    Local Symbols

    Symbol Name                              Value     Ov Type        Size  Object(Section)

    ../clib/microlib/division.c              0x00000000   Number         0  uldiv.o ABSOLUTE
    ../clib/microlib/division.c              0x00000000   Number         0  uidiv.o ABSOLUTE
    ../clib/microlib/errno.c                 0x00000000   Number         0  errno.o ABSOLUTE
    ../clib/microlib/init/entry.s            0x00000000   Number         0  entry10b.o ABSOLUTE
    ../clib/microlib/init/entry.s            0x00000000   Number         0  entry10a.o ABSOLUTE
    ../clib/microlib/init/entry.s            0x00000000   Number         0  entry11a.o ABSOLUTE
    ../clib/microlib/init/entry.s            0x00000000   Number         0  entry9b.o ABSOLUTE
    ../clib/microlib/init/entry.s            0x00000000   Number         0  entry11b.o ABSOLUTE
    ../clib/microlib/init/entry.s            0x00000000   Number         0  entry9a.o ABSOLUTE
    ../clib/microlib/init/entry.s            0x00000000   Number         0  entry8b.o ABSOLUTE
    ../clib/microlib/init/entry.s            0x00000000   Number         0  entry8a.o ABSOLUTE
    ../clib/microlib/init/entry.s            0x00000000   Number         0  entry7b.o ABSOLUTE
    ../clib/microlib/init/entry.s            0x00000000   Number         0  entry7a.o ABSOLUTE
    ../clib/microlib/init/entry.s            0x00000000   Number         0  entry5.o ABSOLUTE
    ../clib/microlib/init/entry.s            0x00000000   Number         0  entry.o ABSOLUTE
    ../clib/microlib/init/entry.s            0x00000000   Number         0  entry2.o ABSOLUTE
    ../clib/microlib/longlong.c              0x00000000   Number         0  llsshr.o ABSOLUTE
    ../clib/microlib/longlong.c              0x00000000   Number         0  llshl.o ABSOLUTE
    ../clib/microlib/longlong.c              0x00000000   Number         0  llushr.o ABSOLUTE
    ../clib/microlib/malloc/malloc.c         0x00000000   Number         0  mallocra.o ABSOLUTE
    ../clib/microlib/malloc/malloc.c         0x00000000   Number         0  malloca.o ABSOLUTE
    ../clib/microlib/malloc/malloc.c         0x00000000   Number         0  mallocr.o ABSOLUTE
    ../clib/microlib/malloc/malloc.c         0x00000000   Number         0  malloc.o ABSOLUTE
    ../clib/microlib/malloc/mvars.c          0x00000000   Number         0  mvars.o ABSOLUTE
    ../clib/microlib/printf/printf.c         0x00000000   Number         0  printf1.o ABSOLUTE
    ../clib/microlib/printf/printf.c         0x00000000   Number         0  printfb.o ABSOLUTE
    ../clib/microlib/printf/printf.c         0x00000000   Number         0  printf0.o ABSOLUTE
    ../clib/microlib/printf/printf.c         0x00000000   Number         0  printf7.o ABSOLUTE
    ../clib/microlib/printf/printf.c         0x00000000   Number         0  printf2.o ABSOLUTE
    ../clib/microlib/printf/printf.c         0x00000000   Number         0  printf3.o ABSOLUTE
    ../clib/microlib/printf/printf.c         0x00000000   Number         0  printf4.o ABSOLUTE
    ../clib/microlib/printf/printf.c         0x00000000   Number         0  printf5.o ABSOLUTE
    ../clib/microlib/printf/printf.c         0x00000000   Number         0  printf6.o ABSOLUTE
    ../clib/microlib/printf/printf.c         0x00000000   Number         0  printf8.o ABSOLUTE
    ../clib/microlib/printf/printf.c         0x00000000   Number         0  printfa.o ABSOLUTE
    ../clib/microlib/printf/stubs.s          0x00000000   Number         0  stubs.o ABSOLUTE
    ../clib/microlib/stdio/fputc.c           0x00000000   Number         0  fputc.o ABSOLUTE
    ../clib/microlib/stdio/semi.s            0x00000000   Number         0  semi.o ABSOLUTE
    ../clib/microlib/stdio/streams.c         0x00000000   Number         0  stdout.o ABSOLUTE
    ../clib/microlib/string/memcpy.c         0x00000000   Number         0  memcpya.o ABSOLUTE
    ../clib/microlib/string/memcpy.c         0x00000000   Number         0  memcpyb.o ABSOLUTE
    ../clib/microlib/string/memset.c         0x00000000   Number         0  memseta.o ABSOLUTE
    ../clib/microlib/string/strcpy.c         0x00000000   Number         0  strcpy.o ABSOLUTE
    ../clib/microlib/string/strlen.c         0x00000000   Number         0  strlen.o ABSOLUTE
    ../clib/microlib/string/strncmp.c        0x00000000   Number         0  strncmp.o ABSOLUTE
    ../clib/microlib/stubs.s                 0x00000000   Number         0  iusesemip.o ABSOLUTE
    ../clib/microlib/stubs.s                 0x00000000   Number         0  iusefp.o ABSOLUTE
    ../fplib/microlib/fpadd.c                0x00000000   Number         0  dadd.o ABSOLUTE
    ../fplib/microlib/fpdiv.c                0x00000000   Number         0  ddiv.o ABSOLUTE
    ../fplib/microlib/fpepilogue.c           0x00000000   Number         0  depilogue.o ABSOLUTE
    ../fplib/microlib/fpfix.c                0x00000000   Number         0  dfixul.o ABSOLUTE
    ../fplib/microlib/fpmul.c                0x00000000   Number         0  dmul.o ABSOLUTE
    ../fplib/microlib/fpstat.c               0x00000000   Number         0  fpstat.o ABSOLUTE
    ../mathlib/fpclassifyf.c                 0x00000000   Number         0  fpclassifyf.o ABSOLUTE
    ../mathlib/funder.c                      0x00000000   Number         0  funder.o ABSOLUTE
    ../mathlib/log10f.c                      0x00000000   Number         0  log10f_x.o ABSOLUTE
    ../mathlib/log10f.c                      0x00000000   Number         0  log10f.o ABSOLUTE
    ../mathlib/powf.c                        0x00000000   Number         0  powf_x.o ABSOLUTE
    ../mathlib/powf.c                        0x00000000   Number         0  powf.o ABSOLUTE
    ..\..\APP\app_Init.c                     0x00000000   Number         0  app_init.o ABSOLUTE
    ..\..\APP\direction.c                    0x00000000   Number         0  direction.o ABSOLUTE
    ..\..\APP\gui.c                          0x00000000   Number         0  gui.o ABSOLUTE
    ..\..\APP\key.c                          0x00000000   Number         0  key.o ABSOLUTE
    ..\..\APP\meun.c                         0x00000000   Number         0  meun.o ABSOLUTE
    ..\..\APP\moving.c                       0x00000000   Number         0  moving.o ABSOLUTE
    ..\..\APP\oled.c                         0x00000000   Number         0  oled.o ABSOLUTE
    ..\..\APP\trackDecisionLevel.c           0x00000000   Number         0  trackdecisionlevel.o ABSOLUTE
    ..\..\FreeRTOS\port\MemMang\heap_4.c     0x00000000   Number         0  heap_4.o ABSOLUTE
    ..\..\FreeRTOS\port\RVDS\ARM_CM4F\port.c 0x00000000   Number         0  port.o ABSOLUTE
    ..\..\FreeRTOS\src\croutine.c            0x00000000   Number         0  croutine.o ABSOLUTE
    ..\..\FreeRTOS\src\event_groups.c        0x00000000   Number         0  event_groups.o ABSOLUTE
    ..\..\FreeRTOS\src\list.c                0x00000000   Number         0  list.o ABSOLUTE
    ..\..\FreeRTOS\src\queue.c               0x00000000   Number         0  queue.o ABSOLUTE
    ..\..\FreeRTOS\src\tasks.c               0x00000000   Number         0  tasks.o ABSOLUTE
    ..\..\FreeRTOS\src\timers.c              0x00000000   Number         0  timers.o ABSOLUTE
    ..\..\Libraries\CMSIS\Device\ST\STM32F4xx\Source\Templates\arm\startup_stm32f40_41xxx.s 0x00000000   Number         0  startup_stm32f40_41xxx.o ABSOLUTE
    ..\..\Libraries\CMSIS\Device\ST\STM32F4xx\Source\Templates\system_stm32f4xx.c 0x00000000   Number         0  system_stm32f4xx.o ABSOLUTE
    ..\..\Libraries\STM32F4xx_StdPeriph_Driver\src\misc.c 0x00000000   Number         0  misc.o ABSOLUTE
    ..\..\Libraries\STM32F4xx_StdPeriph_Driver\src\stm32f4xx_adc.c 0x00000000   Number         0  stm32f4xx_adc.o ABSOLUTE
    ..\..\Libraries\STM32F4xx_StdPeriph_Driver\src\stm32f4xx_can.c 0x00000000   Number         0  stm32f4xx_can.o ABSOLUTE
    ..\..\Libraries\STM32F4xx_StdPeriph_Driver\src\stm32f4xx_cec.c 0x00000000   Number         0  stm32f4xx_cec.o ABSOLUTE
    ..\..\Libraries\STM32F4xx_StdPeriph_Driver\src\stm32f4xx_crc.c 0x00000000   Number         0  stm32f4xx_crc.o ABSOLUTE
    ..\..\Libraries\STM32F4xx_StdPeriph_Driver\src\stm32f4xx_cryp.c 0x00000000   Number         0  stm32f4xx_cryp.o ABSOLUTE
    ..\..\Libraries\STM32F4xx_StdPeriph_Driver\src\stm32f4xx_cryp_aes.c 0x00000000   Number         0  stm32f4xx_cryp_aes.o ABSOLUTE
    ..\..\Libraries\STM32F4xx_StdPeriph_Driver\src\stm32f4xx_cryp_des.c 0x00000000   Number         0  stm32f4xx_cryp_des.o ABSOLUTE
    ..\..\Libraries\STM32F4xx_StdPeriph_Driver\src\stm32f4xx_cryp_tdes.c 0x00000000   Number         0  stm32f4xx_cryp_tdes.o ABSOLUTE
    ..\..\Libraries\STM32F4xx_StdPeriph_Driver\src\stm32f4xx_dac.c 0x00000000   Number         0  stm32f4xx_dac.o ABSOLUTE
    ..\..\Libraries\STM32F4xx_StdPeriph_Driver\src\stm32f4xx_dbgmcu.c 0x00000000   Number         0  stm32f4xx_dbgmcu.o ABSOLUTE
    ..\..\Libraries\STM32F4xx_StdPeriph_Driver\src\stm32f4xx_dcmi.c 0x00000000   Number         0  stm32f4xx_dcmi.o ABSOLUTE
    ..\..\Libraries\STM32F4xx_StdPeriph_Driver\src\stm32f4xx_dma.c 0x00000000   Number         0  stm32f4xx_dma.o ABSOLUTE
    ..\..\Libraries\STM32F4xx_StdPeriph_Driver\src\stm32f4xx_dma2d.c 0x00000000   Number         0  stm32f4xx_dma2d.o ABSOLUTE
    ..\..\Libraries\STM32F4xx_StdPeriph_Driver\src\stm32f4xx_exti.c 0x00000000   Number         0  stm32f4xx_exti.o ABSOLUTE
    ..\..\Libraries\STM32F4xx_StdPeriph_Driver\src\stm32f4xx_flash.c 0x00000000   Number         0  stm32f4xx_flash.o ABSOLUTE
    ..\..\Libraries\STM32F4xx_StdPeriph_Driver\src\stm32f4xx_flash_ramfunc.c 0x00000000   Number         0  stm32f4xx_flash_ramfunc.o ABSOLUTE
    ..\..\Libraries\STM32F4xx_StdPeriph_Driver\src\stm32f4xx_fmpi2c.c 0x00000000   Number         0  stm32f4xx_fmpi2c.o ABSOLUTE
    ..\..\Libraries\STM32F4xx_StdPeriph_Driver\src\stm32f4xx_gpio.c 0x00000000   Number         0  stm32f4xx_gpio.o ABSOLUTE
    ..\..\Libraries\STM32F4xx_StdPeriph_Driver\src\stm32f4xx_hash.c 0x00000000   Number         0  stm32f4xx_hash.o ABSOLUTE
    ..\..\Libraries\STM32F4xx_StdPeriph_Driver\src\stm32f4xx_hash_md5.c 0x00000000   Number         0  stm32f4xx_hash_md5.o ABSOLUTE
    ..\..\Libraries\STM32F4xx_StdPeriph_Driver\src\stm32f4xx_hash_sha1.c 0x00000000   Number         0  stm32f4xx_hash_sha1.o ABSOLUTE
    ..\..\Libraries\STM32F4xx_StdPeriph_Driver\src\stm32f4xx_i2c.c 0x00000000   Number         0  stm32f4xx_i2c.o ABSOLUTE
    ..\..\Libraries\STM32F4xx_StdPeriph_Driver\src\stm32f4xx_iwdg.c 0x00000000   Number         0  stm32f4xx_iwdg.o ABSOLUTE
    ..\..\Libraries\STM32F4xx_StdPeriph_Driver\src\stm32f4xx_ltdc.c 0x00000000   Number         0  stm32f4xx_ltdc.o ABSOLUTE
    ..\..\Libraries\STM32F4xx_StdPeriph_Driver\src\stm32f4xx_pwr.c 0x00000000   Number         0  stm32f4xx_pwr.o ABSOLUTE
    ..\..\Libraries\STM32F4xx_StdPeriph_Driver\src\stm32f4xx_qspi.c 0x00000000   Number         0  stm32f4xx_qspi.o ABSOLUTE
    ..\..\Libraries\STM32F4xx_StdPeriph_Driver\src\stm32f4xx_rcc.c 0x00000000   Number         0  stm32f4xx_rcc.o ABSOLUTE
    ..\..\Libraries\STM32F4xx_StdPeriph_Driver\src\stm32f4xx_rng.c 0x00000000   Number         0  stm32f4xx_rng.o ABSOLUTE
    ..\..\Libraries\STM32F4xx_StdPeriph_Driver\src\stm32f4xx_rtc.c 0x00000000   Number         0  stm32f4xx_rtc.o ABSOLUTE
    ..\..\Libraries\STM32F4xx_StdPeriph_Driver\src\stm32f4xx_sai.c 0x00000000   Number         0  stm32f4xx_sai.o ABSOLUTE
    ..\..\Libraries\STM32F4xx_StdPeriph_Driver\src\stm32f4xx_sdio.c 0x00000000   Number         0  stm32f4xx_sdio.o ABSOLUTE
    ..\..\Libraries\STM32F4xx_StdPeriph_Driver\src\stm32f4xx_spdifrx.c 0x00000000   Number         0  stm32f4xx_spdifrx.o ABSOLUTE
    ..\..\Libraries\STM32F4xx_StdPeriph_Driver\src\stm32f4xx_spi.c 0x00000000   Number         0  stm32f4xx_spi.o ABSOLUTE
    ..\..\Libraries\STM32F4xx_StdPeriph_Driver\src\stm32f4xx_syscfg.c 0x00000000   Number         0  stm32f4xx_syscfg.o ABSOLUTE
    ..\..\Libraries\STM32F4xx_StdPeriph_Driver\src\stm32f4xx_tim.c 0x00000000   Number         0  stm32f4xx_tim.o ABSOLUTE
    ..\..\Libraries\STM32F4xx_StdPeriph_Driver\src\stm32f4xx_usart.c 0x00000000   Number         0  stm32f4xx_usart.o ABSOLUTE
    ..\..\Libraries\STM32F4xx_StdPeriph_Driver\src\stm32f4xx_wwdg.c 0x00000000   Number         0  stm32f4xx_wwdg.o ABSOLUTE
    ..\..\User\Util.c                        0x00000000   Number         0  util.o ABSOLUTE
    ..\..\User\main.c                        0x00000000   Number         0  main.o ABSOLUTE
    ..\..\User\stm32f4xx_it.c                0x00000000   Number         0  stm32f4xx_it.o ABSOLUTE
    ..\..\bsp\BSP_EXIT.c                     0x00000000   Number         0  bsp_exit.o ABSOLUTE
    ..\..\bsp\BSP_Flash.c                    0x00000000   Number         0  bsp_flash.o ABSOLUTE
    ..\..\bsp\BSP_GPIO.c                     0x00000000   Number         0  bsp_gpio.o ABSOLUTE
    ..\..\bsp\BSP_IIC_SW.c                   0x00000000   Number         0  bsp_iic_sw.o ABSOLUTE
    ..\..\bsp\BSP_PWM.c                      0x00000000   Number         0  bsp_pwm.o ABSOLUTE
    ..\..\bsp\BSP_SPI_HW.c                   0x00000000   Number         0  bsp_spi_hw.o ABSOLUTE
    ..\..\bsp\BSP_Timer.c                    0x00000000   Number         0  bsp_timer.o ABSOLUTE
    ..\\..\\APP\\app_Init.c                  0x00000000   Number         0  app_init.o ABSOLUTE
    ..\\..\\APP\\direction.c                 0x00000000   Number         0  direction.o ABSOLUTE
    ..\\..\\APP\\gui.c                       0x00000000   Number         0  gui.o ABSOLUTE
    ..\\..\\APP\\key.c                       0x00000000   Number         0  key.o ABSOLUTE
    ..\\..\\APP\\meun.c                      0x00000000   Number         0  meun.o ABSOLUTE
    ..\\..\\APP\\moving.c                    0x00000000   Number         0  moving.o ABSOLUTE
    ..\\..\\APP\\oled.c                      0x00000000   Number         0  oled.o ABSOLUTE
    ..\\..\\APP\\trackDecisionLevel.c        0x00000000   Number         0  trackdecisionlevel.o ABSOLUTE
    ..\\..\\FreeRTOS\\port\\MemMang\\heap_4.c 0x00000000   Number         0  heap_4.o ABSOLUTE
    ..\\..\\FreeRTOS\\port\\RVDS\\ARM_CM4F\\port.c 0x00000000   Number         0  port.o ABSOLUTE
    ..\\..\\FreeRTOS\\src\\croutine.c        0x00000000   Number         0  croutine.o ABSOLUTE
    ..\\..\\FreeRTOS\\src\\event_groups.c    0x00000000   Number         0  event_groups.o ABSOLUTE
    ..\\..\\FreeRTOS\\src\\list.c            0x00000000   Number         0  list.o ABSOLUTE
    ..\\..\\FreeRTOS\\src\\queue.c           0x00000000   Number         0  queue.o ABSOLUTE
    ..\\..\\FreeRTOS\\src\\tasks.c           0x00000000   Number         0  tasks.o ABSOLUTE
    ..\\..\\FreeRTOS\\src\\timers.c          0x00000000   Number         0  timers.o ABSOLUTE
    ..\\..\\Libraries\\CMSIS\\Device\\ST\\STM32F4xx\\Source\\Templates\\system_stm32f4xx.c 0x00000000   Number         0  system_stm32f4xx.o ABSOLUTE
    ..\\..\\Libraries\\STM32F4xx_StdPeriph_Driver\\src\\misc.c 0x00000000   Number         0  misc.o ABSOLUTE
    ..\\..\\Libraries\\STM32F4xx_StdPeriph_Driver\\src\\stm32f4xx_adc.c 0x00000000   Number         0  stm32f4xx_adc.o ABSOLUTE
    ..\\..\\Libraries\\STM32F4xx_StdPeriph_Driver\\src\\stm32f4xx_can.c 0x00000000   Number         0  stm32f4xx_can.o ABSOLUTE
    ..\\..\\Libraries\\STM32F4xx_StdPeriph_Driver\\src\\stm32f4xx_cec.c 0x00000000   Number         0  stm32f4xx_cec.o ABSOLUTE
    ..\\..\\Libraries\\STM32F4xx_StdPeriph_Driver\\src\\stm32f4xx_crc.c 0x00000000   Number         0  stm32f4xx_crc.o ABSOLUTE
    ..\\..\\Libraries\\STM32F4xx_StdPeriph_Driver\\src\\stm32f4xx_cryp.c 0x00000000   Number         0  stm32f4xx_cryp.o ABSOLUTE
    ..\\..\\Libraries\\STM32F4xx_StdPeriph_Driver\\src\\stm32f4xx_cryp_aes.c 0x00000000   Number         0  stm32f4xx_cryp_aes.o ABSOLUTE
    ..\\..\\Libraries\\STM32F4xx_StdPeriph_Driver\\src\\stm32f4xx_cryp_des.c 0x00000000   Number         0  stm32f4xx_cryp_des.o ABSOLUTE
    ..\\..\\Libraries\\STM32F4xx_StdPeriph_Driver\\src\\stm32f4xx_cryp_tdes.c 0x00000000   Number         0  stm32f4xx_cryp_tdes.o ABSOLUTE
    ..\\..\\Libraries\\STM32F4xx_StdPeriph_Driver\\src\\stm32f4xx_dac.c 0x00000000   Number         0  stm32f4xx_dac.o ABSOLUTE
    ..\\..\\Libraries\\STM32F4xx_StdPeriph_Driver\\src\\stm32f4xx_dbgmcu.c 0x00000000   Number         0  stm32f4xx_dbgmcu.o ABSOLUTE
    ..\\..\\Libraries\\STM32F4xx_StdPeriph_Driver\\src\\stm32f4xx_dcmi.c 0x00000000   Number         0  stm32f4xx_dcmi.o ABSOLUTE
    ..\\..\\Libraries\\STM32F4xx_StdPeriph_Driver\\src\\stm32f4xx_dma.c 0x00000000   Number         0  stm32f4xx_dma.o ABSOLUTE
    ..\\..\\Libraries\\STM32F4xx_StdPeriph_Driver\\src\\stm32f4xx_dma2d.c 0x00000000   Number         0  stm32f4xx_dma2d.o ABSOLUTE
    ..\\..\\Libraries\\STM32F4xx_StdPeriph_Driver\\src\\stm32f4xx_exti.c 0x00000000   Number         0  stm32f4xx_exti.o ABSOLUTE
    ..\\..\\Libraries\\STM32F4xx_StdPeriph_Driver\\src\\stm32f4xx_flash.c 0x00000000   Number         0  stm32f4xx_flash.o ABSOLUTE
    ..\\..\\Libraries\\STM32F4xx_StdPeriph_Driver\\src\\stm32f4xx_flash_ramfunc.c 0x00000000   Number         0  stm32f4xx_flash_ramfunc.o ABSOLUTE
    ..\\..\\Libraries\\STM32F4xx_StdPeriph_Driver\\src\\stm32f4xx_fmpi2c.c 0x00000000   Number         0  stm32f4xx_fmpi2c.o ABSOLUTE
    ..\\..\\Libraries\\STM32F4xx_StdPeriph_Driver\\src\\stm32f4xx_gpio.c 0x00000000   Number         0  stm32f4xx_gpio.o ABSOLUTE
    ..\\..\\Libraries\\STM32F4xx_StdPeriph_Driver\\src\\stm32f4xx_hash.c 0x00000000   Number         0  stm32f4xx_hash.o ABSOLUTE
    ..\\..\\Libraries\\STM32F4xx_StdPeriph_Driver\\src\\stm32f4xx_hash_md5.c 0x00000000   Number         0  stm32f4xx_hash_md5.o ABSOLUTE
    ..\\..\\Libraries\\STM32F4xx_StdPeriph_Driver\\src\\stm32f4xx_hash_sha1.c 0x00000000   Number         0  stm32f4xx_hash_sha1.o ABSOLUTE
    ..\\..\\Libraries\\STM32F4xx_StdPeriph_Driver\\src\\stm32f4xx_i2c.c 0x00000000   Number         0  stm32f4xx_i2c.o ABSOLUTE
    ..\\..\\Libraries\\STM32F4xx_StdPeriph_Driver\\src\\stm32f4xx_iwdg.c 0x00000000   Number         0  stm32f4xx_iwdg.o ABSOLUTE
    ..\\..\\Libraries\\STM32F4xx_StdPeriph_Driver\\src\\stm32f4xx_ltdc.c 0x00000000   Number         0  stm32f4xx_ltdc.o ABSOLUTE
    ..\\..\\Libraries\\STM32F4xx_StdPeriph_Driver\\src\\stm32f4xx_pwr.c 0x00000000   Number         0  stm32f4xx_pwr.o ABSOLUTE
    ..\\..\\Libraries\\STM32F4xx_StdPeriph_Driver\\src\\stm32f4xx_qspi.c 0x00000000   Number         0  stm32f4xx_qspi.o ABSOLUTE
    ..\\..\\Libraries\\STM32F4xx_StdPeriph_Driver\\src\\stm32f4xx_rcc.c 0x00000000   Number         0  stm32f4xx_rcc.o ABSOLUTE
    ..\\..\\Libraries\\STM32F4xx_StdPeriph_Driver\\src\\stm32f4xx_rng.c 0x00000000   Number         0  stm32f4xx_rng.o ABSOLUTE
    ..\\..\\Libraries\\STM32F4xx_StdPeriph_Driver\\src\\stm32f4xx_rtc.c 0x00000000   Number         0  stm32f4xx_rtc.o ABSOLUTE
    ..\\..\\Libraries\\STM32F4xx_StdPeriph_Driver\\src\\stm32f4xx_sai.c 0x00000000   Number         0  stm32f4xx_sai.o ABSOLUTE
    ..\\..\\Libraries\\STM32F4xx_StdPeriph_Driver\\src\\stm32f4xx_sdio.c 0x00000000   Number         0  stm32f4xx_sdio.o ABSOLUTE
    ..\\..\\Libraries\\STM32F4xx_StdPeriph_Driver\\src\\stm32f4xx_spdifrx.c 0x00000000   Number         0  stm32f4xx_spdifrx.o ABSOLUTE
    ..\\..\\Libraries\\STM32F4xx_StdPeriph_Driver\\src\\stm32f4xx_spi.c 0x00000000   Number         0  stm32f4xx_spi.o ABSOLUTE
    ..\\..\\Libraries\\STM32F4xx_StdPeriph_Driver\\src\\stm32f4xx_syscfg.c 0x00000000   Number         0  stm32f4xx_syscfg.o ABSOLUTE
    ..\\..\\Libraries\\STM32F4xx_StdPeriph_Driver\\src\\stm32f4xx_tim.c 0x00000000   Number         0  stm32f4xx_tim.o ABSOLUTE
    ..\\..\\Libraries\\STM32F4xx_StdPeriph_Driver\\src\\stm32f4xx_usart.c 0x00000000   Number         0  stm32f4xx_usart.o ABSOLUTE
    ..\\..\\Libraries\\STM32F4xx_StdPeriph_Driver\\src\\stm32f4xx_wwdg.c 0x00000000   Number         0  stm32f4xx_wwdg.o ABSOLUTE
    ..\\..\\User\\Util.c                     0x00000000   Number         0  util.o ABSOLUTE
    ..\\..\\User\\main.c                     0x00000000   Number         0  main.o ABSOLUTE
    ..\\..\\User\\stm32f4xx_it.c             0x00000000   Number         0  stm32f4xx_it.o ABSOLUTE
    ..\\..\\bsp\\BSP_EXIT.c                  0x00000000   Number         0  bsp_exit.o ABSOLUTE
    ..\\..\\bsp\\BSP_Flash.c                 0x00000000   Number         0  bsp_flash.o ABSOLUTE
    ..\\..\\bsp\\BSP_GPIO.c                  0x00000000   Number         0  bsp_gpio.o ABSOLUTE
    ..\\..\\bsp\\BSP_IIC_SW.c                0x00000000   Number         0  bsp_iic_sw.o ABSOLUTE
    ..\\..\\bsp\\BSP_PWM.c                   0x00000000   Number         0  bsp_pwm.o ABSOLUTE
    ..\\..\\bsp\\BSP_SPI_HW.c                0x00000000   Number         0  bsp_spi_hw.o ABSOLUTE
    ..\\..\\bsp\\BSP_Timer.c                 0x00000000   Number         0  bsp_timer.o ABSOLUTE
    cdrcmple.s                               0x00000000   Number         0  cdrcmple.o ABSOLUTE
    dc.s                                     0x00000000   Number         0  dc.o ABSOLUTE
    handlers.s                               0x00000000   Number         0  handlers.o ABSOLUTE
    init.s                                   0x00000000   Number         0  init.o ABSOLUTE
    RESET                                    0x08000000   Section      392  startup_stm32f40_41xxx.o(RESET)
    .ARM.Collect$$$$00000000                 0x08000188   Section        0  entry.o(.ARM.Collect$$$$00000000)
    .ARM.Collect$$$$00000001                 0x08000188   Section        4  entry2.o(.ARM.Collect$$$$00000001)
    .ARM.Collect$$$$00000004                 0x0800018c   Section        4  entry5.o(.ARM.Collect$$$$00000004)
    .ARM.Collect$$$$00000008                 0x08000190   Section        0  entry7b.o(.ARM.Collect$$$$00000008)
    .ARM.Collect$$$$0000000A                 0x08000190   Section        0  entry8b.o(.ARM.Collect$$$$0000000A)
    .ARM.Collect$$$$0000000B                 0x08000190   Section        8  entry9a.o(.ARM.Collect$$$$0000000B)
    .ARM.Collect$$$$0000000D                 0x08000198   Section        0  entry10a.o(.ARM.Collect$$$$0000000D)
    .ARM.Collect$$$$0000000F                 0x08000198   Section        0  entry11a.o(.ARM.Collect$$$$0000000F)
    .ARM.Collect$$$$00002712                 0x08000198   Section        4  entry2.o(.ARM.Collect$$$$00002712)
    __lit__00000000                          0x08000198   Data           4  entry2.o(.ARM.Collect$$$$00002712)
    .emb_text                                0x0800019c   Section      182  port.o(.emb_text)
    $v0                                      0x0800019c   Number         0  port.o(.emb_text)
    .text                                    0x08000254   Section       36  startup_stm32f40_41xxx.o(.text)
    $v0                                      0x08000254   Number         0  startup_stm32f40_41xxx.o(.text)
    .text                                    0x08000278   Section        0  uldiv.o(.text)
    .text                                    0x080002dc   Section       36  init.o(.text)
    .text                                    0x08000300   Section        0  semi.o(.text)
    .text                                    0x08000300   Section        0  llshl.o(.text)
    .text                                    0x0800031e   Section        0  llushr.o(.text)
    .text                                    0x0800033e   Section        0  iusesemip.o(.text)
    i.Avoid_Check                            0x08000340   Section        0  moving.o(i.Avoid_Check)
    Avoid_Check                              0x08000341   Thumb Code    86  moving.o(i.Avoid_Check)
    i.BSP_FLASH_GetFlashSector               0x080003ac   Section        0  bsp_flash.o(i.BSP_FLASH_GetFlashSector)
    i.BSP_FLASH_Read                         0x0800044c   Section        0  bsp_flash.o(i.BSP_FLASH_Read)
    i.BSP_FLASH_ReadByte                     0x08000470   Section        0  bsp_flash.o(i.BSP_FLASH_ReadByte)
    BSP_FLASH_ReadByte                       0x08000471   Thumb Code     6  bsp_flash.o(i.BSP_FLASH_ReadByte)
    i.BSP_FLASH_Write                        0x08000478   Section        0  bsp_flash.o(i.BSP_FLASH_Write)
    i.BSP_GPIO_Init                          0x08000510   Section        0  bsp_gpio.o(i.BSP_GPIO_Init)
    i.BSP_GPIO_RCC_Init                      0x0800059c   Section        0  bsp_gpio.o(i.BSP_GPIO_RCC_Init)
    i.BSP_TIM1_PWM_Init                      0x08000638   Section        0  bsp_pwm.o(i.BSP_TIM1_PWM_Init)
    i.BSP_TIM_INT_Init                       0x0800074c   Section        0  bsp_timer.o(i.BSP_TIM_INT_Init)
    i.BSP_TIM_RCC_Init                       0x080007b0   Section        0  bsp_timer.o(i.BSP_TIM_RCC_Init)
    i.BusFault_Handler                       0x080008c8   Section        0  stm32f4xx_it.o(i.BusFault_Handler)
    i.DebugMon_Handler                       0x080008cc   Section        0  stm32f4xx_it.o(i.DebugMon_Handler)
    i.FLASH_DataCacheCmd                     0x080008d0   Section        0  stm32f4xx_flash.o(i.FLASH_DataCacheCmd)
    i.FLASH_EraseSector                      0x080008f4   Section        0  stm32f4xx_flash.o(i.FLASH_EraseSector)
    i.FLASH_GetStatus                        0x0800097c   Section        0  stm32f4xx_flash.o(i.FLASH_GetStatus)
    i.FLASH_Lock                             0x080009d0   Section        0  stm32f4xx_flash.o(i.FLASH_Lock)
    i.FLASH_ProgramWord                      0x080009e4   Section        0  stm32f4xx_flash.o(i.FLASH_ProgramWord)
    i.FLASH_Unlock                           0x08000a34   Section        0  stm32f4xx_flash.o(i.FLASH_Unlock)
    i.FLASH_WaitForLastOperation             0x08000a58   Section        0  stm32f4xx_flash.o(i.FLASH_WaitForLastOperation)
    i.GIMBAL_Update                          0x08000a7c   Section        0  moving.o(i.GIMBAL_Update)
    GIMBAL_Update                            0x08000a7d   Thumb Code   334  moving.o(i.GIMBAL_Update)
    i.GPIO_Init                              0x08000c18   Section        0  stm32f4xx_gpio.o(i.GPIO_Init)
    i.GPIO_PinAFConfig                       0x08000ca8   Section        0  stm32f4xx_gpio.o(i.GPIO_PinAFConfig)
    i.GPIO_ReadInputDataBit                  0x08000cee   Section        0  stm32f4xx_gpio.o(i.GPIO_ReadInputDataBit)
    i.Gimbal_GPIO_Init                       0x08000d00   Section        0  moving.o(i.Gimbal_GPIO_Init)
    Gimbal_GPIO_Init                         0x08000d01   Thumb Code   206  moving.o(i.Gimbal_GPIO_Init)
    i.HardFault_Handler                      0x08000e30   Section        0  stm32f4xx_it.o(i.HardFault_Handler)
    i.KEY_Init                               0x08000e34   Section        0  key.o(i.KEY_Init)
    i.KEY_Scan                               0x08000e84   Section        0  key.o(i.KEY_Scan)
    i.MemManage_Handler                      0x08000f98   Section        0  stm32f4xx_it.o(i.MemManage_Handler)
    i.NMI_Handler                            0x08000f9c   Section        0  stm32f4xx_it.o(i.NMI_Handler)
    i.NVIC_Init                              0x08000fa0   Section        0  misc.o(i.NVIC_Init)
    i.NVIC_PriorityGroupConfig               0x08001018   Section        0  misc.o(i.NVIC_PriorityGroupConfig)
    i.OLED_Clear                             0x0800102c   Section        0  oled.o(i.OLED_Clear)
    i.OLED_DrawPoint                         0x0800105c   Section        0  oled.o(i.OLED_DrawPoint)
    i.OLED_Fill                              0x080010c4   Section        0  oled.o(i.OLED_Fill)
    i.OLED_Init                              0x08001100   Section        0  oled.o(i.OLED_Init)
    i.OLED_Refresh_Gram                      0x0800126c   Section        0  oled.o(i.OLED_Refresh_Gram)
    i.OLED_ShowChar                          0x080012b8   Section        0  oled.o(i.OLED_ShowChar)
    i.OLED_ShowNum                           0x080013c4   Section        0  oled.o(i.OLED_ShowNum)
    i.OLED_ShowString                        0x08001458   Section        0  oled.o(i.OLED_ShowString)
    i.OLED_WR_Byte                           0x080014b8   Section        0  oled.o(i.OLED_WR_Byte)
    i.RCC_AHB1PeriphClockCmd                 0x08001514   Section        0  stm32f4xx_rcc.o(i.RCC_AHB1PeriphClockCmd)
    i.RCC_APB1PeriphClockCmd                 0x08001534   Section        0  stm32f4xx_rcc.o(i.RCC_APB1PeriphClockCmd)
    i.RCC_APB2PeriphClockCmd                 0x08001554   Section        0  stm32f4xx_rcc.o(i.RCC_APB2PeriphClockCmd)
    i.SetSysClock                            0x08001574   Section        0  system_stm32f4xx.o(i.SetSysClock)
    SetSysClock                              0x08001575   Thumb Code   220  system_stm32f4xx.o(i.SetSysClock)
    i.SysTick_Handler                        0x08001660   Section        0  stm32f4xx_it.o(i.SysTick_Handler)
    i.SystemInit                             0x08001670   Section        0  system_stm32f4xx.o(i.SystemInit)
    i.TIM3_IRQHandler                        0x080016d8   Section        0  trackdecisionlevel.o(i.TIM3_IRQHandler)
    i.TIM_ARRPreloadConfig                   0x08001714   Section        0  stm32f4xx_tim.o(i.TIM_ARRPreloadConfig)
    i.TIM_ClearITPendingBit                  0x0800172c   Section        0  stm32f4xx_tim.o(i.TIM_ClearITPendingBit)
    i.TIM_Cmd                                0x08001732   Section        0  stm32f4xx_tim.o(i.TIM_Cmd)
    i.TIM_CtrlPWMOutputs                     0x0800174a   Section        0  stm32f4xx_tim.o(i.TIM_CtrlPWMOutputs)
    i.TIM_GetITStatus                        0x08001768   Section        0  stm32f4xx_tim.o(i.TIM_GetITStatus)
    i.TIM_ITConfig                           0x0800178a   Section        0  stm32f4xx_tim.o(i.TIM_ITConfig)
    i.TIM_OC1Init                            0x0800179c   Section        0  stm32f4xx_tim.o(i.TIM_OC1Init)
    i.TIM_OC1PreloadConfig                   0x08001818   Section        0  stm32f4xx_tim.o(i.TIM_OC1PreloadConfig)
    i.TIM_OC2Init                            0x0800182c   Section        0  stm32f4xx_tim.o(i.TIM_OC2Init)
    i.TIM_OC2PreloadConfig                   0x080018d0   Section        0  stm32f4xx_tim.o(i.TIM_OC2PreloadConfig)
    i.TIM_OC3Init                            0x080018ec   Section        0  stm32f4xx_tim.o(i.TIM_OC3Init)
    i.TIM_OC3PreloadConfig                   0x0800198c   Section        0  stm32f4xx_tim.o(i.TIM_OC3PreloadConfig)
    i.TIM_SetCompare1                        0x0800199e   Section        0  stm32f4xx_tim.o(i.TIM_SetCompare1)
    i.TIM_SetCompare2                        0x080019a2   Section        0  stm32f4xx_tim.o(i.TIM_SetCompare2)
    i.TIM_SetCompare3                        0x080019a6   Section        0  stm32f4xx_tim.o(i.TIM_SetCompare3)
    i.TIM_TO_NVIC_IRQChannel                 0x080019ac   Section        0  bsp_timer.o(i.TIM_TO_NVIC_IRQChannel)
    i.TIM_TimeBaseInit                       0x08001a70   Section        0  stm32f4xx_tim.o(i.TIM_TimeBaseInit)
    i.Track_Parms_Init                       0x08001af4   Section        0  moving.o(i.Track_Parms_Init)
    Track_Parms_Init                         0x08001af5   Thumb Code   184  moving.o(i.Track_Parms_Init)
    i.UsageFault_Handler                     0x08001bec   Section        0  stm32f4xx_it.o(i.UsageFault_Handler)
    i.__0printf$8                            0x08001bf0   Section        0  printf8.o(i.__0printf$8)
    i.__scatterload_copy                     0x08001c10   Section       14  handlers.o(i.__scatterload_copy)
    i.__scatterload_null                     0x08001c1e   Section        2  handlers.o(i.__scatterload_null)
    i.__scatterload_zeroinit                 0x08001c20   Section       14  handlers.o(i.__scatterload_zeroinit)
    i._printf_core                           0x08001c30   Section        0  printf8.o(i._printf_core)
    _printf_core                             0x08001c31   Thumb Code   996  printf8.o(i._printf_core)
    i._printf_post_padding                   0x08002040   Section        0  printf8.o(i._printf_post_padding)
    _printf_post_padding                     0x08002041   Thumb Code    36  printf8.o(i._printf_post_padding)
    i._printf_pre_padding                    0x08002064   Section        0  printf8.o(i._printf_pre_padding)
    _printf_pre_padding                      0x08002065   Thumb Code    46  printf8.o(i._printf_pre_padding)
    i.appInit                                0x08002094   Section        0  app_init.o(i.appInit)
    i.backAlittle                            0x080020c8   Section        0  trackdecisionlevel.o(i.backAlittle)
    backAlittle                              0x080020c9   Thumb Code    34  trackdecisionlevel.o(i.backAlittle)
    i.carAvoidBack                           0x080020f4   Section        0  moving.o(i.carAvoidBack)
    carAvoidBack                             0x080020f5   Thumb Code   280  moving.o(i.carAvoidBack)
    i.carBack                                0x0800221c   Section        0  moving.o(i.carBack)
    carBack                                  0x0800221d   Thumb Code   280  moving.o(i.carBack)
    i.carCali                                0x08002344   Section        0  moving.o(i.carCali)
    carCali                                  0x08002345   Thumb Code   146  moving.o(i.carCali)
    i.carCalibration                         0x080023e8   Section        0  trackdecisionlevel.o(i.carCalibration)
    carCalibration                           0x080023e9   Thumb Code   106  trackdecisionlevel.o(i.carCalibration)
    i.carCareFul                             0x08002460   Section        0  moving.o(i.carCareFul)
    carCareFul                               0x08002461   Thumb Code   238  moving.o(i.carCareFul)
    i.carCommonTaskProcess                   0x08002560   Section        0  trackdecisionlevel.o(i.carCommonTaskProcess)
    carCommonTaskProcess                     0x08002561   Thumb Code    54  trackdecisionlevel.o(i.carCommonTaskProcess)
    i.carFollow                              0x0800259c   Section        0  moving.o(i.carFollow)
    carFollow                                0x0800259d   Thumb Code   526  moving.o(i.carFollow)
    i.carInformationInterFace                0x080027c8   Section        0  meun.o(i.carInformationInterFace)
    i.carLeft                                0x080028b8   Section        0  moving.o(i.carLeft)
    carLeft                                  0x080028b9   Thumb Code    36  moving.o(i.carLeft)
    i.carRight                               0x080028e8   Section        0  moving.o(i.carRight)
    carRight                                 0x080028e9   Thumb Code    36  moving.o(i.carRight)
    i.carSpecialTaskProcess                  0x08002918   Section        0  trackdecisionlevel.o(i.carSpecialTaskProcess)
    carSpecialTaskProcess                    0x08002919   Thumb Code    50  trackdecisionlevel.o(i.carSpecialTaskProcess)
    i.carStop                                0x08002950   Section        0  moving.o(i.carStop)
    carStop                                  0x08002951   Thumb Code    24  moving.o(i.carStop)
    i.catchDown                              0x0800296c   Section        0  trackdecisionlevel.o(i.catchDown)
    catchDown                                0x0800296d   Thumb Code    38  trackdecisionlevel.o(i.catchDown)
    i.catchUp                                0x0800299c   Section        0  trackdecisionlevel.o(i.catchUp)
    catchUp                                  0x0800299d   Thumb Code    38  trackdecisionlevel.o(i.catchUp)
    i.colorSwitchInterFace                   0x080029cc   Section        0  meun.o(i.colorSwitchInterFace)
    i.delay_ms                               0x08002ae8   Section        0  util.o(i.delay_ms)
    i.findTargetOne                          0x08002b04   Section        0  trackdecisionlevel.o(i.findTargetOne)
    findTargetOne                            0x08002b05   Thumb Code   900  trackdecisionlevel.o(i.findTargetOne)
    i.findTargetTwo                          0x08002e9c   Section        0  trackdecisionlevel.o(i.findTargetTwo)
    findTargetTwo                            0x08002e9d   Thumb Code   670  trackdecisionlevel.o(i.findTargetTwo)
    i.finishPush                             0x0800314c   Section        0  trackdecisionlevel.o(i.finishPush)
    finishPush                               0x0800314d   Thumb Code  1156  trackdecisionlevel.o(i.finishPush)
    i.flashInit                              0x080035e0   Section        0  app_init.o(i.flashInit)
    flashInit                                0x080035e1   Thumb Code   384  app_init.o(i.flashInit)
    i.fputc                                  0x08003770   Section        0  fputc.o(i.fputc)
    i.gimbal_Init                            0x08003784   Section        0  moving.o(i.gimbal_Init)
    i.goHome                                 0x080037b0   Section        0  trackdecisionlevel.o(i.goHome)
    goHome                                   0x080037b1   Thumb Code   346  trackdecisionlevel.o(i.goHome)
    i.guiInit                                0x0800391c   Section        0  app_init.o(i.guiInit)
    guiInit                                  0x0800391d   Thumb Code   112  app_init.o(i.guiInit)
    i.guiInit                                0x08003994   Section        0  gui.o(i.guiInit)
    i.guiTaskInit                            0x080039a0   Section        0  gui.o(i.guiTaskInit)
    i.guiUpdate                              0x080039c8   Section        0  gui.o(i.guiUpdate)
    i.main                                   0x080039e4   Section        0  main.o(i.main)
    i.mainInterFaceInit                      0x08003a18   Section        0  meun.o(i.mainInterFaceInit)
    i.meunInterFace                          0x08003a94   Section        0  meun.o(i.meunInterFace)
    i.meunTaskRun                            0x08003af8   Section        0  meun.o(i.meunTaskRun)
    i.mypow                                  0x0800437c   Section        0  oled.o(i.mypow)
    i.prvAddCurrentTaskToDelayedList         0x08004394   Section        0  tasks.o(i.prvAddCurrentTaskToDelayedList)
    prvAddCurrentTaskToDelayedList           0x08004395   Thumb Code   124  tasks.o(i.prvAddCurrentTaskToDelayedList)
    i.prvAddNewTaskToReadyList               0x0800442c   Section        0  tasks.o(i.prvAddNewTaskToReadyList)
    prvAddNewTaskToReadyList                 0x0800442d   Thumb Code   150  tasks.o(i.prvAddNewTaskToReadyList)
    i.prvCheckTasksWaitingTermination        0x080044e0   Section        0  tasks.o(i.prvCheckTasksWaitingTermination)
    prvCheckTasksWaitingTermination          0x080044e1   Thumb Code    86  tasks.o(i.prvCheckTasksWaitingTermination)
    i.prvDeleteTCB                           0x08004544   Section        0  tasks.o(i.prvDeleteTCB)
    prvDeleteTCB                             0x08004545   Thumb Code    18  tasks.o(i.prvDeleteTCB)
    i.prvHeapInit                            0x08004558   Section        0  heap_4.o(i.prvHeapInit)
    prvHeapInit                              0x08004559   Thumb Code    98  heap_4.o(i.prvHeapInit)
    i.prvIdleTask                            0x080045d4   Section        0  tasks.o(i.prvIdleTask)
    prvIdleTask                              0x080045d5   Thumb Code    32  tasks.o(i.prvIdleTask)
    i.prvInitialiseNewTask                   0x080045fc   Section        0  tasks.o(i.prvInitialiseNewTask)
    prvInitialiseNewTask                     0x080045fd   Thumb Code   154  tasks.o(i.prvInitialiseNewTask)
    i.prvInitialiseTaskLists                 0x080046c4   Section        0  tasks.o(i.prvInitialiseTaskLists)
    prvInitialiseTaskLists                   0x080046c5   Thumb Code    70  tasks.o(i.prvInitialiseTaskLists)
    i.prvInsertBlockIntoFreeList             0x0800472c   Section        0  heap_4.o(i.prvInsertBlockIntoFreeList)
    prvInsertBlockIntoFreeList               0x0800472d   Thumb Code    96  heap_4.o(i.prvInsertBlockIntoFreeList)
    i.prvResetNextTaskUnblockTime            0x08004794   Section        0  tasks.o(i.prvResetNextTaskUnblockTime)
    prvResetNextTaskUnblockTime              0x08004795   Thumb Code    42  tasks.o(i.prvResetNextTaskUnblockTime)
    i.prvTaskExitError                       0x080047c8   Section        0  port.o(i.prvTaskExitError)
    prvTaskExitError                         0x080047c9   Thumb Code    50  port.o(i.prvTaskExitError)
    i.pvPortMalloc                           0x0800483c   Section        0  heap_4.o(i.pvPortMalloc)
    i.pxPortInitialiseStack                  0x08004990   Section        0  port.o(i.pxPortInitialiseStack)
    i.saveCarSpeedInterFace                  0x080049bc   Section        0  meun.o(i.saveCarSpeedInterFace)
    i.setCarSpeedInterFace                   0x08004aa0   Section        0  meun.o(i.setCarSpeedInterFace)
    i.specialFindTarget                      0x08004bc0   Section        0  trackdecisionlevel.o(i.specialFindTarget)
    specialFindTarget                        0x08004bc1   Thumb Code   594  trackdecisionlevel.o(i.specialFindTarget)
    i.statusCheck                            0x08004e28   Section        0  trackdecisionlevel.o(i.statusCheck)
    statusCheck                              0x08004e29   Thumb Code  1532  trackdecisionlevel.o(i.statusCheck)
    i.taskInterFace                          0x08005468   Section        0  meun.o(i.taskInterFace)
    i.trackTaskInit                          0x080056bc   Section        0  trackdecisionlevel.o(i.trackTaskInit)
    i.trackTimeInit                          0x080056e8   Section        0  trackdecisionlevel.o(i.trackTimeInit)
    trackTimeInit                            0x080056e9   Thumb Code    24  trackdecisionlevel.o(i.trackTimeInit)
    i.trackUpdate                            0x08005704   Section        0  trackdecisionlevel.o(i.trackUpdate)
    trackUpdate                              0x08005705   Thumb Code   542  trackdecisionlevel.o(i.trackUpdate)
    i.tranSlation                            0x08005944   Section        0  trackdecisionlevel.o(i.tranSlation)
    tranSlation                              0x08005945   Thumb Code   956  trackdecisionlevel.o(i.tranSlation)
    i.uxListRemove                           0x08005d18   Section        0  list.o(i.uxListRemove)
    i.vListInitialise                        0x08005d40   Section        0  list.o(i.vListInitialise)
    i.vListInitialiseItem                    0x08005d5a   Section        0  list.o(i.vListInitialiseItem)
    i.vListInsert                            0x08005d60   Section        0  list.o(i.vListInsert)
    i.vListInsertEnd                         0x08005d94   Section        0  list.o(i.vListInsertEnd)
    i.vPortEnterCritical                     0x08005dac   Section        0  port.o(i.vPortEnterCritical)
    i.vPortExitCritical                      0x08005e34   Section        0  port.o(i.vPortExitCritical)
    i.vPortFree                              0x08005ea4   Section        0  heap_4.o(i.vPortFree)
    i.vPortSetupTimerInterrupt               0x08005f5c   Section        0  port.o(i.vPortSetupTimerInterrupt)
    i.vTaskDelay                             0x08005f70   Section        0  tasks.o(i.vTaskDelay)
    i.vTaskDelayUntil                        0x08005fec   Section        0  tasks.o(i.vTaskDelayUntil)
    i.vTaskDelete                            0x080060d0   Section        0  tasks.o(i.vTaskDelete)
    i.vTaskStartScheduler                    0x080061e4   Section        0  tasks.o(i.vTaskStartScheduler)
    i.vTaskSuspendAll                        0x08006290   Section        0  tasks.o(i.vTaskSuspendAll)
    i.vTaskSwitchContext                     0x080062a0   Section        0  tasks.o(i.vTaskSwitchContext)
    i.wheelSwitchInterFace                   0x08006350   Section        0  meun.o(i.wheelSwitchInterFace)
    i.xEventGroupCreate                      0x080063ac   Section        0  event_groups.o(i.xEventGroupCreate)
    i.xPortStartScheduler                    0x080063c8   Section        0  port.o(i.xPortStartScheduler)
    i.xPortSysTickHandler                    0x08006524   Section        0  port.o(i.xPortSysTickHandler)
    i.xTaskCreate                            0x08006558   Section        0  tasks.o(i.xTaskCreate)
    i.xTaskGetSchedulerState                 0x080065b8   Section        0  tasks.o(i.xTaskGetSchedulerState)
    i.xTaskGetTickCount                      0x080065d8   Section        0  tasks.o(i.xTaskGetTickCount)
    i.xTaskIncrementTick                     0x080065e4   Section        0  tasks.o(i.xTaskIncrementTick)
    i.xTaskResumeAll                         0x0800674c   Section        0  tasks.o(i.xTaskResumeAll)
    .constdata                               0x08006874   Section     1408  bsp_gpio.o(.constdata)
    .constdata                               0x08006df4   Section     6080  oled.o(.constdata)
    .conststring                             0x080085b4   Section       23  meun.o(.conststring)
    .data                                    0x20000000   Section       60  tasks.o(.data)
    pxDelayedTaskList                        0x20000004   Data           4  tasks.o(.data)
    pxOverflowDelayedTaskList                0x20000008   Data           4  tasks.o(.data)
    uxDeletedTasksWaitingCleanUp             0x2000000c   Data           4  tasks.o(.data)
    uxCurrentNumberOfTasks                   0x20000010   Data           4  tasks.o(.data)
    xTickCount                               0x20000014   Data           4  tasks.o(.data)
    uxTopReadyPriority                       0x20000018   Data           4  tasks.o(.data)
    xSchedulerRunning                        0x2000001c   Data           4  tasks.o(.data)
    uxPendedTicks                            0x20000020   Data           4  tasks.o(.data)
    xYieldPending                            0x20000024   Data           4  tasks.o(.data)
    xNumOfOverflows                          0x20000028   Data           4  tasks.o(.data)
    uxTaskNumber                             0x2000002c   Data           4  tasks.o(.data)
    xNextTaskUnblockTime                     0x20000030   Data           4  tasks.o(.data)
    xIdleTaskHandle                          0x20000034   Data           4  tasks.o(.data)
    uxSchedulerSuspended                     0x20000038   Data           4  tasks.o(.data)
    .data                                    0x2000003c   Section       24  heap_4.o(.data)
    xStart                                   0x2000003c   Data           8  heap_4.o(.data)
    pxEnd                                    0x20000044   Data           4  heap_4.o(.data)
    xFreeBytesRemaining                      0x20000048   Data           4  heap_4.o(.data)
    xMinimumEverFreeBytesRemaining           0x2000004c   Data           4  heap_4.o(.data)
    xBlockAllocatedBit                       0x20000050   Data           4  heap_4.o(.data)
    .data                                    0x20000054   Section       12  port.o(.data)
    uxCriticalNesting                        0x20000054   Data           4  port.o(.data)
    ucMaxSysCallPriority                     0x20000058   Data           1  port.o(.data)
    ulMaxPRIGROUPValue                       0x2000005c   Data           4  port.o(.data)
    .data                                    0x20000060   Section        8  bsp_gpio.o(.data)
    .data                                    0x20000068   Section        8  app_init.o(.data)
    .data                                    0x20000070   Section       24  meun.o(.data)
    nameColor                                0x20000070   Data          24  meun.o(.data)
    .data                                    0x20000088   Section        2  key.o(.data)
    startUp                                  0x20000088   Data           1  key.o(.data)
    key_up                                   0x20000089   Data           1  key.o(.data)
    .data                                    0x2000008c   Section       72  moving.o(.data)
    motor_flag                               0x2000008c   Data           1  moving.o(.data)
    follow_common_speed_l                    0x20000090   Data           4  moving.o(.data)
    follow_common_speed_r                    0x20000094   Data           4  moving.o(.data)
    back_common_speed_l                      0x20000098   Data           4  moving.o(.data)
    back_common_speed_r                      0x2000009c   Data           4  moving.o(.data)
    cali_common_speed_l                      0x200000a0   Data           4  moving.o(.data)
    cali_common_speed_r                      0x200000a4   Data           4  moving.o(.data)
    careful_common_speed_l                   0x200000a8   Data           4  moving.o(.data)
    careful_common_speed_r                   0x200000ac   Data           4  moving.o(.data)
    left_common_speed_l                      0x200000b0   Data           4  moving.o(.data)
    left_common_speed_r                      0x200000b4   Data           4  moving.o(.data)
    right_common_speed_l                     0x200000b8   Data           4  moving.o(.data)
    right_common_speed_r                     0x200000bc   Data           4  moving.o(.data)
    avoid_common_speed_l                     0x200000c0   Data           4  moving.o(.data)
    avoid_common_speed_r                     0x200000c4   Data           4  moving.o(.data)
    follow_status                            0x200000c8   Data           1  moving.o(.data)
    lastAvoidFlag                            0x200000d0   Data           1  moving.o(.data)
    lastCarStatus                            0x200000d2   Data           2  moving.o(.data)
    .data                                    0x200000d4   Section       60  trackdecisionlevel.o(.data)
    lastLineStatus                           0x200000d4   Data           2  trackdecisionlevel.o(.data)
    thisLineStatus                           0x200000d6   Data           2  trackdecisionlevel.o(.data)
    lastRotateStatus                         0x200000d8   Data           2  trackdecisionlevel.o(.data)
    thisRotateStatus                         0x200000da   Data           2  trackdecisionlevel.o(.data)
    rotateCnt                                0x200000dc   Data           2  trackdecisionlevel.o(.data)
    timeFilter                               0x200000e0   Data           4  trackdecisionlevel.o(.data)
    lastTime                                 0x200000e4   Data           4  trackdecisionlevel.o(.data)
    thisTime                                 0x200000e8   Data           4  trackdecisionlevel.o(.data)
    lastCarStatus                            0x200000ec   Data           2  trackdecisionlevel.o(.data)
    startFlag                                0x200000ee   Data           1  trackdecisionlevel.o(.data)
    sensorPushCheckoutCnt                    0x200000f0   Data           2  trackdecisionlevel.o(.data)
    lastSensor1CheckStatus                   0x200000f2   Data           2  trackdecisionlevel.o(.data)
    thisSensor1CheckStatus                   0x200000f4   Data           2  trackdecisionlevel.o(.data)
    lastSensor2CheckStatus                   0x200000f6   Data           2  trackdecisionlevel.o(.data)
    thisSensor2CheckStatus                   0x200000f8   Data           2  trackdecisionlevel.o(.data)
    lastSensor3CheckStatus                   0x200000fa   Data           2  trackdecisionlevel.o(.data)
    thisSensor3CheckStatus                   0x200000fc   Data           2  trackdecisionlevel.o(.data)
    lastSensor4CheckStatus                   0x200000fe   Data           2  trackdecisionlevel.o(.data)
    thisSensor4CheckStatus                   0x20000100   Data           2  trackdecisionlevel.o(.data)
    stayTimeFlag                             0x20000102   Data           1  trackdecisionlevel.o(.data)
    isBackAlittle                            0x20000103   Data           1  trackdecisionlevel.o(.data)
    lastLineL                                0x20000104   Data           1  trackdecisionlevel.o(.data)
    lastLineR                                0x20000105   Data           1  trackdecisionlevel.o(.data)
    testFlag                                 0x20000106   Data           1  trackdecisionlevel.o(.data)
    filterCntWhite                           0x20000108   Data           4  trackdecisionlevel.o(.data)
    filterCntBlack                           0x2000010c   Data           4  trackdecisionlevel.o(.data)
    .data                                    0x20000110   Section        4  stdout.o(.data)
    .bss                                     0x20000114   Section      740  tasks.o(.bss)
    pxReadyTasksLists                        0x20000114   Data         640  tasks.o(.bss)
    xDelayedTaskList1                        0x20000394   Data          20  tasks.o(.bss)
    xDelayedTaskList2                        0x200003a8   Data          20  tasks.o(.bss)
    xPendingReadyList                        0x200003bc   Data          20  tasks.o(.bss)
    xTasksWaitingTermination                 0x200003d0   Data          20  tasks.o(.bss)
    xSuspendedTaskList                       0x200003e4   Data          20  tasks.o(.bss)
    .bss                                     0x200003f8   Section    36864  heap_4.o(.bss)
    ucHeap                                   0x200003f8   Data       36864  heap_4.o(.bss)
    .bss                                     0x200093f8   Section      186  app_init.o(.bss)
    .bss                                     0x200094b2   Section     1024  oled.o(.bss)
    STACK                                    0x200098b8   Section     1024  startup_stm32f40_41xxx.o(STACK)

    Global Symbols

    Symbol Name                              Value     Ov Type        Size  Object(Section)

    BuildAttributes$$THM_ISAv4$E$P$D$K$B$S$7EM$VFPi3$EXTD16$VFPS$VFMA$PE$A:L22UL41UL21$X:L11$S22US41US21$IEEE1$IW$USESV6$~STKCKD$USESV7$~SHL$OTIME$ROPI$IEEEX$EBA8$MICROLIB$REQ8$PRES8$EABIv2 0x00000000   Number         0  anon$$obj.o ABSOLUTE
    __ARM_use_no_argv                        0x00000000   Number         0  main.o ABSOLUTE
    _printf_a                                0x00000000   Number         0  stubs.o ABSOLUTE
    _printf_c                                0x00000000   Number         0  stubs.o ABSOLUTE
    _printf_charcount                        0x00000000   Number         0  stubs.o ABSOLUTE
    _printf_d                                0x00000000   Number         0  stubs.o ABSOLUTE
    _printf_e                                0x00000000   Number         0  stubs.o ABSOLUTE
    _printf_f                                0x00000000   Number         0  stubs.o ABSOLUTE
    _printf_flags                            0x00000000   Number         0  stubs.o ABSOLUTE
    _printf_fp_dec                           0x00000000   Number         0  stubs.o ABSOLUTE
    _printf_fp_hex                           0x00000000   Number         0  stubs.o ABSOLUTE
    _printf_g                                0x00000000   Number         0  stubs.o ABSOLUTE
    _printf_i                                0x00000000   Number         0  stubs.o ABSOLUTE
    _printf_int_dec                          0x00000000   Number         0  stubs.o ABSOLUTE
    _printf_l                                0x00000000   Number         0  stubs.o ABSOLUTE
    _printf_lc                               0x00000000   Number         0  stubs.o ABSOLUTE
    _printf_ll                               0x00000000   Number         0  stubs.o ABSOLUTE
    _printf_lld                              0x00000000   Number         0  stubs.o ABSOLUTE
    _printf_lli                              0x00000000   Number         0  stubs.o ABSOLUTE
    _printf_llo                              0x00000000   Number         0  stubs.o ABSOLUTE
    _printf_llu                              0x00000000   Number         0  stubs.o ABSOLUTE
    _printf_llx                              0x00000000   Number         0  stubs.o ABSOLUTE
    _printf_longlong_dec                     0x00000000   Number         0  stubs.o ABSOLUTE
    _printf_longlong_hex                     0x00000000   Number         0  stubs.o ABSOLUTE
    _printf_longlong_oct                     0x00000000   Number         0  stubs.o ABSOLUTE
    _printf_ls                               0x00000000   Number         0  stubs.o ABSOLUTE
    _printf_mbtowc                           0x00000000   Number         0  stubs.o ABSOLUTE
    _printf_n                                0x00000000   Number         0  stubs.o ABSOLUTE
    _printf_o                                0x00000000   Number         0  stubs.o ABSOLUTE
    _printf_p                                0x00000000   Number         0  stubs.o ABSOLUTE
    _printf_percent                          0x00000000   Number         0  stubs.o ABSOLUTE
    _printf_pre_padding                      0x00000000   Number         0  stubs.o ABSOLUTE
    _printf_return_value                     0x00000000   Number         0  stubs.o ABSOLUTE
    _printf_s                                0x00000000   Number         0  stubs.o ABSOLUTE
    _printf_sizespec                         0x00000000   Number         0  stubs.o ABSOLUTE
    _printf_str                              0x00000000   Number         0  stubs.o ABSOLUTE
    _printf_truncate_signed                  0x00000000   Number         0  stubs.o ABSOLUTE
    _printf_truncate_unsigned                0x00000000   Number         0  stubs.o ABSOLUTE
    _printf_u                                0x00000000   Number         0  stubs.o ABSOLUTE
    _printf_wc                               0x00000000   Number         0  stubs.o ABSOLUTE
    _printf_wctomb                           0x00000000   Number         0  stubs.o ABSOLUTE
    _printf_widthprec                        0x00000000   Number         0  stubs.o ABSOLUTE
    _printf_x                                0x00000000   Number         0  stubs.o ABSOLUTE
    __cpp_initialize__aeabi_                  - Undefined Weak Reference
    __cxa_finalize                            - Undefined Weak Reference
    __decompress                              - Undefined Weak Reference
    _clock_init                               - Undefined Weak Reference
    _microlib_exit                            - Undefined Weak Reference
    __Vectors_Size                           0x00000188   Number         0  startup_stm32f40_41xxx.o ABSOLUTE
    __Vectors                                0x08000000   Data           4  startup_stm32f40_41xxx.o(RESET)
    __Vectors_End                            0x08000188   Data           0  startup_stm32f40_41xxx.o(RESET)
    __main                                   0x08000189   Thumb Code     0  entry.o(.ARM.Collect$$$$00000000)
    _main_stk                                0x08000189   Thumb Code     0  entry2.o(.ARM.Collect$$$$00000001)
    _main_scatterload                        0x0800018d   Thumb Code     0  entry5.o(.ARM.Collect$$$$00000004)
    __main_after_scatterload                 0x08000191   Thumb Code     0  entry5.o(.ARM.Collect$$$$00000004)
    _main_clock                              0x08000191   Thumb Code     0  entry7b.o(.ARM.Collect$$$$00000008)
    _main_cpp_init                           0x08000191   Thumb Code     0  entry8b.o(.ARM.Collect$$$$0000000A)
    _main_init                               0x08000191   Thumb Code     0  entry9a.o(.ARM.Collect$$$$0000000B)
    __rt_final_cpp                           0x08000199   Thumb Code     0  entry10a.o(.ARM.Collect$$$$0000000D)
    __rt_final_exit                          0x08000199   Thumb Code     0  entry11a.o(.ARM.Collect$$$$0000000F)
    SVC_Handler                              0x0800019d   Thumb Code    28  port.o(.emb_text)
    __asm___6_port_c_39a90d8d__prvStartFirstTask 0x080001bd   Thumb Code    28  port.o(.emb_text)
    __asm___6_port_c_39a90d8d__prvEnableVFP  0x080001dd   Thumb Code    16  port.o(.emb_text)
    PendSV_Handler                           0x080001f1   Thumb Code    88  port.o(.emb_text)
    vPortGetIPSR                             0x0800024d   Thumb Code     6  port.o(.emb_text)
    Reset_Handler                            0x08000255   Thumb Code     8  startup_stm32f40_41xxx.o(.text)
    ADC_IRQHandler                           0x0800026f   Thumb Code     0  startup_stm32f40_41xxx.o(.text)
    CAN1_RX0_IRQHandler                      0x0800026f   Thumb Code     0  startup_stm32f40_41xxx.o(.text)
    CAN1_RX1_IRQHandler                      0x0800026f   Thumb Code     0  startup_stm32f40_41xxx.o(.text)
    CAN1_SCE_IRQHandler                      0x0800026f   Thumb Code     0  startup_stm32f40_41xxx.o(.text)
    CAN1_TX_IRQHandler                       0x0800026f   Thumb Code     0  startup_stm32f40_41xxx.o(.text)
    CAN2_RX0_IRQHandler                      0x0800026f   Thumb Code     0  startup_stm32f40_41xxx.o(.text)
    CAN2_RX1_IRQHandler                      0x0800026f   Thumb Code     0  startup_stm32f40_41xxx.o(.text)
    CAN2_SCE_IRQHandler                      0x0800026f   Thumb Code     0  startup_stm32f40_41xxx.o(.text)
    CAN2_TX_IRQHandler                       0x0800026f   Thumb Code     0  startup_stm32f40_41xxx.o(.text)
    CRYP_IRQHandler                          0x0800026f   Thumb Code     0  startup_stm32f40_41xxx.o(.text)
    DCMI_IRQHandler                          0x0800026f   Thumb Code     0  startup_stm32f40_41xxx.o(.text)
    DMA1_Stream0_IRQHandler                  0x0800026f   Thumb Code     0  startup_stm32f40_41xxx.o(.text)
    DMA1_Stream1_IRQHandler                  0x0800026f   Thumb Code     0  startup_stm32f40_41xxx.o(.text)
    DMA1_Stream2_IRQHandler                  0x0800026f   Thumb Code     0  startup_stm32f40_41xxx.o(.text)
    DMA1_Stream3_IRQHandler                  0x0800026f   Thumb Code     0  startup_stm32f40_41xxx.o(.text)
    DMA1_Stream4_IRQHandler                  0x0800026f   Thumb Code     0  startup_stm32f40_41xxx.o(.text)
    DMA1_Stream5_IRQHandler                  0x0800026f   Thumb Code     0  startup_stm32f40_41xxx.o(.text)
    DMA1_Stream6_IRQHandler                  0x0800026f   Thumb Code     0  startup_stm32f40_41xxx.o(.text)
    DMA1_Stream7_IRQHandler                  0x0800026f   Thumb Code     0  startup_stm32f40_41xxx.o(.text)
    DMA2_Stream0_IRQHandler                  0x0800026f   Thumb Code     0  startup_stm32f40_41xxx.o(.text)
    DMA2_Stream1_IRQHandler                  0x0800026f   Thumb Code     0  startup_stm32f40_41xxx.o(.text)
    DMA2_Stream2_IRQHandler                  0x0800026f   Thumb Code     0  startup_stm32f40_41xxx.o(.text)
    DMA2_Stream3_IRQHandler                  0x0800026f   Thumb Code     0  startup_stm32f40_41xxx.o(.text)
    DMA2_Stream4_IRQHandler                  0x0800026f   Thumb Code     0  startup_stm32f40_41xxx.o(.text)
    DMA2_Stream5_IRQHandler                  0x0800026f   Thumb Code     0  startup_stm32f40_41xxx.o(.text)
    DMA2_Stream6_IRQHandler                  0x0800026f   Thumb Code     0  startup_stm32f40_41xxx.o(.text)
    DMA2_Stream7_IRQHandler                  0x0800026f   Thumb Code     0  startup_stm32f40_41xxx.o(.text)
    ETH_IRQHandler                           0x0800026f   Thumb Code     0  startup_stm32f40_41xxx.o(.text)
    ETH_WKUP_IRQHandler                      0x0800026f   Thumb Code     0  startup_stm32f40_41xxx.o(.text)
    EXTI0_IRQHandler                         0x0800026f   Thumb Code     0  startup_stm32f40_41xxx.o(.text)
    EXTI15_10_IRQHandler                     0x0800026f   Thumb Code     0  startup_stm32f40_41xxx.o(.text)
    EXTI1_IRQHandler                         0x0800026f   Thumb Code     0  startup_stm32f40_41xxx.o(.text)
    EXTI2_IRQHandler                         0x0800026f   Thumb Code     0  startup_stm32f40_41xxx.o(.text)
    EXTI3_IRQHandler                         0x0800026f   Thumb Code     0  startup_stm32f40_41xxx.o(.text)
    EXTI4_IRQHandler                         0x0800026f   Thumb Code     0  startup_stm32f40_41xxx.o(.text)
    EXTI9_5_IRQHandler                       0x0800026f   Thumb Code     0  startup_stm32f40_41xxx.o(.text)
    FLASH_IRQHandler                         0x0800026f   Thumb Code     0  startup_stm32f40_41xxx.o(.text)
    FPU_IRQHandler                           0x0800026f   Thumb Code     0  startup_stm32f40_41xxx.o(.text)
    FSMC_IRQHandler                          0x0800026f   Thumb Code     0  startup_stm32f40_41xxx.o(.text)
    HASH_RNG_IRQHandler                      0x0800026f   Thumb Code     0  startup_stm32f40_41xxx.o(.text)
    I2C1_ER_IRQHandler                       0x0800026f   Thumb Code     0  startup_stm32f40_41xxx.o(.text)
    I2C1_EV_IRQHandler                       0x0800026f   Thumb Code     0  startup_stm32f40_41xxx.o(.text)
    I2C2_ER_IRQHandler                       0x0800026f   Thumb Code     0  startup_stm32f40_41xxx.o(.text)
    I2C2_EV_IRQHandler                       0x0800026f   Thumb Code     0  startup_stm32f40_41xxx.o(.text)
    I2C3_ER_IRQHandler                       0x0800026f   Thumb Code     0  startup_stm32f40_41xxx.o(.text)
    I2C3_EV_IRQHandler                       0x0800026f   Thumb Code     0  startup_stm32f40_41xxx.o(.text)
    OTG_FS_IRQHandler                        0x0800026f   Thumb Code     0  startup_stm32f40_41xxx.o(.text)
    OTG_FS_WKUP_IRQHandler                   0x0800026f   Thumb Code     0  startup_stm32f40_41xxx.o(.text)
    OTG_HS_EP1_IN_IRQHandler                 0x0800026f   Thumb Code     0  startup_stm32f40_41xxx.o(.text)
    OTG_HS_EP1_OUT_IRQHandler                0x0800026f   Thumb Code     0  startup_stm32f40_41xxx.o(.text)
    OTG_HS_IRQHandler                        0x0800026f   Thumb Code     0  startup_stm32f40_41xxx.o(.text)
    OTG_HS_WKUP_IRQHandler                   0x0800026f   Thumb Code     0  startup_stm32f40_41xxx.o(.text)
    PVD_IRQHandler                           0x0800026f   Thumb Code     0  startup_stm32f40_41xxx.o(.text)
    RCC_IRQHandler                           0x0800026f   Thumb Code     0  startup_stm32f40_41xxx.o(.text)
    RTC_Alarm_IRQHandler                     0x0800026f   Thumb Code     0  startup_stm32f40_41xxx.o(.text)
    RTC_WKUP_IRQHandler                      0x0800026f   Thumb Code     0  startup_stm32f40_41xxx.o(.text)
    SDIO_IRQHandler                          0x0800026f   Thumb Code     0  startup_stm32f40_41xxx.o(.text)
    SPI1_IRQHandler                          0x0800026f   Thumb Code     0  startup_stm32f40_41xxx.o(.text)
    SPI2_IRQHandler                          0x0800026f   Thumb Code     0  startup_stm32f40_41xxx.o(.text)
    SPI3_IRQHandler                          0x0800026f   Thumb Code     0  startup_stm32f40_41xxx.o(.text)
    TAMP_STAMP_IRQHandler                    0x0800026f   Thumb Code     0  startup_stm32f40_41xxx.o(.text)
    TIM1_BRK_TIM9_IRQHandler                 0x0800026f   Thumb Code     0  startup_stm32f40_41xxx.o(.text)
    TIM1_CC_IRQHandler                       0x0800026f   Thumb Code     0  startup_stm32f40_41xxx.o(.text)
    TIM1_TRG_COM_TIM11_IRQHandler            0x0800026f   Thumb Code     0  startup_stm32f40_41xxx.o(.text)
    TIM1_UP_TIM10_IRQHandler                 0x0800026f   Thumb Code     0  startup_stm32f40_41xxx.o(.text)
    TIM2_IRQHandler                          0x0800026f   Thumb Code     0  startup_stm32f40_41xxx.o(.text)
    TIM4_IRQHandler                          0x0800026f   Thumb Code     0  startup_stm32f40_41xxx.o(.text)
    TIM5_IRQHandler                          0x0800026f   Thumb Code     0  startup_stm32f40_41xxx.o(.text)
    TIM6_DAC_IRQHandler                      0x0800026f   Thumb Code     0  startup_stm32f40_41xxx.o(.text)
    TIM7_IRQHandler                          0x0800026f   Thumb Code     0  startup_stm32f40_41xxx.o(.text)
    TIM8_BRK_TIM12_IRQHandler                0x0800026f   Thumb Code     0  startup_stm32f40_41xxx.o(.text)
    TIM8_CC_IRQHandler                       0x0800026f   Thumb Code     0  startup_stm32f40_41xxx.o(.text)
    TIM8_TRG_COM_TIM14_IRQHandler            0x0800026f   Thumb Code     0  startup_stm32f40_41xxx.o(.text)
    TIM8_UP_TIM13_IRQHandler                 0x0800026f   Thumb Code     0  startup_stm32f40_41xxx.o(.text)
    UART4_IRQHandler                         0x0800026f   Thumb Code     0  startup_stm32f40_41xxx.o(.text)
    UART5_IRQHandler                         0x0800026f   Thumb Code     0  startup_stm32f40_41xxx.o(.text)
    USART1_IRQHandler                        0x0800026f   Thumb Code     0  startup_stm32f40_41xxx.o(.text)
    USART2_IRQHandler                        0x0800026f   Thumb Code     0  startup_stm32f40_41xxx.o(.text)
    USART3_IRQHandler                        0x0800026f   Thumb Code     0  startup_stm32f40_41xxx.o(.text)
    USART6_IRQHandler                        0x0800026f   Thumb Code     0  startup_stm32f40_41xxx.o(.text)
    WWDG_IRQHandler                          0x0800026f   Thumb Code     0  startup_stm32f40_41xxx.o(.text)
    __aeabi_uldivmod                         0x08000279   Thumb Code    98  uldiv.o(.text)
    __scatterload                            0x080002dd   Thumb Code    28  init.o(.text)
    __scatterload_rt2                        0x080002dd   Thumb Code     0  init.o(.text)
    __aeabi_llsl                             0x08000301   Thumb Code    30  llshl.o(.text)
    __semihosting_library_function           0x08000301   Thumb Code     0  semi.o(.text)
    _ll_shift_l                              0x08000301   Thumb Code     0  llshl.o(.text)
    __aeabi_llsr                             0x0800031f   Thumb Code    32  llushr.o(.text)
    _ll_ushift_r                             0x0800031f   Thumb Code     0  llushr.o(.text)
    __I$use$semihosting$fputc                0x0800033f   Thumb Code     0  iusesemip.o(.text)
    BSP_FLASH_GetFlashSector                 0x080003ad   Thumb Code   116  bsp_flash.o(i.BSP_FLASH_GetFlashSector)
    BSP_FLASH_Read                           0x0800044d   Thumb Code    36  bsp_flash.o(i.BSP_FLASH_Read)
    BSP_FLASH_Write                          0x08000479   Thumb Code   146  bsp_flash.o(i.BSP_FLASH_Write)
    BSP_GPIO_Init                            0x08000511   Thumb Code   136  bsp_gpio.o(i.BSP_GPIO_Init)
    BSP_GPIO_RCC_Init                        0x0800059d   Thumb Code   120  bsp_gpio.o(i.BSP_GPIO_RCC_Init)
    BSP_TIM1_PWM_Init                        0x08000639   Thumb Code   266  bsp_pwm.o(i.BSP_TIM1_PWM_Init)
    BSP_TIM_INT_Init                         0x0800074d   Thumb Code    98  bsp_timer.o(i.BSP_TIM_INT_Init)
    BSP_TIM_RCC_Init                         0x080007b1   Thumb Code   228  bsp_timer.o(i.BSP_TIM_RCC_Init)
    BusFault_Handler                         0x080008c9   Thumb Code     4  stm32f4xx_it.o(i.BusFault_Handler)
    DebugMon_Handler                         0x080008cd   Thumb Code     2  stm32f4xx_it.o(i.DebugMon_Handler)
    FLASH_DataCacheCmd                       0x080008d1   Thumb Code    30  stm32f4xx_flash.o(i.FLASH_DataCacheCmd)
    FLASH_EraseSector                        0x080008f5   Thumb Code   130  stm32f4xx_flash.o(i.FLASH_EraseSector)
    FLASH_GetStatus                          0x0800097d   Thumb Code    80  stm32f4xx_flash.o(i.FLASH_GetStatus)
    FLASH_Lock                               0x080009d1   Thumb Code    14  stm32f4xx_flash.o(i.FLASH_Lock)
    FLASH_ProgramWord                        0x080009e5   Thumb Code    74  stm32f4xx_flash.o(i.FLASH_ProgramWord)
    FLASH_Unlock                             0x08000a35   Thumb Code    24  stm32f4xx_flash.o(i.FLASH_Unlock)
    FLASH_WaitForLastOperation               0x08000a59   Thumb Code    34  stm32f4xx_flash.o(i.FLASH_WaitForLastOperation)
    GPIO_Init                                0x08000c19   Thumb Code   144  stm32f4xx_gpio.o(i.GPIO_Init)
    GPIO_PinAFConfig                         0x08000ca9   Thumb Code    70  stm32f4xx_gpio.o(i.GPIO_PinAFConfig)
    GPIO_ReadInputDataBit                    0x08000cef   Thumb Code    18  stm32f4xx_gpio.o(i.GPIO_ReadInputDataBit)
    HardFault_Handler                        0x08000e31   Thumb Code     4  stm32f4xx_it.o(i.HardFault_Handler)
    KEY_Init                                 0x08000e35   Thumb Code    68  key.o(i.KEY_Init)
    KEY_Scan                                 0x08000e85   Thumb Code   256  key.o(i.KEY_Scan)
    MemManage_Handler                        0x08000f99   Thumb Code     4  stm32f4xx_it.o(i.MemManage_Handler)
    NMI_Handler                              0x08000f9d   Thumb Code     2  stm32f4xx_it.o(i.NMI_Handler)
    NVIC_Init                                0x08000fa1   Thumb Code   106  misc.o(i.NVIC_Init)
    NVIC_PriorityGroupConfig                 0x08001019   Thumb Code    10  misc.o(i.NVIC_PriorityGroupConfig)
    OLED_Clear                               0x0800102d   Thumb Code    42  oled.o(i.OLED_Clear)
    OLED_DrawPoint                           0x0800105d   Thumb Code   100  oled.o(i.OLED_DrawPoint)
    OLED_Fill                                0x080010c5   Thumb Code    58  oled.o(i.OLED_Fill)
    OLED_Init                                0x08001101   Thumb Code   332  oled.o(i.OLED_Init)
    OLED_Refresh_Gram                        0x0800126d   Thumb Code    70  oled.o(i.OLED_Refresh_Gram)
    OLED_ShowChar                            0x080012b9   Thumb Code   254  oled.o(i.OLED_ShowChar)
    OLED_ShowNum                             0x080013c5   Thumb Code   148  oled.o(i.OLED_ShowNum)
    OLED_ShowString                          0x08001459   Thumb Code    94  oled.o(i.OLED_ShowString)
    OLED_WR_Byte                             0x080014b9   Thumb Code    80  oled.o(i.OLED_WR_Byte)
    RCC_AHB1PeriphClockCmd                   0x08001515   Thumb Code    26  stm32f4xx_rcc.o(i.RCC_AHB1PeriphClockCmd)
    RCC_APB1PeriphClockCmd                   0x08001535   Thumb Code    26  stm32f4xx_rcc.o(i.RCC_APB1PeriphClockCmd)
    RCC_APB2PeriphClockCmd                   0x08001555   Thumb Code    26  stm32f4xx_rcc.o(i.RCC_APB2PeriphClockCmd)
    SysTick_Handler                          0x08001661   Thumb Code    16  stm32f4xx_it.o(i.SysTick_Handler)
    SystemInit                               0x08001671   Thumb Code    88  system_stm32f4xx.o(i.SystemInit)
    TIM3_IRQHandler                          0x080016d9   Thumb Code    52  trackdecisionlevel.o(i.TIM3_IRQHandler)
    TIM_ARRPreloadConfig                     0x08001715   Thumb Code    24  stm32f4xx_tim.o(i.TIM_ARRPreloadConfig)
    TIM_ClearITPendingBit                    0x0800172d   Thumb Code     6  stm32f4xx_tim.o(i.TIM_ClearITPendingBit)
    TIM_Cmd                                  0x08001733   Thumb Code    24  stm32f4xx_tim.o(i.TIM_Cmd)
    TIM_CtrlPWMOutputs                       0x0800174b   Thumb Code    30  stm32f4xx_tim.o(i.TIM_CtrlPWMOutputs)
    TIM_GetITStatus                          0x08001769   Thumb Code    34  stm32f4xx_tim.o(i.TIM_GetITStatus)
    TIM_ITConfig                             0x0800178b   Thumb Code    18  stm32f4xx_tim.o(i.TIM_ITConfig)
    TIM_OC1Init                              0x0800179d   Thumb Code   114  stm32f4xx_tim.o(i.TIM_OC1Init)
    TIM_OC1PreloadConfig                     0x08001819   Thumb Code    18  stm32f4xx_tim.o(i.TIM_OC1PreloadConfig)
    TIM_OC2Init                              0x0800182d   Thumb Code   154  stm32f4xx_tim.o(i.TIM_OC2Init)
    TIM_OC2PreloadConfig                     0x080018d1   Thumb Code    26  stm32f4xx_tim.o(i.TIM_OC2PreloadConfig)
    TIM_OC3Init                              0x080018ed   Thumb Code   150  stm32f4xx_tim.o(i.TIM_OC3Init)
    TIM_OC3PreloadConfig                     0x0800198d   Thumb Code    18  stm32f4xx_tim.o(i.TIM_OC3PreloadConfig)
    TIM_SetCompare1                          0x0800199f   Thumb Code     4  stm32f4xx_tim.o(i.TIM_SetCompare1)
    TIM_SetCompare2                          0x080019a3   Thumb Code     4  stm32f4xx_tim.o(i.TIM_SetCompare2)
    TIM_SetCompare3                          0x080019a7   Thumb Code     4  stm32f4xx_tim.o(i.TIM_SetCompare3)
    TIM_TO_NVIC_IRQChannel                   0x080019ad   Thumb Code   142  bsp_timer.o(i.TIM_TO_NVIC_IRQChannel)
    TIM_TimeBaseInit                         0x08001a71   Thumb Code   104  stm32f4xx_tim.o(i.TIM_TimeBaseInit)
    UsageFault_Handler                       0x08001bed   Thumb Code     4  stm32f4xx_it.o(i.UsageFault_Handler)
    __0printf$8                              0x08001bf1   Thumb Code    22  printf8.o(i.__0printf$8)
    __1printf$8                              0x08001bf1   Thumb Code     0  printf8.o(i.__0printf$8)
    __2printf                                0x08001bf1   Thumb Code     0  printf8.o(i.__0printf$8)
    __scatterload_copy                       0x08001c11   Thumb Code    14  handlers.o(i.__scatterload_copy)
    __scatterload_null                       0x08001c1f   Thumb Code     2  handlers.o(i.__scatterload_null)
    __scatterload_zeroinit                   0x08001c21   Thumb Code    14  handlers.o(i.__scatterload_zeroinit)
    appInit                                  0x08002095   Thumb Code    46  app_init.o(i.appInit)
    carInformationInterFace                  0x080027c9   Thumb Code   198  meun.o(i.carInformationInterFace)
    colorSwitchInterFace                     0x080029cd   Thumb Code   236  meun.o(i.colorSwitchInterFace)
    delay_ms                                 0x08002ae9   Thumb Code    28  util.o(i.delay_ms)
    fputc                                    0x08003771   Thumb Code    18  fputc.o(i.fputc)
    gimbal_Init                              0x08003785   Thumb Code    32  moving.o(i.gimbal_Init)
    guiInit                                  0x08003995   Thumb Code    12  gui.o(i.guiInit)
    guiTaskInit                              0x080039a1   Thumb Code    30  gui.o(i.guiTaskInit)
    guiUpdate                                0x080039c9   Thumb Code    28  gui.o(i.guiUpdate)
    main                                     0x080039e5   Thumb Code    38  main.o(i.main)
    mainInterFaceInit                        0x08003a19   Thumb Code   102  meun.o(i.mainInterFaceInit)
    meunInterFace                            0x08003a95   Thumb Code    84  meun.o(i.meunInterFace)
    meunTaskRun                              0x08003af9   Thumb Code  2170  meun.o(i.meunTaskRun)
    mypow                                    0x0800437d   Thumb Code    22  oled.o(i.mypow)
    pvPortMalloc                             0x0800483d   Thumb Code   262  heap_4.o(i.pvPortMalloc)
    pxPortInitialiseStack                    0x08004991   Thumb Code    38  port.o(i.pxPortInitialiseStack)
    saveCarSpeedInterFace                    0x080049bd   Thumb Code   198  meun.o(i.saveCarSpeedInterFace)
    setCarSpeedInterFace                     0x08004aa1   Thumb Code   236  meun.o(i.setCarSpeedInterFace)
    taskInterFace                            0x08005469   Thumb Code   564  meun.o(i.taskInterFace)
    trackTaskInit                            0x080056bd   Thumb Code    30  trackdecisionlevel.o(i.trackTaskInit)
    uxListRemove                             0x08005d19   Thumb Code    40  list.o(i.uxListRemove)
    vListInitialise                          0x08005d41   Thumb Code    26  list.o(i.vListInitialise)
    vListInitialiseItem                      0x08005d5b   Thumb Code     6  list.o(i.vListInitialiseItem)
    vListInsert                              0x08005d61   Thumb Code    52  list.o(i.vListInsert)
    vListInsertEnd                           0x08005d95   Thumb Code    24  list.o(i.vListInsertEnd)
    vPortEnterCritical                       0x08005dad   Thumb Code    68  port.o(i.vPortEnterCritical)
    vPortExitCritical                        0x08005e35   Thumb Code    48  port.o(i.vPortExitCritical)
    vPortFree                                0x08005ea5   Thumb Code   120  heap_4.o(i.vPortFree)
    vPortSetupTimerInterrupt                 0x08005f5d   Thumb Code    14  port.o(i.vPortSetupTimerInterrupt)
    vTaskDelay                               0x08005f71   Thumb Code    72  tasks.o(i.vTaskDelay)
    vTaskDelayUntil                          0x08005fed   Thumb Code   170  tasks.o(i.vTaskDelayUntil)
    vTaskDelete                              0x080060d1   Thumb Code   192  tasks.o(i.vTaskDelete)
    vTaskStartScheduler                      0x080061e5   Thumb Code    98  tasks.o(i.vTaskStartScheduler)
    vTaskSuspendAll                          0x08006291   Thumb Code    12  tasks.o(i.vTaskSuspendAll)
    vTaskSwitchContext                       0x080062a1   Thumb Code   110  tasks.o(i.vTaskSwitchContext)
    wheelSwitchInterFace                     0x08006351   Thumb Code    76  meun.o(i.wheelSwitchInterFace)
    xEventGroupCreate                        0x080063ad   Thumb Code    26  event_groups.o(i.xEventGroupCreate)
    xPortStartScheduler                      0x080063c9   Thumb Code   258  port.o(i.xPortStartScheduler)
    xPortSysTickHandler                      0x08006525   Thumb Code    46  port.o(i.xPortSysTickHandler)
    xTaskCreate                              0x08006559   Thumb Code    96  tasks.o(i.xTaskCreate)
    xTaskGetSchedulerState                   0x080065b9   Thumb Code    24  tasks.o(i.xTaskGetSchedulerState)
    xTaskGetTickCount                        0x080065d9   Thumb Code     6  tasks.o(i.xTaskGetTickCount)
    xTaskIncrementTick                       0x080065e5   Thumb Code   272  tasks.o(i.xTaskIncrementTick)
    xTaskResumeAll                           0x0800674d   Thumb Code   214  tasks.o(i.xTaskResumeAll)
    BSP_GPIOA0_Base                          0x08006874   Data           8  bsp_gpio.o(.constdata)
    BSP_GPIOA1_Base                          0x0800687c   Data           8  bsp_gpio.o(.constdata)
    BSP_GPIOA2_Base                          0x08006884   Data           8  bsp_gpio.o(.constdata)
    BSP_GPIOA3_Base                          0x0800688c   Data           8  bsp_gpio.o(.constdata)
    BSP_GPIOA4_Base                          0x08006894   Data           8  bsp_gpio.o(.constdata)
    BSP_GPIOA5_Base                          0x0800689c   Data           8  bsp_gpio.o(.constdata)
    BSP_GPIOA6_Base                          0x080068a4   Data           8  bsp_gpio.o(.constdata)
    BSP_GPIOA7_Base                          0x080068ac   Data           8  bsp_gpio.o(.constdata)
    BSP_GPIOA8_Base                          0x080068b4   Data           8  bsp_gpio.o(.constdata)
    BSP_GPIOA9_Base                          0x080068bc   Data           8  bsp_gpio.o(.constdata)
    BSP_GPIOA10_Base                         0x080068c4   Data           8  bsp_gpio.o(.constdata)
    BSP_GPIOA11_Base                         0x080068cc   Data           8  bsp_gpio.o(.constdata)
    BSP_GPIOA12_Base                         0x080068d4   Data           8  bsp_gpio.o(.constdata)
    BSP_GPIOA13_Base                         0x080068dc   Data           8  bsp_gpio.o(.constdata)
    BSP_GPIOA14_Base                         0x080068e4   Data           8  bsp_gpio.o(.constdata)
    BSP_GPIOA15_Base                         0x080068ec   Data           8  bsp_gpio.o(.constdata)
    BSP_GPIOB0_Base                          0x080068f4   Data           8  bsp_gpio.o(.constdata)
    BSP_GPIOB1_Base                          0x080068fc   Data           8  bsp_gpio.o(.constdata)
    BSP_GPIOB2_Base                          0x08006904   Data           8  bsp_gpio.o(.constdata)
    BSP_GPIOB3_Base                          0x0800690c   Data           8  bsp_gpio.o(.constdata)
    BSP_GPIOB4_Base                          0x08006914   Data           8  bsp_gpio.o(.constdata)
    BSP_GPIOB5_Base                          0x0800691c   Data           8  bsp_gpio.o(.constdata)
    BSP_GPIOB6_Base                          0x08006924   Data           8  bsp_gpio.o(.constdata)
    BSP_GPIOB7_Base                          0x0800692c   Data           8  bsp_gpio.o(.constdata)
    BSP_GPIOB8_Base                          0x08006934   Data           8  bsp_gpio.o(.constdata)
    BSP_GPIOB9_Base                          0x0800693c   Data           8  bsp_gpio.o(.constdata)
    BSP_GPIOB10_Base                         0x08006944   Data           8  bsp_gpio.o(.constdata)
    BSP_GPIOB11_Base                         0x0800694c   Data           8  bsp_gpio.o(.constdata)
    BSP_GPIOB12_Base                         0x08006954   Data           8  bsp_gpio.o(.constdata)
    BSP_GPIOB13_Base                         0x0800695c   Data           8  bsp_gpio.o(.constdata)
    BSP_GPIOB14_Base                         0x08006964   Data           8  bsp_gpio.o(.constdata)
    BSP_GPIOB15_Base                         0x0800696c   Data           8  bsp_gpio.o(.constdata)
    BSP_GPIOC0_Base                          0x08006974   Data           8  bsp_gpio.o(.constdata)
    BSP_GPIOC1_Base                          0x0800697c   Data           8  bsp_gpio.o(.constdata)
    BSP_GPIOC2_Base                          0x08006984   Data           8  bsp_gpio.o(.constdata)
    BSP_GPIOC3_Base                          0x0800698c   Data           8  bsp_gpio.o(.constdata)
    BSP_GPIOC4_Base                          0x08006994   Data           8  bsp_gpio.o(.constdata)
    BSP_GPIOC5_Base                          0x0800699c   Data           8  bsp_gpio.o(.constdata)
    BSP_GPIOC6_Base                          0x080069a4   Data           8  bsp_gpio.o(.constdata)
    BSP_GPIOC7_Base                          0x080069ac   Data           8  bsp_gpio.o(.constdata)
    BSP_GPIOC8_Base                          0x080069b4   Data           8  bsp_gpio.o(.constdata)
    BSP_GPIOC9_Base                          0x080069bc   Data           8  bsp_gpio.o(.constdata)
    BSP_GPIOC10_Base                         0x080069c4   Data           8  bsp_gpio.o(.constdata)
    BSP_GPIOC11_Base                         0x080069cc   Data           8  bsp_gpio.o(.constdata)
    BSP_GPIOC12_Base                         0x080069d4   Data           8  bsp_gpio.o(.constdata)
    BSP_GPIOC13_Base                         0x080069dc   Data           8  bsp_gpio.o(.constdata)
    BSP_GPIOC14_Base                         0x080069e4   Data           8  bsp_gpio.o(.constdata)
    BSP_GPIOC15_Base                         0x080069ec   Data           8  bsp_gpio.o(.constdata)
    BSP_GPIOD0_Base                          0x080069f4   Data           8  bsp_gpio.o(.constdata)
    BSP_GPIOD1_Base                          0x080069fc   Data           8  bsp_gpio.o(.constdata)
    BSP_GPIOD2_Base                          0x08006a04   Data           8  bsp_gpio.o(.constdata)
    BSP_GPIOD3_Base                          0x08006a0c   Data           8  bsp_gpio.o(.constdata)
    BSP_GPIOD4_Base                          0x08006a14   Data           8  bsp_gpio.o(.constdata)
    BSP_GPIOD5_Base                          0x08006a1c   Data           8  bsp_gpio.o(.constdata)
    BSP_GPIOD6_Base                          0x08006a24   Data           8  bsp_gpio.o(.constdata)
    BSP_GPIOD7_Base                          0x08006a2c   Data           8  bsp_gpio.o(.constdata)
    BSP_GPIOD8_Base                          0x08006a34   Data           8  bsp_gpio.o(.constdata)
    BSP_GPIOD9_Base                          0x08006a3c   Data           8  bsp_gpio.o(.constdata)
    BSP_GPIOD10_Base                         0x08006a44   Data           8  bsp_gpio.o(.constdata)
    BSP_GPIOD11_Base                         0x08006a4c   Data           8  bsp_gpio.o(.constdata)
    BSP_GPIOD12_Base                         0x08006a54   Data           8  bsp_gpio.o(.constdata)
    BSP_GPIOD13_Base                         0x08006a5c   Data           8  bsp_gpio.o(.constdata)
    BSP_GPIOD14_Base                         0x08006a64   Data           8  bsp_gpio.o(.constdata)
    BSP_GPIOD15_Base                         0x08006a6c   Data           8  bsp_gpio.o(.constdata)
    BSP_GPIOE0_Base                          0x08006a74   Data           8  bsp_gpio.o(.constdata)
    BSP_GPIOE1_Base                          0x08006a7c   Data           8  bsp_gpio.o(.constdata)
    BSP_GPIOE2_Base                          0x08006a84   Data           8  bsp_gpio.o(.constdata)
    BSP_GPIOE3_Base                          0x08006a8c   Data           8  bsp_gpio.o(.constdata)
    BSP_GPIOE4_Base                          0x08006a94   Data           8  bsp_gpio.o(.constdata)
    BSP_GPIOE5_Base                          0x08006a9c   Data           8  bsp_gpio.o(.constdata)
    BSP_GPIOE6_Base                          0x08006aa4   Data           8  bsp_gpio.o(.constdata)
    BSP_GPIOE7_Base                          0x08006aac   Data           8  bsp_gpio.o(.constdata)
    BSP_GPIOE8_Base                          0x08006ab4   Data           8  bsp_gpio.o(.constdata)
    BSP_GPIOE9_Base                          0x08006abc   Data           8  bsp_gpio.o(.constdata)
    BSP_GPIOE10_Base                         0x08006ac4   Data           8  bsp_gpio.o(.constdata)
    BSP_GPIOE11_Base                         0x08006acc   Data           8  bsp_gpio.o(.constdata)
    BSP_GPIOE12_Base                         0x08006ad4   Data           8  bsp_gpio.o(.constdata)
    BSP_GPIOE13_Base                         0x08006adc   Data           8  bsp_gpio.o(.constdata)
    BSP_GPIOE14_Base                         0x08006ae4   Data           8  bsp_gpio.o(.constdata)
    BSP_GPIOE15_Base                         0x08006aec   Data           8  bsp_gpio.o(.constdata)
    BSP_GPIOF0_Base                          0x08006af4   Data           8  bsp_gpio.o(.constdata)
    BSP_GPIOF1_Base                          0x08006afc   Data           8  bsp_gpio.o(.constdata)
    BSP_GPIOF2_Base                          0x08006b04   Data           8  bsp_gpio.o(.constdata)
    BSP_GPIOF3_Base                          0x08006b0c   Data           8  bsp_gpio.o(.constdata)
    BSP_GPIOF4_Base                          0x08006b14   Data           8  bsp_gpio.o(.constdata)
    BSP_GPIOF5_Base                          0x08006b1c   Data           8  bsp_gpio.o(.constdata)
    BSP_GPIOF6_Base                          0x08006b24   Data           8  bsp_gpio.o(.constdata)
    BSP_GPIOF7_Base                          0x08006b2c   Data           8  bsp_gpio.o(.constdata)
    BSP_GPIOF8_Base                          0x08006b34   Data           8  bsp_gpio.o(.constdata)
    BSP_GPIOF9_Base                          0x08006b3c   Data           8  bsp_gpio.o(.constdata)
    BSP_GPIOF10_Base                         0x08006b44   Data           8  bsp_gpio.o(.constdata)
    BSP_GPIOF11_Base                         0x08006b4c   Data           8  bsp_gpio.o(.constdata)
    BSP_GPIOF12_Base                         0x08006b54   Data           8  bsp_gpio.o(.constdata)
    BSP_GPIOF13_Base                         0x08006b5c   Data           8  bsp_gpio.o(.constdata)
    BSP_GPIOF14_Base                         0x08006b64   Data           8  bsp_gpio.o(.constdata)
    BSP_GPIOF15_Base                         0x08006b6c   Data           8  bsp_gpio.o(.constdata)
    BSP_GPIOG0_Base                          0x08006b74   Data           8  bsp_gpio.o(.constdata)
    BSP_GPIOG1_Base                          0x08006b7c   Data           8  bsp_gpio.o(.constdata)
    BSP_GPIOG2_Base                          0x08006b84   Data           8  bsp_gpio.o(.constdata)
    BSP_GPIOG3_Base                          0x08006b8c   Data           8  bsp_gpio.o(.constdata)
    BSP_GPIOG4_Base                          0x08006b94   Data           8  bsp_gpio.o(.constdata)
    BSP_GPIOG5_Base                          0x08006b9c   Data           8  bsp_gpio.o(.constdata)
    BSP_GPIOG6_Base                          0x08006ba4   Data           8  bsp_gpio.o(.constdata)
    BSP_GPIOG7_Base                          0x08006bac   Data           8  bsp_gpio.o(.constdata)
    BSP_GPIOG8_Base                          0x08006bb4   Data           8  bsp_gpio.o(.constdata)
    BSP_GPIOG9_Base                          0x08006bbc   Data           8  bsp_gpio.o(.constdata)
    BSP_GPIOG10_Base                         0x08006bc4   Data           8  bsp_gpio.o(.constdata)
    BSP_GPIOG11_Base                         0x08006bcc   Data           8  bsp_gpio.o(.constdata)
    BSP_GPIOG12_Base                         0x08006bd4   Data           8  bsp_gpio.o(.constdata)
    BSP_GPIOG13_Base                         0x08006bdc   Data           8  bsp_gpio.o(.constdata)
    BSP_GPIOG14_Base                         0x08006be4   Data           8  bsp_gpio.o(.constdata)
    BSP_GPIOG15_Base                         0x08006bec   Data           8  bsp_gpio.o(.constdata)
    BSP_GPIOH0_Base                          0x08006bf4   Data           8  bsp_gpio.o(.constdata)
    BSP_GPIOH1_Base                          0x08006bfc   Data           8  bsp_gpio.o(.constdata)
    BSP_GPIOH2_Base                          0x08006c04   Data           8  bsp_gpio.o(.constdata)
    BSP_GPIOH3_Base                          0x08006c0c   Data           8  bsp_gpio.o(.constdata)
    BSP_GPIOH4_Base                          0x08006c14   Data           8  bsp_gpio.o(.constdata)
    BSP_GPIOH5_Base                          0x08006c1c   Data           8  bsp_gpio.o(.constdata)
    BSP_GPIOH6_Base                          0x08006c24   Data           8  bsp_gpio.o(.constdata)
    BSP_GPIOH7_Base                          0x08006c2c   Data           8  bsp_gpio.o(.constdata)
    BSP_GPIOH8_Base                          0x08006c34   Data           8  bsp_gpio.o(.constdata)
    BSP_GPIOH9_Base                          0x08006c3c   Data           8  bsp_gpio.o(.constdata)
    BSP_GPIOH10_Base                         0x08006c44   Data           8  bsp_gpio.o(.constdata)
    BSP_GPIOH11_Base                         0x08006c4c   Data           8  bsp_gpio.o(.constdata)
    BSP_GPIOH12_Base                         0x08006c54   Data           8  bsp_gpio.o(.constdata)
    BSP_GPIOH13_Base                         0x08006c5c   Data           8  bsp_gpio.o(.constdata)
    BSP_GPIOH14_Base                         0x08006c64   Data           8  bsp_gpio.o(.constdata)
    BSP_GPIOH15_Base                         0x08006c6c   Data           8  bsp_gpio.o(.constdata)
    BSP_GPIOI0_Base                          0x08006c74   Data           8  bsp_gpio.o(.constdata)
    BSP_GPIOI1_Base                          0x08006c7c   Data           8  bsp_gpio.o(.constdata)
    BSP_GPIOI2_Base                          0x08006c84   Data           8  bsp_gpio.o(.constdata)
    BSP_GPIOI3_Base                          0x08006c8c   Data           8  bsp_gpio.o(.constdata)
    BSP_GPIOI4_Base                          0x08006c94   Data           8  bsp_gpio.o(.constdata)
    BSP_GPIOI5_Base                          0x08006c9c   Data           8  bsp_gpio.o(.constdata)
    BSP_GPIOI6_Base                          0x08006ca4   Data           8  bsp_gpio.o(.constdata)
    BSP_GPIOI7_Base                          0x08006cac   Data           8  bsp_gpio.o(.constdata)
    BSP_GPIOI8_Base                          0x08006cb4   Data           8  bsp_gpio.o(.constdata)
    BSP_GPIOI9_Base                          0x08006cbc   Data           8  bsp_gpio.o(.constdata)
    BSP_GPIOI10_Base                         0x08006cc4   Data           8  bsp_gpio.o(.constdata)
    BSP_GPIOI11_Base                         0x08006ccc   Data           8  bsp_gpio.o(.constdata)
    BSP_GPIOI12_Base                         0x08006cd4   Data           8  bsp_gpio.o(.constdata)
    BSP_GPIOI13_Base                         0x08006cdc   Data           8  bsp_gpio.o(.constdata)
    BSP_GPIOI14_Base                         0x08006ce4   Data           8  bsp_gpio.o(.constdata)
    BSP_GPIOI15_Base                         0x08006cec   Data           8  bsp_gpio.o(.constdata)
    BSP_GPIOJ0_Base                          0x08006cf4   Data           8  bsp_gpio.o(.constdata)
    BSP_GPIOJ1_Base                          0x08006cfc   Data           8  bsp_gpio.o(.constdata)
    BSP_GPIOJ2_Base                          0x08006d04   Data           8  bsp_gpio.o(.constdata)
    BSP_GPIOJ3_Base                          0x08006d0c   Data           8  bsp_gpio.o(.constdata)
    BSP_GPIOJ4_Base                          0x08006d14   Data           8  bsp_gpio.o(.constdata)
    BSP_GPIOJ5_Base                          0x08006d1c   Data           8  bsp_gpio.o(.constdata)
    BSP_GPIOJ6_Base                          0x08006d24   Data           8  bsp_gpio.o(.constdata)
    BSP_GPIOJ7_Base                          0x08006d2c   Data           8  bsp_gpio.o(.constdata)
    BSP_GPIOJ8_Base                          0x08006d34   Data           8  bsp_gpio.o(.constdata)
    BSP_GPIOJ9_Base                          0x08006d3c   Data           8  bsp_gpio.o(.constdata)
    BSP_GPIOJ10_Base                         0x08006d44   Data           8  bsp_gpio.o(.constdata)
    BSP_GPIOJ11_Base                         0x08006d4c   Data           8  bsp_gpio.o(.constdata)
    BSP_GPIOJ12_Base                         0x08006d54   Data           8  bsp_gpio.o(.constdata)
    BSP_GPIOJ13_Base                         0x08006d5c   Data           8  bsp_gpio.o(.constdata)
    BSP_GPIOJ14_Base                         0x08006d64   Data           8  bsp_gpio.o(.constdata)
    BSP_GPIOJ15_Base                         0x08006d6c   Data           8  bsp_gpio.o(.constdata)
    BSP_GPIOK0_Base                          0x08006d74   Data           8  bsp_gpio.o(.constdata)
    BSP_GPIOK1_Base                          0x08006d7c   Data           8  bsp_gpio.o(.constdata)
    BSP_GPIOK2_Base                          0x08006d84   Data           8  bsp_gpio.o(.constdata)
    BSP_GPIOK3_Base                          0x08006d8c   Data           8  bsp_gpio.o(.constdata)
    BSP_GPIOK4_Base                          0x08006d94   Data           8  bsp_gpio.o(.constdata)
    BSP_GPIOK5_Base                          0x08006d9c   Data           8  bsp_gpio.o(.constdata)
    BSP_GPIOK6_Base                          0x08006da4   Data           8  bsp_gpio.o(.constdata)
    BSP_GPIOK7_Base                          0x08006dac   Data           8  bsp_gpio.o(.constdata)
    BSP_GPIOK8_Base                          0x08006db4   Data           8  bsp_gpio.o(.constdata)
    BSP_GPIOK9_Base                          0x08006dbc   Data           8  bsp_gpio.o(.constdata)
    BSP_GPIOK10_Base                         0x08006dc4   Data           8  bsp_gpio.o(.constdata)
    BSP_GPIOK11_Base                         0x08006dcc   Data           8  bsp_gpio.o(.constdata)
    BSP_GPIOK12_Base                         0x08006dd4   Data           8  bsp_gpio.o(.constdata)
    BSP_GPIOK13_Base                         0x08006ddc   Data           8  bsp_gpio.o(.constdata)
    BSP_GPIOK14_Base                         0x08006de4   Data           8  bsp_gpio.o(.constdata)
    BSP_GPIOK15_Base                         0x08006dec   Data           8  bsp_gpio.o(.constdata)
    asc2_1206                                0x08006df4   Data        1140  oled.o(.constdata)
    asc2_1608                                0x08007268   Data        1520  oled.o(.constdata)
    asc2_2412                                0x08007858   Data        3420  oled.o(.constdata)
    Region$$Table$$Base                      0x080085cc   Number         0  anon$$obj.o(Region$$Table)
    Region$$Table$$Limit                     0x080085ec   Number         0  anon$$obj.o(Region$$Table)
    pxCurrentTCB                             0x20000000   Data           4  tasks.o(.data)
    GPIO_InitStructure                       0x20000060   Data           8  bsp_gpio.o(.data)
    taskInitData                             0x20000068   Data           8  app_init.o(.data)
    avoidCnt                                 0x200000cc   Data           4  moving.o(.data)
    __stdout                                 0x20000110   Data           4  stdout.o(.data)
    gui                                      0x200093f8   Data         148  app_init.o(.bss)
    car                                      0x2000948c   Data          38  app_init.o(.bss)
    OLED_GRAM                                0x200094b2   Data        1024  oled.o(.bss)
    __initial_sp                             0x20009cb8   Data           0  startup_stm32f40_41xxx.o(STACK)



==============================================================================

Memory Map of the image

  Image Entry point : 0x08000189

  Load Region LR_IROM1 (Base: 0x08000000, Size: 0x00008700, Max: 0x00100000, ABSOLUTE)

    Execution Region ER_IROM1 (Exec base: 0x08000000, Load base: 0x08000000, Size: 0x000085ec, Max: 0x00100000, ABSOLUTE)

    Exec Addr    Load Addr    Size         Type   Attr      Idx    E Section Name        Object

    0x08000000   0x08000000   0x00000188   Data   RO            3    RESET               startup_stm32f40_41xxx.o
    0x08000188   0x08000188   0x00000000   Code   RO         7031  * .ARM.Collect$$$$00000000  mc_w.l(entry.o)
    0x08000188   0x08000188   0x00000004   Code   RO         7351    .ARM.Collect$$$$00000001  mc_w.l(entry2.o)
    0x0800018c   0x0800018c   0x00000004   Code   RO         7354    .ARM.Collect$$$$00000004  mc_w.l(entry5.o)
    0x08000190   0x08000190   0x00000000   Code   RO         7356    .ARM.Collect$$$$00000008  mc_w.l(entry7b.o)
    0x08000190   0x08000190   0x00000000   Code   RO         7358    .ARM.Collect$$$$0000000A  mc_w.l(entry8b.o)
    0x08000190   0x08000190   0x00000008   Code   RO         7359    .ARM.Collect$$$$0000000B  mc_w.l(entry9a.o)
    0x08000198   0x08000198   0x00000000   Code   RO         7361    .ARM.Collect$$$$0000000D  mc_w.l(entry10a.o)
    0x08000198   0x08000198   0x00000000   Code   RO         7363    .ARM.Collect$$$$0000000F  mc_w.l(entry11a.o)
    0x08000198   0x08000198   0x00000004   Code   RO         7352    .ARM.Collect$$$$00002712  mc_w.l(entry2.o)
    0x0800019c   0x0800019c   0x000000b6   Code   RO         6023    .emb_text           port.o
    0x08000252   0x08000252   0x00000002   PAD
    0x08000254   0x08000254   0x00000024   Code   RO            4    .text               startup_stm32f40_41xxx.o
    0x08000278   0x08000278   0x00000062   Code   RO         7370    .text               mc_w.l(uldiv.o)
    0x080002da   0x080002da   0x00000002   PAD
    0x080002dc   0x080002dc   0x00000024   Code   RO         7394    .text               mc_w.l(init.o)
    0x08000300   0x08000300   0x00000000   Code   RO         7396    .text               mc_w.l(semi.o)
    0x08000300   0x08000300   0x0000001e   Code   RO         7397    .text               mc_w.l(llshl.o)
    0x0800031e   0x0800031e   0x00000020   Code   RO         7399    .text               mc_w.l(llushr.o)
    0x0800033e   0x0800033e   0x00000000   Code   RO         7403    .text               mc_w.l(iusesemip.o)
    0x0800033e   0x0800033e   0x00000002   PAD
    0x08000340   0x08000340   0x0000006c   Code   RO         6812    i.Avoid_Check       moving.o
    0x080003ac   0x080003ac   0x000000a0   Code   RO         6440    i.BSP_FLASH_GetFlashSector  bsp_flash.o
    0x0800044c   0x0800044c   0x00000024   Code   RO         6441    i.BSP_FLASH_Read    bsp_flash.o
    0x08000470   0x08000470   0x00000006   Code   RO         6442    i.BSP_FLASH_ReadByte  bsp_flash.o
    0x08000476   0x08000476   0x00000002   PAD
    0x08000478   0x08000478   0x00000098   Code   RO         6443    i.BSP_FLASH_Write   bsp_flash.o
    0x08000510   0x08000510   0x0000008c   Code   RO         6157    i.BSP_GPIO_Init     bsp_gpio.o
    0x0800059c   0x0800059c   0x0000009c   Code   RO         6158    i.BSP_GPIO_RCC_Init  bsp_gpio.o
    0x08000638   0x08000638   0x00000114   Code   RO         6302    i.BSP_TIM1_PWM_Init  bsp_pwm.o
    0x0800074c   0x0800074c   0x00000062   Code   RO         6387    i.BSP_TIM_INT_Init  bsp_timer.o
    0x080007ae   0x080007ae   0x00000002   PAD
    0x080007b0   0x080007b0   0x00000118   Code   RO         6389    i.BSP_TIM_RCC_Init  bsp_timer.o
    0x080008c8   0x080008c8   0x00000004   Code   RO         5092    i.BusFault_Handler  stm32f4xx_it.o
    0x080008cc   0x080008cc   0x00000002   Code   RO         5093    i.DebugMon_Handler  stm32f4xx_it.o
    0x080008ce   0x080008ce   0x00000002   PAD
    0x080008d0   0x080008d0   0x00000024   Code   RO         1545    i.FLASH_DataCacheCmd  stm32f4xx_flash.o
    0x080008f4   0x080008f4   0x00000088   Code   RO         1550    i.FLASH_EraseSector  stm32f4xx_flash.o
    0x0800097c   0x0800097c   0x00000054   Code   RO         1552    i.FLASH_GetStatus   stm32f4xx_flash.o
    0x080009d0   0x080009d0   0x00000014   Code   RO         1556    i.FLASH_Lock        stm32f4xx_flash.o
    0x080009e4   0x080009e4   0x00000050   Code   RO         1580    i.FLASH_ProgramWord  stm32f4xx_flash.o
    0x08000a34   0x08000a34   0x00000024   Code   RO         1582    i.FLASH_Unlock      stm32f4xx_flash.o
    0x08000a58   0x08000a58   0x00000022   Code   RO         1583    i.FLASH_WaitForLastOperation  stm32f4xx_flash.o
    0x08000a7a   0x08000a7a   0x00000002   PAD
    0x08000a7c   0x08000a7c   0x0000019c   Code   RO         6813    i.GIMBAL_Update     moving.o
    0x08000c18   0x08000c18   0x00000090   Code   RO         1857    i.GPIO_Init         stm32f4xx_gpio.o
    0x08000ca8   0x08000ca8   0x00000046   Code   RO         1858    i.GPIO_PinAFConfig  stm32f4xx_gpio.o
    0x08000cee   0x08000cee   0x00000012   Code   RO         1861    i.GPIO_ReadInputDataBit  stm32f4xx_gpio.o
    0x08000d00   0x08000d00   0x00000130   Code   RO         6814    i.Gimbal_GPIO_Init  moving.o
    0x08000e30   0x08000e30   0x00000004   Code   RO         5094    i.HardFault_Handler  stm32f4xx_it.o
    0x08000e34   0x08000e34   0x00000050   Code   RO         6742    i.KEY_Init          key.o
    0x08000e84   0x08000e84   0x00000114   Code   RO         6743    i.KEY_Scan          key.o
    0x08000f98   0x08000f98   0x00000004   Code   RO         5095    i.MemManage_Handler  stm32f4xx_it.o
    0x08000f9c   0x08000f9c   0x00000002   Code   RO         5096    i.NMI_Handler       stm32f4xx_it.o
    0x08000f9e   0x08000f9e   0x00000002   PAD
    0x08000fa0   0x08000fa0   0x00000078   Code   RO          155    i.NVIC_Init         misc.o
    0x08001018   0x08001018   0x00000014   Code   RO          156    i.NVIC_PriorityGroupConfig  misc.o
    0x0800102c   0x0800102c   0x00000030   Code   RO         6639    i.OLED_Clear        oled.o
    0x0800105c   0x0800105c   0x00000068   Code   RO         6643    i.OLED_DrawPoint    oled.o
    0x080010c4   0x080010c4   0x0000003a   Code   RO         6644    i.OLED_Fill         oled.o
    0x080010fe   0x080010fe   0x00000002   PAD
    0x08001100   0x08001100   0x0000016c   Code   RO         6645    i.OLED_Init         oled.o
    0x0800126c   0x0800126c   0x0000004c   Code   RO         6646    i.OLED_Refresh_Gram  oled.o
    0x080012b8   0x080012b8   0x0000010c   Code   RO         6647    i.OLED_ShowChar     oled.o
    0x080013c4   0x080013c4   0x00000094   Code   RO         6648    i.OLED_ShowNum      oled.o
    0x08001458   0x08001458   0x0000005e   Code   RO         6649    i.OLED_ShowString   oled.o
    0x080014b6   0x080014b6   0x00000002   PAD
    0x080014b8   0x080014b8   0x0000005c   Code   RO         6650    i.OLED_WR_Byte      oled.o
    0x08001514   0x08001514   0x00000020   Code   RO         2762    i.RCC_AHB1PeriphClockCmd  stm32f4xx_rcc.o
    0x08001534   0x08001534   0x00000020   Code   RO         2771    i.RCC_APB1PeriphClockCmd  stm32f4xx_rcc.o
    0x08001554   0x08001554   0x00000020   Code   RO         2774    i.RCC_APB2PeriphClockCmd  stm32f4xx_rcc.o
    0x08001574   0x08001574   0x000000ec   Code   RO           13    i.SetSysClock       system_stm32f4xx.o
    0x08001660   0x08001660   0x00000010   Code   RO         5097    i.SysTick_Handler   stm32f4xx_it.o
    0x08001670   0x08001670   0x00000068   Code   RO           15    i.SystemInit        system_stm32f4xx.o
    0x080016d8   0x080016d8   0x0000003c   Code   RO         6899    i.TIM3_IRQHandler   trackdecisionlevel.o
    0x08001714   0x08001714   0x00000018   Code   RO         4146    i.TIM_ARRPreloadConfig  stm32f4xx_tim.o
    0x0800172c   0x0800172c   0x00000006   Code   RO         4153    i.TIM_ClearITPendingBit  stm32f4xx_tim.o
    0x08001732   0x08001732   0x00000018   Code   RO         4158    i.TIM_Cmd           stm32f4xx_tim.o
    0x0800174a   0x0800174a   0x0000001e   Code   RO         4160    i.TIM_CtrlPWMOutputs  stm32f4xx_tim.o
    0x08001768   0x08001768   0x00000022   Code   RO         4179    i.TIM_GetITStatus   stm32f4xx_tim.o
    0x0800178a   0x0800178a   0x00000012   Code   RO         4183    i.TIM_ITConfig      stm32f4xx_tim.o
    0x0800179c   0x0800179c   0x0000007c   Code   RO         4187    i.TIM_OC1Init       stm32f4xx_tim.o
    0x08001818   0x08001818   0x00000012   Code   RO         4190    i.TIM_OC1PreloadConfig  stm32f4xx_tim.o
    0x0800182a   0x0800182a   0x00000002   PAD
    0x0800182c   0x0800182c   0x000000a4   Code   RO         4192    i.TIM_OC2Init       stm32f4xx_tim.o
    0x080018d0   0x080018d0   0x0000001a   Code   RO         4195    i.TIM_OC2PreloadConfig  stm32f4xx_tim.o
    0x080018ea   0x080018ea   0x00000002   PAD
    0x080018ec   0x080018ec   0x000000a0   Code   RO         4197    i.TIM_OC3Init       stm32f4xx_tim.o
    0x0800198c   0x0800198c   0x00000012   Code   RO         4200    i.TIM_OC3PreloadConfig  stm32f4xx_tim.o
    0x0800199e   0x0800199e   0x00000004   Code   RO         4220    i.TIM_SetCompare1   stm32f4xx_tim.o
    0x080019a2   0x080019a2   0x00000004   Code   RO         4221    i.TIM_SetCompare2   stm32f4xx_tim.o
    0x080019a6   0x080019a6   0x00000004   Code   RO         4222    i.TIM_SetCompare3   stm32f4xx_tim.o
    0x080019aa   0x080019aa   0x00000002   PAD
    0x080019ac   0x080019ac   0x000000c4   Code   RO         6391    i.TIM_TO_NVIC_IRQChannel  bsp_timer.o
    0x08001a70   0x08001a70   0x00000084   Code   RO         4230    i.TIM_TimeBaseInit  stm32f4xx_tim.o
    0x08001af4   0x08001af4   0x000000f8   Code   RO         6815    i.Track_Parms_Init  moving.o
    0x08001bec   0x08001bec   0x00000004   Code   RO         5098    i.UsageFault_Handler  stm32f4xx_it.o
    0x08001bf0   0x08001bf0   0x00000020   Code   RO         7253    i.__0printf$8       mc_w.l(printf8.o)
    0x08001c10   0x08001c10   0x0000000e   Code   RO         7408    i.__scatterload_copy  mc_w.l(handlers.o)
    0x08001c1e   0x08001c1e   0x00000002   Code   RO         7409    i.__scatterload_null  mc_w.l(handlers.o)
    0x08001c20   0x08001c20   0x0000000e   Code   RO         7410    i.__scatterload_zeroinit  mc_w.l(handlers.o)
    0x08001c2e   0x08001c2e   0x00000002   PAD
    0x08001c30   0x08001c30   0x00000410   Code   RO         7260    i._printf_core      mc_w.l(printf8.o)
    0x08002040   0x08002040   0x00000024   Code   RO         7261    i._printf_post_padding  mc_w.l(printf8.o)
    0x08002064   0x08002064   0x0000002e   Code   RO         7262    i._printf_pre_padding  mc_w.l(printf8.o)
    0x08002092   0x08002092   0x00000002   PAD
    0x08002094   0x08002094   0x00000034   Code   RO         6517    i.appInit           app_init.o
    0x080020c8   0x080020c8   0x0000002c   Code   RO         6900    i.backAlittle       trackdecisionlevel.o
    0x080020f4   0x080020f4   0x00000128   Code   RO         6816    i.carAvoidBack      moving.o
    0x0800221c   0x0800221c   0x00000128   Code   RO         6817    i.carBack           moving.o
    0x08002344   0x08002344   0x000000a4   Code   RO         6818    i.carCali           moving.o
    0x080023e8   0x080023e8   0x00000078   Code   RO         6901    i.carCalibration    trackdecisionlevel.o
    0x08002460   0x08002460   0x00000100   Code   RO         6819    i.carCareFul        moving.o
    0x08002560   0x08002560   0x0000003c   Code   RO         6902    i.carCommonTaskProcess  trackdecisionlevel.o
    0x0800259c   0x0800259c   0x0000022c   Code   RO         6820    i.carFollow         moving.o
    0x080027c8   0x080027c8   0x000000f0   Code   RO         6564    i.carInformationInterFace  meun.o
    0x080028b8   0x080028b8   0x00000030   Code   RO         6821    i.carLeft           moving.o
    0x080028e8   0x080028e8   0x00000030   Code   RO         6822    i.carRight          moving.o
    0x08002918   0x08002918   0x00000038   Code   RO         6903    i.carSpecialTaskProcess  trackdecisionlevel.o
    0x08002950   0x08002950   0x0000001c   Code   RO         6823    i.carStop           moving.o
    0x0800296c   0x0800296c   0x00000030   Code   RO         6904    i.catchDown         trackdecisionlevel.o
    0x0800299c   0x0800299c   0x00000030   Code   RO         6905    i.catchUp           trackdecisionlevel.o
    0x080029cc   0x080029cc   0x0000011c   Code   RO         6565    i.colorSwitchInterFace  meun.o
    0x08002ae8   0x08002ae8   0x0000001c   Code   RO         5161    i.delay_ms          util.o
    0x08002b04   0x08002b04   0x00000398   Code   RO         6906    i.findTargetOne     trackdecisionlevel.o
    0x08002e9c   0x08002e9c   0x000002b0   Code   RO         6907    i.findTargetTwo     trackdecisionlevel.o
    0x0800314c   0x0800314c   0x00000494   Code   RO         6908    i.finishPush        trackdecisionlevel.o
    0x080035e0   0x080035e0   0x00000190   Code   RO         6518    i.flashInit         app_init.o
    0x08003770   0x08003770   0x00000012   Code   RO         7365    i.fputc             mc_w.l(fputc.o)
    0x08003782   0x08003782   0x00000002   PAD
    0x08003784   0x08003784   0x0000002c   Code   RO         6824    i.gimbal_Init       moving.o
    0x080037b0   0x080037b0   0x0000016c   Code   RO         6909    i.goHome            trackdecisionlevel.o
    0x0800391c   0x0800391c   0x00000078   Code   RO         6519    i.guiInit           app_init.o
    0x08003994   0x08003994   0x0000000c   Code   RO         6776    i.guiInit           gui.o
    0x080039a0   0x080039a0   0x00000028   Code   RO         6777    i.guiTaskInit       gui.o
    0x080039c8   0x080039c8   0x0000001c   Code   RO         6778    i.guiUpdate         gui.o
    0x080039e4   0x080039e4   0x00000034   Code   RO         4966    i.main              main.o
    0x08003a18   0x08003a18   0x0000007c   Code   RO         6566    i.mainInterFaceInit  meun.o
    0x08003a94   0x08003a94   0x00000064   Code   RO         6567    i.meunInterFace     meun.o
    0x08003af8   0x08003af8   0x00000884   Code   RO         6568    i.meunTaskRun       meun.o
    0x0800437c   0x0800437c   0x00000016   Code   RO         6651    i.mypow             oled.o
    0x08004392   0x08004392   0x00000002   PAD
    0x08004394   0x08004394   0x00000098   Code   RO         5644    i.prvAddCurrentTaskToDelayedList  tasks.o
    0x0800442c   0x0800442c   0x000000b4   Code   RO         5645    i.prvAddNewTaskToReadyList  tasks.o
    0x080044e0   0x080044e0   0x00000064   Code   RO         5646    i.prvCheckTasksWaitingTermination  tasks.o
    0x08004544   0x08004544   0x00000012   Code   RO         5647    i.prvDeleteTCB      tasks.o
    0x08004556   0x08004556   0x00000002   PAD
    0x08004558   0x08004558   0x0000007c   Code   RO         5962    i.prvHeapInit       heap_4.o
    0x080045d4   0x080045d4   0x00000028   Code   RO         5648    i.prvIdleTask       tasks.o
    0x080045fc   0x080045fc   0x000000c8   Code   RO         5649    i.prvInitialiseNewTask  tasks.o
    0x080046c4   0x080046c4   0x00000068   Code   RO         5650    i.prvInitialiseTaskLists  tasks.o
    0x0800472c   0x0800472c   0x00000068   Code   RO         5963    i.prvInsertBlockIntoFreeList  heap_4.o
    0x08004794   0x08004794   0x00000034   Code   RO         5651    i.prvResetNextTaskUnblockTime  tasks.o
    0x080047c8   0x080047c8   0x00000074   Code   RO         6024    i.prvTaskExitError  port.o
    0x0800483c   0x0800483c   0x00000154   Code   RO         5964    i.pvPortMalloc      heap_4.o
    0x08004990   0x08004990   0x0000002c   Code   RO         6025    i.pxPortInitialiseStack  port.o
    0x080049bc   0x080049bc   0x000000e4   Code   RO         6569    i.saveCarSpeedInterFace  meun.o
    0x08004aa0   0x08004aa0   0x00000120   Code   RO         6570    i.setCarSpeedInterFace  meun.o
    0x08004bc0   0x08004bc0   0x00000268   Code   RO         6910    i.specialFindTarget  trackdecisionlevel.o
    0x08004e28   0x08004e28   0x00000640   Code   RO         6911    i.statusCheck       trackdecisionlevel.o
    0x08005468   0x08005468   0x00000254   Code   RO         6571    i.taskInterFace     meun.o
    0x080056bc   0x080056bc   0x0000002c   Code   RO         6912    i.trackTaskInit     trackdecisionlevel.o
    0x080056e8   0x080056e8   0x0000001c   Code   RO         6913    i.trackTimeInit     trackdecisionlevel.o
    0x08005704   0x08005704   0x00000240   Code   RO         6914    i.trackUpdate       trackdecisionlevel.o
    0x08005944   0x08005944   0x000003d4   Code   RO         6915    i.tranSlation       trackdecisionlevel.o
    0x08005d18   0x08005d18   0x00000028   Code   RO         5438    i.uxListRemove      list.o
    0x08005d40   0x08005d40   0x0000001a   Code   RO         5439    i.vListInitialise   list.o
    0x08005d5a   0x08005d5a   0x00000006   Code   RO         5440    i.vListInitialiseItem  list.o
    0x08005d60   0x08005d60   0x00000034   Code   RO         5441    i.vListInsert       list.o
    0x08005d94   0x08005d94   0x00000018   Code   RO         5442    i.vListInsertEnd    list.o
    0x08005dac   0x08005dac   0x00000088   Code   RO         6027    i.vPortEnterCritical  port.o
    0x08005e34   0x08005e34   0x00000070   Code   RO         6028    i.vPortExitCritical  port.o
    0x08005ea4   0x08005ea4   0x000000b8   Code   RO         5965    i.vPortFree         heap_4.o
    0x08005f5c   0x08005f5c   0x00000014   Code   RO         6029    i.vPortSetupTimerInterrupt  port.o
    0x08005f70   0x08005f70   0x0000007c   Code   RO         5658    i.vTaskDelay        tasks.o
    0x08005fec   0x08005fec   0x000000e4   Code   RO         5659    i.vTaskDelayUntil   tasks.o
    0x080060d0   0x080060d0   0x00000114   Code   RO         5660    i.vTaskDelete       tasks.o
    0x080061e4   0x080061e4   0x000000ac   Code   RO         5669    i.vTaskStartScheduler  tasks.o
    0x08006290   0x08006290   0x00000010   Code   RO         5671    i.vTaskSuspendAll   tasks.o
    0x080062a0   0x080062a0   0x000000b0   Code   RO         5672    i.vTaskSwitchContext  tasks.o
    0x08006350   0x08006350   0x0000005c   Code   RO         6572    i.wheelSwitchInterFace  meun.o
    0x080063ac   0x080063ac   0x0000001a   Code   RO         5342    i.xEventGroupCreate  event_groups.o
    0x080063c6   0x080063c6   0x00000002   PAD
    0x080063c8   0x080063c8   0x0000015c   Code   RO         6031    i.xPortStartScheduler  port.o
    0x08006524   0x08006524   0x00000034   Code   RO         6032    i.xPortSysTickHandler  port.o
    0x08006558   0x08006558   0x00000060   Code   RO         5674    i.xTaskCreate       tasks.o
    0x080065b8   0x080065b8   0x00000020   Code   RO         5677    i.xTaskGetSchedulerState  tasks.o
    0x080065d8   0x080065d8   0x0000000c   Code   RO         5678    i.xTaskGetTickCount  tasks.o
    0x080065e4   0x080065e4   0x00000168   Code   RO         5680    i.xTaskIncrementTick  tasks.o
    0x0800674c   0x0800674c   0x00000128   Code   RO         5685    i.xTaskResumeAll    tasks.o
    0x08006874   0x08006874   0x00000580   Data   RO         6161    .constdata          bsp_gpio.o
    0x08006df4   0x08006df4   0x000017c0   Data   RO         6653    .constdata          oled.o
    0x080085b4   0x080085b4   0x00000017   Data   RO         6573    .conststring        meun.o
    0x080085cb   0x080085cb   0x00000001   PAD
    0x080085cc   0x080085cc   0x00000020   Data   RO         7406    Region$$Table       anon$$obj.o


    Execution Region RW_IRAM1 (Exec base: 0x20000000, Load base: 0x080085ec, Size: 0x00009cb8, Max: 0x00020000, ABSOLUTE)

    Exec Addr    Load Addr    Size         Type   Attr      Idx    E Section Name        Object

    0x20000000   0x080085ec   0x0000003c   Data   RW         5688    .data               tasks.o
    0x2000003c   0x08008628   0x00000018   Data   RW         5970    .data               heap_4.o
    0x20000054   0x08008640   0x0000000c   Data   RW         6033    .data               port.o
    0x20000060   0x0800864c   0x00000008   Data   RW         6162    .data               bsp_gpio.o
    0x20000068   0x08008654   0x00000008   Data   RW         6521    .data               app_init.o
    0x20000070   0x0800865c   0x00000018   Data   RW         6574    .data               meun.o
    0x20000088   0x08008674   0x00000002   Data   RW         6744    .data               key.o
    0x2000008a   0x08008676   0x00000002   PAD
    0x2000008c   0x08008678   0x00000048   Data   RW         6825    .data               moving.o
    0x200000d4   0x080086c0   0x0000003c   Data   RW         6916    .data               trackdecisionlevel.o
    0x20000110   0x080086fc   0x00000004   Data   RW         7367    .data               mc_w.l(stdout.o)
    0x20000114        -       0x000002e4   Zero   RW         5687    .bss                tasks.o
    0x200003f8        -       0x00009000   Zero   RW         5969    .bss                heap_4.o
    0x200093f8        -       0x000000ba   Zero   RW         6520    .bss                app_init.o
    0x200094b2        -       0x00000400   Zero   RW         6652    .bss                oled.o
    0x200098b2   0x08008700   0x00000006   PAD
    0x200098b8        -       0x00000400   Zero   RW            1    STACK               startup_stm32f40_41xxx.o


==============================================================================

Image component sizes


      Code (inc. data)   RO Data    RW Data    ZI Data      Debug   Object Name

       572         30          0          8        186       6245   app_init.o
       354         50          0          0          0       3182   bsp_flash.o
       296         40       1408          8          0      18787   bsp_gpio.o
       276         10          0          0          0        872   bsp_pwm.o
       574        106          0          0          0       2639   bsp_timer.o
        26          0          0          0          0       8848   event_groups.o
        80         10          0          0          0       1532   gui.o
       752        176          0         24      36864       4027   heap_4.o
       356         32          0          2          0       1314   key.o
       148          0          0          0          0       3366   list.o
        52         14          0          0          0      27455   main.o
      4132        308         23         24          0       7413   meun.o
       140         24          0          0          0       1803   misc.o
      2808        408          0         72          0       7865   moving.o
      1274         74       6080          0       1024       8300   oled.o
      1010        322          0         12          0      10272   port.o
        36          8        392          0       1024        984   startup_stm32f40_41xxx.o
       426         40          0          0          0       5152   stm32f4xx_flash.o
       232          0          0          0          0       2751   stm32f4xx_gpio.o
        36          0          0          0          0       3439   stm32f4xx_it.o
        96         18          0          0          0       1995   stm32f4xx_rcc.o
       790         58          0          0          0      11863   stm32f4xx_tim.o
       340         32          0          0          0     278141   system_stm32f4xx.o
      2634        692          0         60        740      25114   tasks.o
      7424        420          0         60          0      14018   trackdecisionlevel.o
        28          0          0          0          0        603   util.o

    ----------------------------------------------------------------------
     24920       2872       7936        272      39844     457980   Object Totals
         0          0         32          0          0          0   (incl. Generated)
        28          0          1          2          6          0   (incl. Padding)

    ----------------------------------------------------------------------

      Code (inc. data)   RO Data    RW Data    ZI Data      Debug   Library Member Name

         0          0          0          0          0          0   entry.o
         0          0          0          0          0          0   entry10a.o
         0          0          0          0          0          0   entry11a.o
         8          4          0          0          0          0   entry2.o
         4          0          0          0          0          0   entry5.o
         0          0          0          0          0          0   entry7b.o
         0          0          0          0          0          0   entry8b.o
         8          4          0          0          0          0   entry9a.o
        18          0          0          0          0         80   fputc.o
        30          0          0          0          0          0   handlers.o
        36          8          0          0          0         68   init.o
         0          0          0          0          0          0   iusesemip.o
        30          0          0          0          0         68   llshl.o
        32          0          0          0          0         68   llushr.o
      1154         54          0          0          0        352   printf8.o
         0          0          0          0          0          0   semi.o
         0          0          0          4          0          0   stdout.o
        98          0          0          0          0         92   uldiv.o

    ----------------------------------------------------------------------
      1428         70          0          4          0        728   Library Totals
        10          0          0          0          0          0   (incl. Padding)

    ----------------------------------------------------------------------

      Code (inc. data)   RO Data    RW Data    ZI Data      Debug   Library Name

      1418         70          0          4          0        728   mc_w.l

    ----------------------------------------------------------------------
      1428         70          0          4          0        728   Library Totals

    ----------------------------------------------------------------------

==============================================================================


      Code (inc. data)   RO Data    RW Data    ZI Data      Debug   

     26348       2942       7936        276      39844     444600   Grand Totals
     26348       2942       7936        276      39844     444600   ELF Image Totals
     26348       2942       7936        276          0          0   ROM Totals

==============================================================================

    Total RO  Size (Code + RO Data)                34284 (  33.48kB)
    Total RW  Size (RW Data + ZI Data)             40120 (  39.18kB)
    Total ROM Size (Code + RO Data + RW Data)      34560 (  33.75kB)

==============================================================================

